{"contracts/ProducerCertification.sol":{"ProducerCertification":{"abi":[{"inputs":[],"stateMutability":"nonpayable","type":"constructor"},{"inputs":[],"name":"AccessControlBadConfirmation","type":"error"},{"inputs":[{"internalType":"address","name":"account","type":"address"},{"internalType":"bytes32","name":"neededRole","type":"bytes32"}],"name":"AccessControlUnauthorizedAccount","type":"error"},{"inputs":[{"internalType":"address","name":"target","type":"address"}],"name":"AddressEmptyCode","type":"error"},{"inputs":[{"internalType":"address","name":"implementation","type":"address"}],"name":"ERC1967InvalidImplementation","type":"error"},{"inputs":[],"name":"ERC1967NonPayable","type":"error"},{"inputs":[],"name":"EnforcedPause","type":"error"},{"inputs":[],"name":"ExpectedPause","type":"error"},{"inputs":[],"name":"FailedCall","type":"error"},{"inputs":[],"name":"InvalidInitialization","type":"error"},{"inputs":[],"name":"NotInitializing","type":"error"},{"inputs":[],"name":"UUPSUnauthorizedCallContext","type":"error"},{"inputs":[{"internalType":"bytes32","name":"slot","type":"bytes32"}],"name":"UUPSUnsupportedProxiableUUID","type":"error"},{"anonymous":false,"inputs":[{"indexed":true,"internalType":"address","name":"producer","type":"address"},{"indexed":true,"internalType":"enum ProducerCertification.CertificationType","name":"certType","type":"uint8"},{"indexed":false,"internalType":"uint256","name":"expiresAt","type":"uint256"}],"name":"CertificationAdded","type":"event"},{"anonymous":false,"inputs":[{"indexed":true,"internalType":"address","name":"producer","type":"address"},{"indexed":true,"internalType":"enum ProducerCertification.CertificationType","name":"certType","type":"uint8"},{"indexed":false,"internalType":"uint256","name":"timestamp","type":"uint256"}],"name":"CertificationRevoked","type":"event"},{"anonymous":false,"inputs":[{"indexed":false,"internalType":"uint64","name":"version","type":"uint64"}],"name":"Initialized","type":"event"},{"anonymous":false,"inputs":[{"indexed":false,"internalType":"address","name":"account","type":"address"}],"name":"Paused","type":"event"},{"anonymous":false,"inputs":[{"indexed":true,"internalType":"address","name":"producer","type":"address"},{"indexed":false,"internalType":"uint256","name":"timestamp","type":"uint256"}],"name":"ProducerRemoved","type":"event"},{"anonymous":false,"inputs":[{"indexed":true,"internalType":"address","name":"producer","type":"address"},{"indexed":false,"internalType":"string","name":"businessName","type":"string"},{"indexed":false,"internalType":"uint256","name":"timestamp","type":"uint256"}],"name":"ProducerWhitelisted","type":"event"},{"anonymous":false,"inputs":[{"indexed":true,"internalType":"bytes32","name":"role","type":"bytes32"},{"indexed":true,"internalType":"bytes32","name":"previousAdminRole","type":"bytes32"},{"indexed":true,"internalType":"bytes32","name":"newAdminRole","type":"bytes32"}],"name":"RoleAdminChanged","type":"event"},{"anonymous":false,"inputs":[{"indexed":true,"internalType":"bytes32","name":"role","type":"bytes32"},{"indexed":true,"internalType":"address","name":"account","type":"address"},{"indexed":true,"internalType":"address","name":"sender","type":"address"}],"name":"RoleGranted","type":"event"},{"anonymous":false,"inputs":[{"indexed":true,"internalType":"bytes32","name":"role","type":"bytes32"},{"indexed":true,"internalType":"address","name":"account","type":"address"},{"indexed":true,"internalType":"address","name":"sender","type":"address"}],"name":"RoleRevoked","type":"event"},{"anonymous":false,"inputs":[{"indexed":false,"internalType":"address","name":"account","type":"address"}],"name":"Unpaused","type":"event"},{"anonymous":false,"inputs":[{"indexed":true,"internalType":"address","name":"implementation","type":"address"}],"name":"Upgraded","type":"event"},{"inputs":[],"name":"CERTIFIER_ROLE","outputs":[{"internalType":"bytes32","name":"","type":"bytes32"}],"stateMutability":"view","type":"function"},{"inputs":[],"name":"DEFAULT_ADMIN_ROLE","outputs":[{"internalType":"bytes32","name":"","type":"bytes32"}],"stateMutability":"view","type":"function"},{"inputs":[],"name":"UPGRADE_INTERFACE_VERSION","outputs":[{"internalType":"string","name":"","type":"string"}],"stateMutability":"view","type":"function"},{"inputs":[{"internalType":"uint256","name":"","type":"uint256"}],"name":"activeProducers","outputs":[{"internalType":"address","name":"","type":"address"}],"stateMutability":"view","type":"function"},{"inputs":[{"internalType":"address","name":"producer","type":"address"},{"internalType":"enum ProducerCertification.CertificationType","name":"certType","type":"uint8"},{"internalType":"string","name":"certifier","type":"string"},{"internalType":"string","name":"certificateNumber","type":"string"},{"internalType":"string","name":"ipfsHash","type":"string"},{"internalType":"uint256","name":"expiresAt","type":"uint256"}],"name":"addCertification","outputs":[],"stateMutability":"nonpayable","type":"function"},{"inputs":[{"internalType":"address","name":"","type":"address"},{"internalType":"enum ProducerCertification.CertificationType","name":"","type":"uint8"}],"name":"certifications","outputs":[{"internalType":"enum ProducerCertification.CertificationType","name":"certType","type":"uint8"},{"internalType":"string","name":"certifier","type":"string"},{"internalType":"string","name":"certificateNumber","type":"string"},{"internalType":"string","name":"ipfsHash","type":"string"},{"internalType":"uint256","name":"issuedAt","type":"uint256"},{"internalType":"uint256","name":"expiresAt","type":"uint256"},{"internalType":"bool","name":"isActive","type":"bool"}],"stateMutability":"view","type":"function"},{"inputs":[{"internalType":"address","name":"producer","type":"address"}],"name":"getProducer","outputs":[{"components":[{"internalType":"address","name":"wallet","type":"address"},{"internalType":"string","name":"businessName","type":"string"},{"internalType":"string","name":"rfc","type":"string"},{"internalType":"string","name":"state","type":"string"},{"internalType":"string","name":"municipality","type":"string"},{"internalType":"int256","name":"latitude","type":"int256"},{"internalType":"int256","name":"longitude","type":"int256"},{"internalType":"bool","name":"isWhitelisted","type":"bool"},{"internalType":"uint256","name":"whitelistedAt","type":"uint256"},{"internalType":"uint256","name":"totalBatches","type":"uint256"}],"internalType":"struct ProducerCertification.Producer","name":"","type":"tuple"}],"stateMutability":"view","type":"function"},{"inputs":[{"internalType":"bytes32","name":"role","type":"bytes32"}],"name":"getRoleAdmin","outputs":[{"internalType":"bytes32","name":"","type":"bytes32"}],"stateMutability":"view","type":"function"},{"inputs":[{"internalType":"bytes32","name":"role","type":"bytes32"},{"internalType":"address","name":"account","type":"address"}],"name":"grantRole","outputs":[],"stateMutability":"nonpayable","type":"function"},{"inputs":[{"internalType":"address","name":"producer","type":"address"},{"internalType":"enum ProducerCertification.CertificationType","name":"certType","type":"uint8"}],"name":"hasCertification","outputs":[{"internalType":"bool","name":"","type":"bool"}],"stateMutability":"view","type":"function"},{"inputs":[{"internalType":"bytes32","name":"role","type":"bytes32"},{"internalType":"address","name":"account","type":"address"}],"name":"hasRole","outputs":[{"internalType":"bool","name":"","type":"bool"}],"stateMutability":"view","type":"function"},{"inputs":[{"internalType":"address","name":"producer","type":"address"}],"name":"incrementBatchCount","outputs":[],"stateMutability":"nonpayable","type":"function"},{"inputs":[{"internalType":"address","name":"admin","type":"address"}],"name":"initialize","outputs":[],"stateMutability":"nonpayable","type":"function"},{"inputs":[{"internalType":"address","name":"producer","type":"address"}],"name":"isProducerCertified","outputs":[{"internalType":"bool","name":"","type":"bool"}],"stateMutability":"view","type":"function"},{"inputs":[],"name":"pause","outputs":[],"stateMutability":"nonpayable","type":"function"},{"inputs":[],"name":"paused","outputs":[{"internalType":"bool","name":"","type":"bool"}],"stateMutability":"view","type":"function"},{"inputs":[{"internalType":"address","name":"","type":"address"}],"name":"producers","outputs":[{"internalType":"address","name":"wallet","type":"address"},{"internalType":"string","name":"businessName","type":"string"},{"internalType":"string","name":"rfc","type":"string"},{"internalType":"string","name":"state","type":"string"},{"internalType":"string","name":"municipality","type":"string"},{"internalType":"int256","name":"latitude","type":"int256"},{"internalType":"int256","name":"longitude","type":"int256"},{"internalType":"bool","name":"isWhitelisted","type":"bool"},{"internalType":"uint256","name":"whitelistedAt","type":"uint256"},{"internalType":"uint256","name":"totalBatches","type":"uint256"}],"stateMutability":"view","type":"function"},{"inputs":[],"name":"proxiableUUID","outputs":[{"internalType":"bytes32","name":"","type":"bytes32"}],"stateMutability":"view","type":"function"},{"inputs":[{"internalType":"bytes32","name":"role","type":"bytes32"},{"internalType":"address","name":"callerConfirmation","type":"address"}],"name":"renounceRole","outputs":[],"stateMutability":"nonpayable","type":"function"},{"inputs":[{"internalType":"bytes32","name":"role","type":"bytes32"},{"internalType":"address","name":"account","type":"address"}],"name":"revokeRole","outputs":[],"stateMutability":"nonpayable","type":"function"},{"inputs":[{"internalType":"bytes4","name":"interfaceId","type":"bytes4"}],"name":"supportsInterface","outputs":[{"internalType":"bool","name":"","type":"bool"}],"stateMutability":"view","type":"function"},{"inputs":[],"name":"totalProducers","outputs":[{"internalType":"uint256","name":"","type":"uint256"}],"stateMutability":"view","type":"function"},{"inputs":[],"name":"unpause","outputs":[],"stateMutability":"nonpayable","type":"function"},{"inputs":[{"internalType":"address","name":"newImplementation","type":"address"},{"internalType":"bytes","name":"data","type":"bytes"}],"name":"upgradeToAndCall","outputs":[],"stateMutability":"payable","type":"function"},{"inputs":[{"internalType":"address","name":"producerWallet","type":"address"},{"internalType":"string","name":"businessName","type":"string"},{"internalType":"string","name":"rfc","type":"string"},{"internalType":"string","name":"state","type":"string"},{"internalType":"string","name":"municipality","type":"string"},{"internalType":"int256","name":"latitude","type":"int256"},{"internalType":"int256","name":"longitude","type":"int256"}],"name":"whitelistProducer","outputs":[],"stateMutability":"nonpayable","type":"function"}],"evm":{"bytecode":{"linkReferences":{},"object":"60a080604052346100cc57306080527ff0c57e16840df040f15088dc2f81fe391c3923bec73e23a9662efc9c229c6a009081549060ff8260401c166100bd57506001600160401b036002600160401b031982821601610078575b60405161230290816100d2823960805181818161160d01526116c60152f35b6001600160401b031990911681179091556040519081527fc7f505b2f371ae2175ee4913f4499e1f2633a7b5936321eed1cdaeb6115181d290602090a1388080610059565b63f92ee8a960e01b8152600490fd5b600080fdfe608080604052600436101561001357600080fd5b60003560e01c90816301ffc9a714611ae457508063248a9ca314611aa857806326324eff146119af5780632f2ff15d1461196357806336568abe1461191c5780633f4ba83a146118a55780634f1ef2861461167757806352d1902d146115fa578063542429e21461152b5780635c975abb146114fb578063656d1ea8146114b957806369d0b5171461147e5780638074c2ca14610f065780638456cb5914610e9f57806391d1485414610e4557806398e232ef14610d88578063a14fabec14610d46578063a217fddf14610d2a578063aab147b214610b63578063ad3cb1cc14610b07578063b2db614014610ae9578063c1c0f45614610325578063c4d66de8146101e2578063c90df9bc146101855763d547741f1461013257600080fd5b346101805760403660031901126101805761017e600435610151611b4d565b908060005260008051602061228d833981519152602052610179600160406000200154611f1e565b61213a565b005b600080fd5b34610180576020366003190112610180576001600160a01b036101a6611b37565b168060005260006020526101c460ff60076040600020015416611ded565b600052600060205260096040600020016101de8154611e45565b9055005b34610180576020366003190112610180576101fb611b37565b7ff0c57e16840df040f15088dc2f81fe391c3923bec73e23a9662efc9c229c6a0090815460ff8160401c1615916001600160401b0382168015908161031d575b6001149081610313575b15908161030a575b506102f85767ffffffffffffffff198216600117845561029591836102d9575b506102766121e8565b61027e6121e8565b6102866121e8565b61028f81611f51565b50611ff1565b5061029c57005b68ff00000000000000001981541690557fc7f505b2f371ae2175ee4913f4499e1f2633a7b5936321eed1cdaeb6115181d2602060405160018152a1005b68ffffffffffffffffff1916680100000000000000011784558461026d565b60405163f92ee8a960e01b8152600490fd5b9050158561024d565b303b159150610245565b84915061023b565b346101805760e03660031901126101805761033e611b37565b6024356001600160401b0381116101805761035d903690600401611d73565b916044356001600160401b0381116101805761037d903690600401611d73565b6064356001600160401b0381116101805761039c903690600401611d73565b926084356001600160401b038111610180576103bc903690600401611d73565b9190926103c76121bd565b6103cf611ec2565b6001600160a01b03871615610ab2576001600160a01b03871660009081526020819052604090206007015460ff16610a7757889561043e61044a93610456976104328c6040519b61041f8d611bb8565b6001600160a01b038e168d523691611cf5565b60208b01523691611cf5565b60408801523691611cf5565b60608501523691611cf5565b608082015260a43560a082015260c43560c0820152600160e082015242610100820152600061012082015260018060a01b038216600052600060205260406000209060018060a01b038151166bffffffffffffffffffffffff60a01b83541617825560208101518051906001600160401b0382116107295781906104dd6001860154611b63565b601f8111610a24575b50602090601f83116001146109b2576000926109a7575b50508160011b916000199060031b1c19161760018301555b60408101518051906001600160401b03821161072957819061053a6002860154611b63565b601f8111610954575b50602090601f83116001146108e2576000926108d7575b50508160011b916000199060031b1c19161760028301555b60608101518051906001600160401b0382116107295781906105976003860154611b63565b601f8111610884575b50602090601f831160011461081257600092610807575b50508160011b916000199060031b1c19161760038301555b60808101518051906001600160401b038211610729576105f26004850154611b63565b601f81116107c0575b50602090601f831160011461074a579180600994926101209460009261073f575b50508160011b916000199060031b1c19161760048501555b60a0810151600585015560c0810151600685015561066760e08201511515600786019060ff801983541691151516179055565b6101008101516008850155015191015560025468010000000000000000811015610729577fde8d782549301ec3fdb69cddba109eaa45b8fa62fd1ed3f1fff30a2a4c70d36e9284926106c183600160609501600255611da0565b81546001600160a01b03600392831b81811b1990921690851690911b17909155546106eb90611e45565b600355604051938492604084528160408501528484013760008287018401524260208301526001600160a01b031694601f01601f19168101030190a2005b634e487b7160e01b600052604160045260246000fd5b01519050898061061c565b906004850160005260206000209160005b601f19851681106107a8575092600994926001926101209583601f1981161061078f575b505050811b016004850155610634565b015160001960f88460031b161c1916905589808061077f565b9192602060018192868501518155019401920161075b565b600485016000526020600020601f840160051c810160208510610800575b601f830160051c820181106107f45750506105fb565b600081556001016107de565b50806107de565b0151905087806105b7565b9250600385016000526020600020906000935b601f1984168510610869576001945083601f19811610610850575b505050811b0160038301556105cf565b015160001960f88460031b161c19169055878080610840565b81810151835560209485019460019093019290910190610825565b909150600385016000526020600020601f840160051c8101602085106108d0575b90849392915b601f830160051c820181106108c15750506105a0565b600081558594506001016108ab565b50806108a5565b01519050878061055a565b9250600285016000526020600020906000935b601f1984168510610939576001945083601f19811610610920575b505050811b016002830155610572565b015160001960f88460031b161c19169055878080610910565b818101518355602094850194600190930192909101906108f5565b909150600285016000526020600020601f840160051c8101602085106109a0575b90849392915b601f830160051c82018110610991575050610543565b6000815585945060010161097b565b5080610975565b0151905087806104fd565b9250600185016000526020600020906000935b601f1984168510610a09576001945083601f198116106109f0575b505050811b016001830155610515565b015160001960f88460031b161c191690558780806109e0565b818101518355602094850194600190930192909101906109c5565b909150600185016000526020600020601f840160051c810160208510610a70575b90849392915b601f830160051c82018110610a615750506104e6565b60008155859450600101610a4b565b5080610a45565b60405162461bcd60e51b8152602060048201526013602482015272105b1c9958591e481dda1a5d195b1a5cdd1959606a1b6044820152606490fd5b60405162461bcd60e51b815260206004820152600f60248201526e496e76616c6964206164647265737360881b6044820152606490fd5b34610180576000366003190112610180576020600354604051908152f35b346101805760003660031901126101805760405160408101908082106001600160401b0383111761072957610b5f9160405260058152640352e302e360dc1b6020820152604051918291602083526020830190611c9a565b0390f35b3461018057602036600319011261018057610b7c611b37565b6000610120604051610b8d81611bb8565b8281526060602082015260606040820152606080820152606060808201528260a08201528260c08201528260e082015282610100820152015260018060a01b031660005260006020526040600020600960405191610bea83611bb8565b80546001600160a01b03168352610c0360018201611bf5565b6020840152610c1460028201611bf5565b6040840152610c2560038201611bf5565b6060840152610c3660048201611bf5565b6080840152600581015460a0840152600681015460c084015260ff600782015416151560e08401526008810154610100840152015461012082015260405180916020825260018060a01b0381511660208301526020810151610120610cf4610cac61014093846040880152610160870190611c9a565b610cdf610ccb604087015192601f1993848a83030160608b0152611c9a565b6060870151838983030160808a0152611c9a565b906080860151908783030160a0880152611c9a565b9260a081015160c086015260c081015160e086015260e08101511515610100860152610100810151828601520151908301520390f35b3461018057600036600319011261018057602060405160008152f35b346101805760203660031901126101805760043560025481101561018057610d6f602091611da0565b905460405160039290921b1c6001600160a01b03168152f35b3461018057602060c0610dba610d9d36611d2c565b6001600160a01b0390911660009081526001855260409020611d5b565b604051610dc681611b9d565b610dd460ff83541682611e39565b610de060018301611bf5565b84820152610df060028301611bf5565b6040820152610e0160038301611bf5565b60608201526004820154608082015260ff60066005840154938460a08501520154161515928391015281610e3b575b506040519015158152f35b9050421082610e30565b3461018057604036600319011261018057610e5e611b4d565b60043560005260008051602061228d83398151915260205260406000209060018060a01b0316600052602052602060ff604060002054166040519015158152f35b3461018057600036600319011261018057610eb8611e6a565b610ec06121bd565b6000805160206122ad833981519152600160ff198254161790557f62e78cea01bee320cd4e420270b5ea74000d11b0c9f74754ebdbfc544b05a2586020604051338152a1005b346101805760c036600319011261018057610f1f611b37565b60066024351015610180576044356001600160401b03811161018057610f49903690600401611d73565b6064356001600160401b03811161018057610f68903690600401611d73565b926084356001600160401b03811161018057610f88903690600401611d73565b9091610f92611ec2565b60018060a01b0387166000526000602052610fb760ff60076040600020015416611ded565b4260a43511156114445761100793610fec610ffb9260405197610fd989611b9d565b610fe56024358a611e39565b3691611cf5565b96602087019788523691611cf5565b60408501523691611cf5565b606082015242608082015260a43560a0820152600160c082015260018060a01b03831660005260016020526110426024356040600020611d5b565b918151600681101561142e5760ff80198554169116178355519283516001600160401b038111610729576110796001850154611b63565b601f81116113e7575b506020601f821160011461137857819293949560009261136d575b50508160011b916000199060031b1c19161760018401555b60408201519283516001600160401b038111610729576110d86002830154611b63565b601f8111611326575b506020601f82116001146112b75781929394956000926112ac575b50508160011b916000199060031b1c19161760028201555b60608301519283516001600160401b038111610729576111376003840154611b63565b601f8111611265575b506020601f82116001146111ef57918160c0926006946111a697986000926111e4575b50508160011b916000199060031b1c19161760038501555b6080810151600485015560a081015160058501550151151591019060ff801983541691151516179055565b60405160a4358152602435916001600160a01b0316907f013efc95a35704073bfbfb9554ee57e3909eeda1d02540a0b75858b2a6669d1b90602090a3005b015190508880611163565b601f198216956003850160005260206000209660005b81811061124d5750926111a69697600695936001938360c09710611234575b505050811b01600385015561117b565b015160001960f88460031b161c19169055888080611224565b83830151895560019098019760209384019301611205565b600384016000526020600020601f830160051c8101602084106112a5575b601f830160051c82018110611299575050611140565b60008155600101611283565b5080611283565b0151905085806110fc565b6002830160005260206000209060005b601f198416811061130e575060019394959683601f198116106112f5575b505050811b016002820155611114565b015160001960f88460031b161c191690558580806112e5565b9091602060018192858b0151815501930191016112c7565b600283016000526020600020601f830160051c810160208410611366575b601f830160051c8201811061135a5750506110e1565b60008155600101611344565b5080611344565b01519050858061109d565b6001850160005260206000209060005b601f19841681106113cf575060019394959683601f198116106113b6575b505050811b0160018401556110b5565b015160001960f88460031b161c191690558580806113a6565b9091602060018192858b015181550193019101611388565b600185016000526020600020601f830160051c810160208410611427575b601f830160051c8201811061141b575050611082565b60008155600101611405565b5080611405565b634e487b7160e01b600052602160045260246000fd5b60405162461bcd60e51b815260206004820152601260248201527124b73b30b634b21032bc3834b930ba34b7b760711b6044820152606490fd5b346101805760003660031901126101805760206040517f65cb1d8422cdf0328f26b49e42e9f4524474c431da623cbe0ea455f1b67c9f778152f35b34610180576020366003190112610180576001600160a01b036114da611b37565b166000526000602052602060ff600760406000200154166040519015158152f35b3461018057600036600319011261018057602060ff6000805160206122ad83398151915254166040519015158152f35b346101805761155a61153c36611d2c565b6001600160a01b039091166000908152600160205260409020611d5b565b60ff8154169061156c60018201611bf5565b9161157960028301611bf5565b9161158660038201611bf5565b9060048101549260ff60066005840154930154169260405196600683101561142e5787966115c86115d6926115e4958a5260e060208b015260e08a0190611c9a565b9088820360408a0152611c9a565b908682036060880152611c9a565b92608085015260a0840152151560c08301520390f35b34610180576000366003190112610180577f00000000000000000000000000000000000000000000000000000000000000006001600160a01b031630036116655760206040517f360894a13ba1a3210667c828492db98dca3e2076cc3735a920a3ca505d382bbc8152f35b60405163703e46dd60e11b8152600490fd5b60403660031901126101805761168b611b37565b6024356001600160401b0381116101805736602382011215610180576116bb903690602481600401359101611cf5565b906001600160a01b037f00000000000000000000000000000000000000000000000000000000000000008116308114908115611877575b50611665576116ff611e6a565b6040516352d1902d60e01b8152908216916020918281600481875afa60009181611848575b5061174257604051634c9c8ce360e01b815260048101859052602490fd5b9284937f360894a13ba1a3210667c828492db98dca3e2076cc3735a920a3ca505d382bbc908181036118305750823b156118175780546001600160a01b03191682179055604051907fbc7cd75a20ee27fd9adebab32041f755214dbc6bffa90cc0225b39da2e5c2d3b600080a28351156117fd5750600080848461017e96519101845af4903d156117f4573d6117d781611cda565b906117e56040519283611bd4565b8152600081943d92013e612229565b60609250612229565b925050503461180857005b63b398979f60e01b8152600490fd5b604051634c9c8ce360e01b815260048101839052602490fd5b60249060405190632a87526960e21b82526004820152fd5b9091508381813d8311611870575b6118608183611bd4565b8101031261018057519086611724565b503d611856565b9050817f360894a13ba1a3210667c828492db98dca3e2076cc3735a920a3ca505d382bbc54161415846116f2565b34610180576000366003190112610180576118be611e6a565b6000805160206122ad833981519152805460ff81161561190a5760ff191690557f5db9ee0a495bf2e6ff9c91a7834c1ba4fdd244a5e8aa4e537bd38aeae4b073aa6020604051338152a1005b604051638dfc202b60e01b8152600490fd5b3461018057604036600319011261018057611935611b4d565b336001600160a01b038216036119515761017e9060043561213a565b60405163334bd91960e11b8152600490fd5b346101805760403660031901126101805761017e600435611982611b4d565b908060005260008051602061228d8339815191526020526119aa600160406000200154611f1e565b6120b3565b34610180576020366003190112610180576001600160a01b03806119d1611b37565b1660005260006020526040600020908154166119ef60018301611bf5565b916119fc60028201611bf5565b611a0860038301611bf5565b91611a1560048201611bf5565b92600582015493611a86600684015491611a7860ff60078701541694611a6a6009600889015498015498611a5c6040519d8e9d8e6101409181528160208201520190611c9a565b8c810360408e015290611c9a565b908a820360608c0152611c9a565b9088820360808a0152611c9a565b9460a087015260c0860152151560e08501526101008401526101208301520390f35b346101805760203660031901126101805760043560005260008051602061228d8339815191526020526020600160406000200154604051908152f35b34610180576020366003190112610180576004359063ffffffff60e01b821680920361018057602091637965db0b60e01b8114908115611b26575b5015158152f35b6301ffc9a760e01b14905083611b1f565b600435906001600160a01b038216820361018057565b602435906001600160a01b038216820361018057565b90600182811c92168015611b93575b6020831014611b7d57565b634e487b7160e01b600052602260045260246000fd5b91607f1691611b72565b60e081019081106001600160401b0382111761072957604052565b61014081019081106001600160401b0382111761072957604052565b90601f801991011681019081106001600160401b0382111761072957604052565b90604051918260008254611c0881611b63565b90818452602094600191600181169081600014611c785750600114611c39575b505050611c3792500383611bd4565b565b600090815285812095935091905b818310611c60575050611c379350820101388080611c28565b85548884018501529485019487945091830191611c47565b92505050611c3794925060ff191682840152151560051b820101388080611c28565b919082519283825260005b848110611cc6575050826000602080949584010152601f8019910116010190565b602081830181015184830182015201611ca5565b6001600160401b03811161072957601f01601f191660200190565b929192611d0182611cda565b91611d0f6040519384611bd4565b829481845281830111610180578281602093846000960137010152565b6040906003190112610180576004356001600160a01b0381168103610180579060243560068110156101805790565b90600681101561142e57600052602052604060002090565b9181601f84011215610180578235916001600160401b038311610180576020838186019501011161018057565b600254811015611dd75760026000527f405787fa12a823e0f2b7631cc41b3ba8828b3321ca811111fa75cd3aa3bb5ace0190600090565b634e487b7160e01b600052603260045260246000fd5b15611df457565b60405162461bcd60e51b815260206004820152601860248201527f50726f6475636572206e6f742077686974656c697374656400000000000000006044820152606490fd5b600682101561142e5752565b6000198114611e545760010190565b634e487b7160e01b600052601160045260246000fd5b3360009081527fb7db2dd08fcb62d0c9e08c51941cae53c267786a0b75803fb7960902fc8ef97d602052604081205460ff1615611ea45750565b6044906040519063e2517d3f60e01b82523360048301526024820152fd5b3360009081527fe45607abfef3d9cf5e943a575beae878b8ebd6d89ed911d543232b99ef6bc2dd60205260409020547f65cb1d8422cdf0328f26b49e42e9f4524474c431da623cbe0ea455f1b67c9f779060ff1615611ea45750565b8060005260008051602061228d83398151915260205260406000203360005260205260ff6040600020541615611ea45750565b6001600160a01b031660008181527fb7db2dd08fcb62d0c9e08c51941cae53c267786a0b75803fb7960902fc8ef97d602052604081205490919060008051602061228d8339815191529060ff16611fec578280526020526040822081835260205260408220600160ff1982541617905533917f2f8788117e7eff1d82e926ec794901d17c78024a50270940304540a733656f0d8180a4600190565b505090565b6001600160a01b031660008181527fe45607abfef3d9cf5e943a575beae878b8ebd6d89ed911d543232b99ef6bc2dd60205260408120549091907f65cb1d8422cdf0328f26b49e42e9f4524474c431da623cbe0ea455f1b67c9f779060008051602061228d8339815191529060ff166120ad578184526020526040832082845260205260408320600160ff198254161790557f2f8788117e7eff1d82e926ec794901d17c78024a50270940304540a733656f0d339380a4600190565b50505090565b9060009180835260008051602061228d83398151915280602052604084209260018060a01b03169283855260205260ff604085205416156000146120ad578184526020526040832082845260205260408320600160ff198254161790557f2f8788117e7eff1d82e926ec794901d17c78024a50270940304540a733656f0d339380a4600190565b9060009180835260008051602061228d83398151915280602052604084209260018060a01b03169283855260205260ff6040852054166000146120ad57818452602052604083208284526020526040832060ff1981541690557ff6391f5c32d9c69d2a47ea670b442974b53935d1edc7fd64eb21e047a839171b339380a4600190565b60ff6000805160206122ad83398151915254166121d657565b60405163d93c066560e01b8152600490fd5b60ff7ff0c57e16840df040f15088dc2f81fe391c3923bec73e23a9662efc9c229c6a005460401c161561221757565b604051631afcd79f60e31b8152600490fd5b90612250575080511561223e57602081519101fd5b60405163d6bda27560e01b8152600490fd5b81511580612283575b612261575090565b604051639996b31560e01b81526001600160a01b039091166004820152602490fd5b50803b1561225956fe02dd7bc7dec4dceedda775e58dd541e08a116c6c53815c0bd028192f7b626800cd5ed15c6e187e77e9aee88184c21f4f2182ab5827cb3b7e07fbedcd63f03300a2646970667358221220ad6a128a6387db7a7670a303f506965876746eee7dbae5c9df11a4d28be3f12364736f6c63430008180033","opcodes":"PUSH1 0xA0 DUP1 PUSH1 0x40 MSTORE CALLVALUE PUSH2 0xCC JUMPI ADDRESS PUSH1 0x80 MSTORE PUSH32 0xF0C57E16840DF040F15088DC2F81FE391C3923BEC73E23A9662EFC9C229C6A00 SWAP1 DUP2 SLOAD SWAP1 PUSH1 0xFF DUP3 PUSH1 0x40 SHR AND PUSH2 0xBD JUMPI POP PUSH1 0x1 PUSH1 0x1 PUSH1 0x40 SHL SUB PUSH1 0x2 PUSH1 0x1 PUSH1 0x40 SHL SUB NOT DUP3 DUP3 AND ADD PUSH2 0x78 JUMPI JUMPDEST PUSH1 0x40 MLOAD PUSH2 0x2302 SWAP1 DUP2 PUSH2 0xD2 DUP3 CODECOPY PUSH1 0x80 MLOAD DUP2 DUP2 DUP2 PUSH2 0x160D ADD MSTORE PUSH2 0x16C6 ADD MSTORE RETURN JUMPDEST PUSH1 0x1 PUSH1 0x1 PUSH1 0x40 SHL SUB NOT SWAP1 SWAP2 AND DUP2 OR SWAP1 SWAP2 SSTORE PUSH1 0x40 MLOAD SWAP1 DUP2 MSTORE PUSH32 0xC7F505B2F371AE2175EE4913F4499E1F2633A7B5936321EED1CDAEB6115181D2 SWAP1 PUSH1 0x20 SWAP1 LOG1 CODESIZE DUP1 DUP1 PUSH2 0x59 JUMP JUMPDEST PUSH4 0xF92EE8A9 PUSH1 0xE0 SHL DUP2 MSTORE PUSH1 0x4 SWAP1 REVERT JUMPDEST PUSH1 0x0 DUP1 REVERT INVALID PUSH1 0x80 DUP1 PUSH1 0x40 MSTORE PUSH1 0x4 CALLDATASIZE LT ISZERO PUSH2 0x13 JUMPI PUSH1 0x0 DUP1 REVERT JUMPDEST PUSH1 0x0 CALLDATALOAD PUSH1 0xE0 SHR SWAP1 DUP2 PUSH4 0x1FFC9A7 EQ PUSH2 0x1AE4 JUMPI POP DUP1 PUSH4 0x248A9CA3 EQ PUSH2 0x1AA8 JUMPI DUP1 PUSH4 0x26324EFF EQ PUSH2 0x19AF JUMPI DUP1 PUSH4 0x2F2FF15D EQ PUSH2 0x1963 JUMPI DUP1 PUSH4 0x36568ABE EQ PUSH2 0x191C JUMPI DUP1 PUSH4 0x3F4BA83A EQ PUSH2 0x18A5 JUMPI DUP1 PUSH4 0x4F1EF286 EQ PUSH2 0x1677 JUMPI DUP1 PUSH4 0x52D1902D EQ PUSH2 0x15FA JUMPI DUP1 PUSH4 0x542429E2 EQ PUSH2 0x152B JUMPI DUP1 PUSH4 0x5C975ABB EQ PUSH2 0x14FB JUMPI DUP1 PUSH4 0x656D1EA8 EQ PUSH2 0x14B9 JUMPI DUP1 PUSH4 0x69D0B517 EQ PUSH2 0x147E JUMPI DUP1 PUSH4 0x8074C2CA EQ PUSH2 0xF06 JUMPI DUP1 PUSH4 0x8456CB59 EQ PUSH2 0xE9F JUMPI DUP1 PUSH4 0x91D14854 EQ PUSH2 0xE45 JUMPI DUP1 PUSH4 0x98E232EF EQ PUSH2 0xD88 JUMPI DUP1 PUSH4 0xA14FABEC EQ PUSH2 0xD46 JUMPI DUP1 PUSH4 0xA217FDDF EQ PUSH2 0xD2A JUMPI DUP1 PUSH4 0xAAB147B2 EQ PUSH2 0xB63 JUMPI DUP1 PUSH4 0xAD3CB1CC EQ PUSH2 0xB07 JUMPI DUP1 PUSH4 0xB2DB6140 EQ PUSH2 0xAE9 JUMPI DUP1 PUSH4 0xC1C0F456 EQ PUSH2 0x325 JUMPI DUP1 PUSH4 0xC4D66DE8 EQ PUSH2 0x1E2 JUMPI DUP1 PUSH4 0xC90DF9BC EQ PUSH2 0x185 JUMPI PUSH4 0xD547741F EQ PUSH2 0x132 JUMPI PUSH1 0x0 DUP1 REVERT JUMPDEST CALLVALUE PUSH2 0x180 JUMPI PUSH1 0x40 CALLDATASIZE PUSH1 0x3 NOT ADD SLT PUSH2 0x180 JUMPI PUSH2 0x17E PUSH1 0x4 CALLDATALOAD PUSH2 0x151 PUSH2 0x1B4D JUMP JUMPDEST SWAP1 DUP1 PUSH1 0x0 MSTORE PUSH1 0x0 DUP1 MLOAD PUSH1 0x20 PUSH2 0x228D DUP4 CODECOPY DUP2 MLOAD SWAP2 MSTORE PUSH1 0x20 MSTORE PUSH2 0x179 PUSH1 0x1 PUSH1 0x40 PUSH1 0x0 KECCAK256 ADD SLOAD PUSH2 0x1F1E JUMP JUMPDEST PUSH2 0x213A JUMP JUMPDEST STOP JUMPDEST PUSH1 0x0 DUP1 REVERT JUMPDEST CALLVALUE PUSH2 0x180 JUMPI PUSH1 0x20 CALLDATASIZE PUSH1 0x3 NOT ADD SLT PUSH2 0x180 JUMPI PUSH1 0x1 PUSH1 0x1 PUSH1 0xA0 SHL SUB PUSH2 0x1A6 PUSH2 0x1B37 JUMP JUMPDEST AND DUP1 PUSH1 0x0 MSTORE PUSH1 0x0 PUSH1 0x20 MSTORE PUSH2 0x1C4 PUSH1 0xFF PUSH1 0x7 PUSH1 0x40 PUSH1 0x0 KECCAK256 ADD SLOAD AND PUSH2 0x1DED JUMP JUMPDEST PUSH1 0x0 MSTORE PUSH1 0x0 PUSH1 0x20 MSTORE PUSH1 0x9 PUSH1 0x40 PUSH1 0x0 KECCAK256 ADD PUSH2 0x1DE DUP2 SLOAD PUSH2 0x1E45 JUMP JUMPDEST SWAP1 SSTORE STOP JUMPDEST CALLVALUE PUSH2 0x180 JUMPI PUSH1 0x20 CALLDATASIZE PUSH1 0x3 NOT ADD SLT PUSH2 0x180 JUMPI PUSH2 0x1FB PUSH2 0x1B37 JUMP JUMPDEST PUSH32 0xF0C57E16840DF040F15088DC2F81FE391C3923BEC73E23A9662EFC9C229C6A00 SWAP1 DUP2 SLOAD PUSH1 0xFF DUP2 PUSH1 0x40 SHR AND ISZERO SWAP2 PUSH1 0x1 PUSH1 0x1 PUSH1 0x40 SHL SUB DUP3 AND DUP1 ISZERO SWAP1 DUP2 PUSH2 0x31D JUMPI JUMPDEST PUSH1 0x1 EQ SWAP1 DUP2 PUSH2 0x313 JUMPI JUMPDEST ISZERO SWAP1 DUP2 PUSH2 0x30A JUMPI JUMPDEST POP PUSH2 0x2F8 JUMPI PUSH8 0xFFFFFFFFFFFFFFFF NOT DUP3 AND PUSH1 0x1 OR DUP5 SSTORE PUSH2 0x295 SWAP2 DUP4 PUSH2 0x2D9 JUMPI JUMPDEST POP PUSH2 0x276 PUSH2 0x21E8 JUMP JUMPDEST PUSH2 0x27E PUSH2 0x21E8 JUMP JUMPDEST PUSH2 0x286 PUSH2 0x21E8 JUMP JUMPDEST PUSH2 0x28F DUP2 PUSH2 0x1F51 JUMP JUMPDEST POP PUSH2 0x1FF1 JUMP JUMPDEST POP PUSH2 0x29C JUMPI STOP JUMPDEST PUSH9 0xFF0000000000000000 NOT DUP2 SLOAD AND SWAP1 SSTORE PUSH32 0xC7F505B2F371AE2175EE4913F4499E1F2633A7B5936321EED1CDAEB6115181D2 PUSH1 0x20 PUSH1 0x40 MLOAD PUSH1 0x1 DUP2 MSTORE LOG1 STOP JUMPDEST PUSH9 0xFFFFFFFFFFFFFFFFFF NOT AND PUSH9 0x10000000000000001 OR DUP5 SSTORE DUP5 PUSH2 0x26D JUMP JUMPDEST PUSH1 0x40 MLOAD PUSH4 0xF92EE8A9 PUSH1 0xE0 SHL DUP2 MSTORE PUSH1 0x4 SWAP1 REVERT JUMPDEST SWAP1 POP ISZERO DUP6 PUSH2 0x24D JUMP JUMPDEST ADDRESS EXTCODESIZE ISZERO SWAP2 POP PUSH2 0x245 JUMP JUMPDEST DUP5 SWAP2 POP PUSH2 0x23B JUMP JUMPDEST CALLVALUE PUSH2 0x180 JUMPI PUSH1 0xE0 CALLDATASIZE PUSH1 0x3 NOT ADD SLT PUSH2 0x180 JUMPI PUSH2 0x33E PUSH2 0x1B37 JUMP JUMPDEST PUSH1 0x24 CALLDATALOAD PUSH1 0x1 PUSH1 0x1 PUSH1 0x40 SHL SUB DUP2 GT PUSH2 0x180 JUMPI PUSH2 0x35D SWAP1 CALLDATASIZE SWAP1 PUSH1 0x4 ADD PUSH2 0x1D73 JUMP JUMPDEST SWAP2 PUSH1 0x44 CALLDATALOAD PUSH1 0x1 PUSH1 0x1 PUSH1 0x40 SHL SUB DUP2 GT PUSH2 0x180 JUMPI PUSH2 0x37D SWAP1 CALLDATASIZE SWAP1 PUSH1 0x4 ADD PUSH2 0x1D73 JUMP JUMPDEST PUSH1 0x64 CALLDATALOAD PUSH1 0x1 PUSH1 0x1 PUSH1 0x40 SHL SUB DUP2 GT PUSH2 0x180 JUMPI PUSH2 0x39C SWAP1 CALLDATASIZE SWAP1 PUSH1 0x4 ADD PUSH2 0x1D73 JUMP JUMPDEST SWAP3 PUSH1 0x84 CALLDATALOAD PUSH1 0x1 PUSH1 0x1 PUSH1 0x40 SHL SUB DUP2 GT PUSH2 0x180 JUMPI PUSH2 0x3BC SWAP1 CALLDATASIZE SWAP1 PUSH1 0x4 ADD PUSH2 0x1D73 JUMP JUMPDEST SWAP2 SWAP1 SWAP3 PUSH2 0x3C7 PUSH2 0x21BD JUMP JUMPDEST PUSH2 0x3CF PUSH2 0x1EC2 JUMP JUMPDEST PUSH1 0x1 PUSH1 0x1 PUSH1 0xA0 SHL SUB DUP8 AND ISZERO PUSH2 0xAB2 JUMPI PUSH1 0x1 PUSH1 0x1 PUSH1 0xA0 SHL SUB DUP8 AND PUSH1 0x0 SWAP1 DUP2 MSTORE PUSH1 0x20 DUP2 SWAP1 MSTORE PUSH1 0x40 SWAP1 KECCAK256 PUSH1 0x7 ADD SLOAD PUSH1 0xFF AND PUSH2 0xA77 JUMPI DUP9 SWAP6 PUSH2 0x43E PUSH2 0x44A SWAP4 PUSH2 0x456 SWAP8 PUSH2 0x432 DUP13 PUSH1 0x40 MLOAD SWAP12 PUSH2 0x41F DUP14 PUSH2 0x1BB8 JUMP JUMPDEST PUSH1 0x1 PUSH1 0x1 PUSH1 0xA0 SHL SUB DUP15 AND DUP14 MSTORE CALLDATASIZE SWAP2 PUSH2 0x1CF5 JUMP JUMPDEST PUSH1 0x20 DUP12 ADD MSTORE CALLDATASIZE SWAP2 PUSH2 0x1CF5 JUMP JUMPDEST PUSH1 0x40 DUP9 ADD MSTORE CALLDATASIZE SWAP2 PUSH2 0x1CF5 JUMP JUMPDEST PUSH1 0x60 DUP6 ADD MSTORE CALLDATASIZE SWAP2 PUSH2 0x1CF5 JUMP JUMPDEST PUSH1 0x80 DUP3 ADD MSTORE PUSH1 0xA4 CALLDATALOAD PUSH1 0xA0 DUP3 ADD MSTORE PUSH1 0xC4 CALLDATALOAD PUSH1 0xC0 DUP3 ADD MSTORE PUSH1 0x1 PUSH1 0xE0 DUP3 ADD MSTORE TIMESTAMP PUSH2 0x100 DUP3 ADD MSTORE PUSH1 0x0 PUSH2 0x120 DUP3 ADD MSTORE PUSH1 0x1 DUP1 PUSH1 0xA0 SHL SUB DUP3 AND PUSH1 0x0 MSTORE PUSH1 0x0 PUSH1 0x20 MSTORE PUSH1 0x40 PUSH1 0x0 KECCAK256 SWAP1 PUSH1 0x1 DUP1 PUSH1 0xA0 SHL SUB DUP2 MLOAD AND PUSH12 0xFFFFFFFFFFFFFFFFFFFFFFFF PUSH1 0xA0 SHL DUP4 SLOAD AND OR DUP3 SSTORE PUSH1 0x20 DUP2 ADD MLOAD DUP1 MLOAD SWAP1 PUSH1 0x1 PUSH1 0x1 PUSH1 0x40 SHL SUB DUP3 GT PUSH2 0x729 JUMPI DUP2 SWAP1 PUSH2 0x4DD PUSH1 0x1 DUP7 ADD SLOAD PUSH2 0x1B63 JUMP JUMPDEST PUSH1 0x1F DUP2 GT PUSH2 0xA24 JUMPI JUMPDEST POP PUSH1 0x20 SWAP1 PUSH1 0x1F DUP4 GT PUSH1 0x1 EQ PUSH2 0x9B2 JUMPI PUSH1 0x0 SWAP3 PUSH2 0x9A7 JUMPI JUMPDEST POP POP DUP2 PUSH1 0x1 SHL SWAP2 PUSH1 0x0 NOT SWAP1 PUSH1 0x3 SHL SHR NOT AND OR PUSH1 0x1 DUP4 ADD SSTORE JUMPDEST PUSH1 0x40 DUP2 ADD MLOAD DUP1 MLOAD SWAP1 PUSH1 0x1 PUSH1 0x1 PUSH1 0x40 SHL SUB DUP3 GT PUSH2 0x729 JUMPI DUP2 SWAP1 PUSH2 0x53A PUSH1 0x2 DUP7 ADD SLOAD PUSH2 0x1B63 JUMP JUMPDEST PUSH1 0x1F DUP2 GT PUSH2 0x954 JUMPI JUMPDEST POP PUSH1 0x20 SWAP1 PUSH1 0x1F DUP4 GT PUSH1 0x1 EQ PUSH2 0x8E2 JUMPI PUSH1 0x0 SWAP3 PUSH2 0x8D7 JUMPI JUMPDEST POP POP DUP2 PUSH1 0x1 SHL SWAP2 PUSH1 0x0 NOT SWAP1 PUSH1 0x3 SHL SHR NOT AND OR PUSH1 0x2 DUP4 ADD SSTORE JUMPDEST PUSH1 0x60 DUP2 ADD MLOAD DUP1 MLOAD SWAP1 PUSH1 0x1 PUSH1 0x1 PUSH1 0x40 SHL SUB DUP3 GT PUSH2 0x729 JUMPI DUP2 SWAP1 PUSH2 0x597 PUSH1 0x3 DUP7 ADD SLOAD PUSH2 0x1B63 JUMP JUMPDEST PUSH1 0x1F DUP2 GT PUSH2 0x884 JUMPI JUMPDEST POP PUSH1 0x20 SWAP1 PUSH1 0x1F DUP4 GT PUSH1 0x1 EQ PUSH2 0x812 JUMPI PUSH1 0x0 SWAP3 PUSH2 0x807 JUMPI JUMPDEST POP POP DUP2 PUSH1 0x1 SHL SWAP2 PUSH1 0x0 NOT SWAP1 PUSH1 0x3 SHL SHR NOT AND OR PUSH1 0x3 DUP4 ADD SSTORE JUMPDEST PUSH1 0x80 DUP2 ADD MLOAD DUP1 MLOAD SWAP1 PUSH1 0x1 PUSH1 0x1 PUSH1 0x40 SHL SUB DUP3 GT PUSH2 0x729 JUMPI PUSH2 0x5F2 PUSH1 0x4 DUP6 ADD SLOAD PUSH2 0x1B63 JUMP JUMPDEST PUSH1 0x1F DUP2 GT PUSH2 0x7C0 JUMPI JUMPDEST POP PUSH1 0x20 SWAP1 PUSH1 0x1F DUP4 GT PUSH1 0x1 EQ PUSH2 0x74A JUMPI SWAP2 DUP1 PUSH1 0x9 SWAP5 SWAP3 PUSH2 0x120 SWAP5 PUSH1 0x0 SWAP3 PUSH2 0x73F JUMPI JUMPDEST POP POP DUP2 PUSH1 0x1 SHL SWAP2 PUSH1 0x0 NOT SWAP1 PUSH1 0x3 SHL SHR NOT AND OR PUSH1 0x4 DUP6 ADD SSTORE JUMPDEST PUSH1 0xA0 DUP2 ADD MLOAD PUSH1 0x5 DUP6 ADD SSTORE PUSH1 0xC0 DUP2 ADD MLOAD PUSH1 0x6 DUP6 ADD SSTORE PUSH2 0x667 PUSH1 0xE0 DUP3 ADD MLOAD ISZERO ISZERO PUSH1 0x7 DUP7 ADD SWAP1 PUSH1 0xFF DUP1 NOT DUP4 SLOAD AND SWAP2 ISZERO ISZERO AND OR SWAP1 SSTORE JUMP JUMPDEST PUSH2 0x100 DUP2 ADD MLOAD PUSH1 0x8 DUP6 ADD SSTORE ADD MLOAD SWAP2 ADD SSTORE PUSH1 0x2 SLOAD PUSH9 0x10000000000000000 DUP2 LT ISZERO PUSH2 0x729 JUMPI PUSH32 0xDE8D782549301EC3FDB69CDDBA109EAA45B8FA62FD1ED3F1FFF30A2A4C70D36E SWAP3 DUP5 SWAP3 PUSH2 0x6C1 DUP4 PUSH1 0x1 PUSH1 0x60 SWAP6 ADD PUSH1 0x2 SSTORE PUSH2 0x1DA0 JUMP JUMPDEST DUP2 SLOAD PUSH1 0x1 PUSH1 0x1 PUSH1 0xA0 SHL SUB PUSH1 0x3 SWAP3 DUP4 SHL DUP2 DUP2 SHL NOT SWAP1 SWAP3 AND SWAP1 DUP6 AND SWAP1 SWAP2 SHL OR SWAP1 SWAP2 SSTORE SLOAD PUSH2 0x6EB SWAP1 PUSH2 0x1E45 JUMP JUMPDEST PUSH1 0x3 SSTORE PUSH1 0x40 MLOAD SWAP4 DUP5 SWAP3 PUSH1 0x40 DUP5 MSTORE DUP2 PUSH1 0x40 DUP6 ADD MSTORE DUP5 DUP5 ADD CALLDATACOPY PUSH1 0x0 DUP3 DUP8 ADD DUP5 ADD MSTORE TIMESTAMP PUSH1 0x20 DUP4 ADD MSTORE PUSH1 0x1 PUSH1 0x1 PUSH1 0xA0 SHL SUB AND SWAP5 PUSH1 0x1F ADD PUSH1 0x1F NOT AND DUP2 ADD SUB ADD SWAP1 LOG2 STOP JUMPDEST PUSH4 0x4E487B71 PUSH1 0xE0 SHL PUSH1 0x0 MSTORE PUSH1 0x41 PUSH1 0x4 MSTORE PUSH1 0x24 PUSH1 0x0 REVERT JUMPDEST ADD MLOAD SWAP1 POP DUP10 DUP1 PUSH2 0x61C JUMP JUMPDEST SWAP1 PUSH1 0x4 DUP6 ADD PUSH1 0x0 MSTORE PUSH1 0x20 PUSH1 0x0 KECCAK256 SWAP2 PUSH1 0x0 JUMPDEST PUSH1 0x1F NOT DUP6 AND DUP2 LT PUSH2 0x7A8 JUMPI POP SWAP3 PUSH1 0x9 SWAP5 SWAP3 PUSH1 0x1 SWAP3 PUSH2 0x120 SWAP6 DUP4 PUSH1 0x1F NOT DUP2 AND LT PUSH2 0x78F JUMPI JUMPDEST POP POP POP DUP2 SHL ADD PUSH1 0x4 DUP6 ADD SSTORE PUSH2 0x634 JUMP JUMPDEST ADD MLOAD PUSH1 0x0 NOT PUSH1 0xF8 DUP5 PUSH1 0x3 SHL AND SHR NOT AND SWAP1 SSTORE DUP10 DUP1 DUP1 PUSH2 0x77F JUMP JUMPDEST SWAP2 SWAP3 PUSH1 0x20 PUSH1 0x1 DUP2 SWAP3 DUP7 DUP6 ADD MLOAD DUP2 SSTORE ADD SWAP5 ADD SWAP3 ADD PUSH2 0x75B JUMP JUMPDEST PUSH1 0x4 DUP6 ADD PUSH1 0x0 MSTORE PUSH1 0x20 PUSH1 0x0 KECCAK256 PUSH1 0x1F DUP5 ADD PUSH1 0x5 SHR DUP2 ADD PUSH1 0x20 DUP6 LT PUSH2 0x800 JUMPI JUMPDEST PUSH1 0x1F DUP4 ADD PUSH1 0x5 SHR DUP3 ADD DUP2 LT PUSH2 0x7F4 JUMPI POP POP PUSH2 0x5FB JUMP JUMPDEST PUSH1 0x0 DUP2 SSTORE PUSH1 0x1 ADD PUSH2 0x7DE JUMP JUMPDEST POP DUP1 PUSH2 0x7DE JUMP JUMPDEST ADD MLOAD SWAP1 POP DUP8 DUP1 PUSH2 0x5B7 JUMP JUMPDEST SWAP3 POP PUSH1 0x3 DUP6 ADD PUSH1 0x0 MSTORE PUSH1 0x20 PUSH1 0x0 KECCAK256 SWAP1 PUSH1 0x0 SWAP4 JUMPDEST PUSH1 0x1F NOT DUP5 AND DUP6 LT PUSH2 0x869 JUMPI PUSH1 0x1 SWAP5 POP DUP4 PUSH1 0x1F NOT DUP2 AND LT PUSH2 0x850 JUMPI JUMPDEST POP POP POP DUP2 SHL ADD PUSH1 0x3 DUP4 ADD SSTORE PUSH2 0x5CF JUMP JUMPDEST ADD MLOAD PUSH1 0x0 NOT PUSH1 0xF8 DUP5 PUSH1 0x3 SHL AND SHR NOT AND SWAP1 SSTORE DUP8 DUP1 DUP1 PUSH2 0x840 JUMP JUMPDEST DUP2 DUP2 ADD MLOAD DUP4 SSTORE PUSH1 0x20 SWAP5 DUP6 ADD SWAP5 PUSH1 0x1 SWAP1 SWAP4 ADD SWAP3 SWAP1 SWAP2 ADD SWAP1 PUSH2 0x825 JUMP JUMPDEST SWAP1 SWAP2 POP PUSH1 0x3 DUP6 ADD PUSH1 0x0 MSTORE PUSH1 0x20 PUSH1 0x0 KECCAK256 PUSH1 0x1F DUP5 ADD PUSH1 0x5 SHR DUP2 ADD PUSH1 0x20 DUP6 LT PUSH2 0x8D0 JUMPI JUMPDEST SWAP1 DUP5 SWAP4 SWAP3 SWAP2 JUMPDEST PUSH1 0x1F DUP4 ADD PUSH1 0x5 SHR DUP3 ADD DUP2 LT PUSH2 0x8C1 JUMPI POP POP PUSH2 0x5A0 JUMP JUMPDEST PUSH1 0x0 DUP2 SSTORE DUP6 SWAP5 POP PUSH1 0x1 ADD PUSH2 0x8AB JUMP JUMPDEST POP DUP1 PUSH2 0x8A5 JUMP JUMPDEST ADD MLOAD SWAP1 POP DUP8 DUP1 PUSH2 0x55A JUMP JUMPDEST SWAP3 POP PUSH1 0x2 DUP6 ADD PUSH1 0x0 MSTORE PUSH1 0x20 PUSH1 0x0 KECCAK256 SWAP1 PUSH1 0x0 SWAP4 JUMPDEST PUSH1 0x1F NOT DUP5 AND DUP6 LT PUSH2 0x939 JUMPI PUSH1 0x1 SWAP5 POP DUP4 PUSH1 0x1F NOT DUP2 AND LT PUSH2 0x920 JUMPI JUMPDEST POP POP POP DUP2 SHL ADD PUSH1 0x2 DUP4 ADD SSTORE PUSH2 0x572 JUMP JUMPDEST ADD MLOAD PUSH1 0x0 NOT PUSH1 0xF8 DUP5 PUSH1 0x3 SHL AND SHR NOT AND SWAP1 SSTORE DUP8 DUP1 DUP1 PUSH2 0x910 JUMP JUMPDEST DUP2 DUP2 ADD MLOAD DUP4 SSTORE PUSH1 0x20 SWAP5 DUP6 ADD SWAP5 PUSH1 0x1 SWAP1 SWAP4 ADD SWAP3 SWAP1 SWAP2 ADD SWAP1 PUSH2 0x8F5 JUMP JUMPDEST SWAP1 SWAP2 POP PUSH1 0x2 DUP6 ADD PUSH1 0x0 MSTORE PUSH1 0x20 PUSH1 0x0 KECCAK256 PUSH1 0x1F DUP5 ADD PUSH1 0x5 SHR DUP2 ADD PUSH1 0x20 DUP6 LT PUSH2 0x9A0 JUMPI JUMPDEST SWAP1 DUP5 SWAP4 SWAP3 SWAP2 JUMPDEST PUSH1 0x1F DUP4 ADD PUSH1 0x5 SHR DUP3 ADD DUP2 LT PUSH2 0x991 JUMPI POP POP PUSH2 0x543 JUMP JUMPDEST PUSH1 0x0 DUP2 SSTORE DUP6 SWAP5 POP PUSH1 0x1 ADD PUSH2 0x97B JUMP JUMPDEST POP DUP1 PUSH2 0x975 JUMP JUMPDEST ADD MLOAD SWAP1 POP DUP8 DUP1 PUSH2 0x4FD JUMP JUMPDEST SWAP3 POP PUSH1 0x1 DUP6 ADD PUSH1 0x0 MSTORE PUSH1 0x20 PUSH1 0x0 KECCAK256 SWAP1 PUSH1 0x0 SWAP4 JUMPDEST PUSH1 0x1F NOT DUP5 AND DUP6 LT PUSH2 0xA09 JUMPI PUSH1 0x1 SWAP5 POP DUP4 PUSH1 0x1F NOT DUP2 AND LT PUSH2 0x9F0 JUMPI JUMPDEST POP POP POP DUP2 SHL ADD PUSH1 0x1 DUP4 ADD SSTORE PUSH2 0x515 JUMP JUMPDEST ADD MLOAD PUSH1 0x0 NOT PUSH1 0xF8 DUP5 PUSH1 0x3 SHL AND SHR NOT AND SWAP1 SSTORE DUP8 DUP1 DUP1 PUSH2 0x9E0 JUMP JUMPDEST DUP2 DUP2 ADD MLOAD DUP4 SSTORE PUSH1 0x20 SWAP5 DUP6 ADD SWAP5 PUSH1 0x1 SWAP1 SWAP4 ADD SWAP3 SWAP1 SWAP2 ADD SWAP1 PUSH2 0x9C5 JUMP JUMPDEST SWAP1 SWAP2 POP PUSH1 0x1 DUP6 ADD PUSH1 0x0 MSTORE PUSH1 0x20 PUSH1 0x0 KECCAK256 PUSH1 0x1F DUP5 ADD PUSH1 0x5 SHR DUP2 ADD PUSH1 0x20 DUP6 LT PUSH2 0xA70 JUMPI JUMPDEST SWAP1 DUP5 SWAP4 SWAP3 SWAP2 JUMPDEST PUSH1 0x1F DUP4 ADD PUSH1 0x5 SHR DUP3 ADD DUP2 LT PUSH2 0xA61 JUMPI POP POP PUSH2 0x4E6 JUMP JUMPDEST PUSH1 0x0 DUP2 SSTORE DUP6 SWAP5 POP PUSH1 0x1 ADD PUSH2 0xA4B JUMP JUMPDEST POP DUP1 PUSH2 0xA45 JUMP JUMPDEST PUSH1 0x40 MLOAD PUSH3 0x461BCD PUSH1 0xE5 SHL DUP2 MSTORE PUSH1 0x20 PUSH1 0x4 DUP3 ADD MSTORE PUSH1 0x13 PUSH1 0x24 DUP3 ADD MSTORE PUSH19 0x105B1C9958591E481DDA1A5D195B1A5CDD1959 PUSH1 0x6A SHL PUSH1 0x44 DUP3 ADD MSTORE PUSH1 0x64 SWAP1 REVERT JUMPDEST PUSH1 0x40 MLOAD PUSH3 0x461BCD PUSH1 0xE5 SHL DUP2 MSTORE PUSH1 0x20 PUSH1 0x4 DUP3 ADD MSTORE PUSH1 0xF PUSH1 0x24 DUP3 ADD MSTORE PUSH15 0x496E76616C69642061646472657373 PUSH1 0x88 SHL PUSH1 0x44 DUP3 ADD MSTORE PUSH1 0x64 SWAP1 REVERT JUMPDEST CALLVALUE PUSH2 0x180 JUMPI PUSH1 0x0 CALLDATASIZE PUSH1 0x3 NOT ADD SLT PUSH2 0x180 JUMPI PUSH1 0x20 PUSH1 0x3 SLOAD PUSH1 0x40 MLOAD SWAP1 DUP2 MSTORE RETURN JUMPDEST CALLVALUE PUSH2 0x180 JUMPI PUSH1 0x0 CALLDATASIZE PUSH1 0x3 NOT ADD SLT PUSH2 0x180 JUMPI PUSH1 0x40 MLOAD PUSH1 0x40 DUP2 ADD SWAP1 DUP1 DUP3 LT PUSH1 0x1 PUSH1 0x1 PUSH1 0x40 SHL SUB DUP4 GT OR PUSH2 0x729 JUMPI PUSH2 0xB5F SWAP2 PUSH1 0x40 MSTORE PUSH1 0x5 DUP2 MSTORE PUSH5 0x352E302E3 PUSH1 0xDC SHL PUSH1 0x20 DUP3 ADD MSTORE PUSH1 0x40 MLOAD SWAP2 DUP3 SWAP2 PUSH1 0x20 DUP4 MSTORE PUSH1 0x20 DUP4 ADD SWAP1 PUSH2 0x1C9A JUMP JUMPDEST SUB SWAP1 RETURN JUMPDEST CALLVALUE PUSH2 0x180 JUMPI PUSH1 0x20 CALLDATASIZE PUSH1 0x3 NOT ADD SLT PUSH2 0x180 JUMPI PUSH2 0xB7C PUSH2 0x1B37 JUMP JUMPDEST PUSH1 0x0 PUSH2 0x120 PUSH1 0x40 MLOAD PUSH2 0xB8D DUP2 PUSH2 0x1BB8 JUMP JUMPDEST DUP3 DUP2 MSTORE PUSH1 0x60 PUSH1 0x20 DUP3 ADD MSTORE PUSH1 0x60 PUSH1 0x40 DUP3 ADD MSTORE PUSH1 0x60 DUP1 DUP3 ADD MSTORE PUSH1 0x60 PUSH1 0x80 DUP3 ADD MSTORE DUP3 PUSH1 0xA0 DUP3 ADD MSTORE DUP3 PUSH1 0xC0 DUP3 ADD MSTORE DUP3 PUSH1 0xE0 DUP3 ADD MSTORE DUP3 PUSH2 0x100 DUP3 ADD MSTORE ADD MSTORE PUSH1 0x1 DUP1 PUSH1 0xA0 SHL SUB AND PUSH1 0x0 MSTORE PUSH1 0x0 PUSH1 0x20 MSTORE PUSH1 0x40 PUSH1 0x0 KECCAK256 PUSH1 0x9 PUSH1 0x40 MLOAD SWAP2 PUSH2 0xBEA DUP4 PUSH2 0x1BB8 JUMP JUMPDEST DUP1 SLOAD PUSH1 0x1 PUSH1 0x1 PUSH1 0xA0 SHL SUB AND DUP4 MSTORE PUSH2 0xC03 PUSH1 0x1 DUP3 ADD PUSH2 0x1BF5 JUMP JUMPDEST PUSH1 0x20 DUP5 ADD MSTORE PUSH2 0xC14 PUSH1 0x2 DUP3 ADD PUSH2 0x1BF5 JUMP JUMPDEST PUSH1 0x40 DUP5 ADD MSTORE PUSH2 0xC25 PUSH1 0x3 DUP3 ADD PUSH2 0x1BF5 JUMP JUMPDEST PUSH1 0x60 DUP5 ADD MSTORE PUSH2 0xC36 PUSH1 0x4 DUP3 ADD PUSH2 0x1BF5 JUMP JUMPDEST PUSH1 0x80 DUP5 ADD MSTORE PUSH1 0x5 DUP2 ADD SLOAD PUSH1 0xA0 DUP5 ADD MSTORE PUSH1 0x6 DUP2 ADD SLOAD PUSH1 0xC0 DUP5 ADD MSTORE PUSH1 0xFF PUSH1 0x7 DUP3 ADD SLOAD AND ISZERO ISZERO PUSH1 0xE0 DUP5 ADD MSTORE PUSH1 0x8 DUP2 ADD SLOAD PUSH2 0x100 DUP5 ADD MSTORE ADD SLOAD PUSH2 0x120 DUP3 ADD MSTORE PUSH1 0x40 MLOAD DUP1 SWAP2 PUSH1 0x20 DUP3 MSTORE PUSH1 0x1 DUP1 PUSH1 0xA0 SHL SUB DUP2 MLOAD AND PUSH1 0x20 DUP4 ADD MSTORE PUSH1 0x20 DUP2 ADD MLOAD PUSH2 0x120 PUSH2 0xCF4 PUSH2 0xCAC PUSH2 0x140 SWAP4 DUP5 PUSH1 0x40 DUP9 ADD MSTORE PUSH2 0x160 DUP8 ADD SWAP1 PUSH2 0x1C9A JUMP JUMPDEST PUSH2 0xCDF PUSH2 0xCCB PUSH1 0x40 DUP8 ADD MLOAD SWAP3 PUSH1 0x1F NOT SWAP4 DUP5 DUP11 DUP4 SUB ADD PUSH1 0x60 DUP12 ADD MSTORE PUSH2 0x1C9A JUMP JUMPDEST PUSH1 0x60 DUP8 ADD MLOAD DUP4 DUP10 DUP4 SUB ADD PUSH1 0x80 DUP11 ADD MSTORE PUSH2 0x1C9A JUMP JUMPDEST SWAP1 PUSH1 0x80 DUP7 ADD MLOAD SWAP1 DUP8 DUP4 SUB ADD PUSH1 0xA0 DUP9 ADD MSTORE PUSH2 0x1C9A JUMP JUMPDEST SWAP3 PUSH1 0xA0 DUP2 ADD MLOAD PUSH1 0xC0 DUP7 ADD MSTORE PUSH1 0xC0 DUP2 ADD MLOAD PUSH1 0xE0 DUP7 ADD MSTORE PUSH1 0xE0 DUP2 ADD MLOAD ISZERO ISZERO PUSH2 0x100 DUP7 ADD MSTORE PUSH2 0x100 DUP2 ADD MLOAD DUP3 DUP7 ADD MSTORE ADD MLOAD SWAP1 DUP4 ADD MSTORE SUB SWAP1 RETURN JUMPDEST CALLVALUE PUSH2 0x180 JUMPI PUSH1 0x0 CALLDATASIZE PUSH1 0x3 NOT ADD SLT PUSH2 0x180 JUMPI PUSH1 0x20 PUSH1 0x40 MLOAD PUSH1 0x0 DUP2 MSTORE RETURN JUMPDEST CALLVALUE PUSH2 0x180 JUMPI PUSH1 0x20 CALLDATASIZE PUSH1 0x3 NOT ADD SLT PUSH2 0x180 JUMPI PUSH1 0x4 CALLDATALOAD PUSH1 0x2 SLOAD DUP2 LT ISZERO PUSH2 0x180 JUMPI PUSH2 0xD6F PUSH1 0x20 SWAP2 PUSH2 0x1DA0 JUMP JUMPDEST SWAP1 SLOAD PUSH1 0x40 MLOAD PUSH1 0x3 SWAP3 SWAP1 SWAP3 SHL SHR PUSH1 0x1 PUSH1 0x1 PUSH1 0xA0 SHL SUB AND DUP2 MSTORE RETURN JUMPDEST CALLVALUE PUSH2 0x180 JUMPI PUSH1 0x20 PUSH1 0xC0 PUSH2 0xDBA PUSH2 0xD9D CALLDATASIZE PUSH2 0x1D2C JUMP JUMPDEST PUSH1 0x1 PUSH1 0x1 PUSH1 0xA0 SHL SUB SWAP1 SWAP2 AND PUSH1 0x0 SWAP1 DUP2 MSTORE PUSH1 0x1 DUP6 MSTORE PUSH1 0x40 SWAP1 KECCAK256 PUSH2 0x1D5B JUMP JUMPDEST PUSH1 0x40 MLOAD PUSH2 0xDC6 DUP2 PUSH2 0x1B9D JUMP JUMPDEST PUSH2 0xDD4 PUSH1 0xFF DUP4 SLOAD AND DUP3 PUSH2 0x1E39 JUMP JUMPDEST PUSH2 0xDE0 PUSH1 0x1 DUP4 ADD PUSH2 0x1BF5 JUMP JUMPDEST DUP5 DUP3 ADD MSTORE PUSH2 0xDF0 PUSH1 0x2 DUP4 ADD PUSH2 0x1BF5 JUMP JUMPDEST PUSH1 0x40 DUP3 ADD MSTORE PUSH2 0xE01 PUSH1 0x3 DUP4 ADD PUSH2 0x1BF5 JUMP JUMPDEST PUSH1 0x60 DUP3 ADD MSTORE PUSH1 0x4 DUP3 ADD SLOAD PUSH1 0x80 DUP3 ADD MSTORE PUSH1 0xFF PUSH1 0x6 PUSH1 0x5 DUP5 ADD SLOAD SWAP4 DUP5 PUSH1 0xA0 DUP6 ADD MSTORE ADD SLOAD AND ISZERO ISZERO SWAP3 DUP4 SWAP2 ADD MSTORE DUP2 PUSH2 0xE3B JUMPI JUMPDEST POP PUSH1 0x40 MLOAD SWAP1 ISZERO ISZERO DUP2 MSTORE RETURN JUMPDEST SWAP1 POP TIMESTAMP LT DUP3 PUSH2 0xE30 JUMP JUMPDEST CALLVALUE PUSH2 0x180 JUMPI PUSH1 0x40 CALLDATASIZE PUSH1 0x3 NOT ADD SLT PUSH2 0x180 JUMPI PUSH2 0xE5E PUSH2 0x1B4D JUMP JUMPDEST PUSH1 0x4 CALLDATALOAD PUSH1 0x0 MSTORE PUSH1 0x0 DUP1 MLOAD PUSH1 0x20 PUSH2 0x228D DUP4 CODECOPY DUP2 MLOAD SWAP2 MSTORE PUSH1 0x20 MSTORE PUSH1 0x40 PUSH1 0x0 KECCAK256 SWAP1 PUSH1 0x1 DUP1 PUSH1 0xA0 SHL SUB AND PUSH1 0x0 MSTORE PUSH1 0x20 MSTORE PUSH1 0x20 PUSH1 0xFF PUSH1 0x40 PUSH1 0x0 KECCAK256 SLOAD AND PUSH1 0x40 MLOAD SWAP1 ISZERO ISZERO DUP2 MSTORE RETURN JUMPDEST CALLVALUE PUSH2 0x180 JUMPI PUSH1 0x0 CALLDATASIZE PUSH1 0x3 NOT ADD SLT PUSH2 0x180 JUMPI PUSH2 0xEB8 PUSH2 0x1E6A JUMP JUMPDEST PUSH2 0xEC0 PUSH2 0x21BD JUMP JUMPDEST PUSH1 0x0 DUP1 MLOAD PUSH1 0x20 PUSH2 0x22AD DUP4 CODECOPY DUP2 MLOAD SWAP2 MSTORE PUSH1 0x1 PUSH1 0xFF NOT DUP3 SLOAD AND OR SWAP1 SSTORE PUSH32 0x62E78CEA01BEE320CD4E420270B5EA74000D11B0C9F74754EBDBFC544B05A258 PUSH1 0x20 PUSH1 0x40 MLOAD CALLER DUP2 MSTORE LOG1 STOP JUMPDEST CALLVALUE PUSH2 0x180 JUMPI PUSH1 0xC0 CALLDATASIZE PUSH1 0x3 NOT ADD SLT PUSH2 0x180 JUMPI PUSH2 0xF1F PUSH2 0x1B37 JUMP JUMPDEST PUSH1 0x6 PUSH1 0x24 CALLDATALOAD LT ISZERO PUSH2 0x180 JUMPI PUSH1 0x44 CALLDATALOAD PUSH1 0x1 PUSH1 0x1 PUSH1 0x40 SHL SUB DUP2 GT PUSH2 0x180 JUMPI PUSH2 0xF49 SWAP1 CALLDATASIZE SWAP1 PUSH1 0x4 ADD PUSH2 0x1D73 JUMP JUMPDEST PUSH1 0x64 CALLDATALOAD PUSH1 0x1 PUSH1 0x1 PUSH1 0x40 SHL SUB DUP2 GT PUSH2 0x180 JUMPI PUSH2 0xF68 SWAP1 CALLDATASIZE SWAP1 PUSH1 0x4 ADD PUSH2 0x1D73 JUMP JUMPDEST SWAP3 PUSH1 0x84 CALLDATALOAD PUSH1 0x1 PUSH1 0x1 PUSH1 0x40 SHL SUB DUP2 GT PUSH2 0x180 JUMPI PUSH2 0xF88 SWAP1 CALLDATASIZE SWAP1 PUSH1 0x4 ADD PUSH2 0x1D73 JUMP JUMPDEST SWAP1 SWAP2 PUSH2 0xF92 PUSH2 0x1EC2 JUMP JUMPDEST PUSH1 0x1 DUP1 PUSH1 0xA0 SHL SUB DUP8 AND PUSH1 0x0 MSTORE PUSH1 0x0 PUSH1 0x20 MSTORE PUSH2 0xFB7 PUSH1 0xFF PUSH1 0x7 PUSH1 0x40 PUSH1 0x0 KECCAK256 ADD SLOAD AND PUSH2 0x1DED JUMP JUMPDEST TIMESTAMP PUSH1 0xA4 CALLDATALOAD GT ISZERO PUSH2 0x1444 JUMPI PUSH2 0x1007 SWAP4 PUSH2 0xFEC PUSH2 0xFFB SWAP3 PUSH1 0x40 MLOAD SWAP8 PUSH2 0xFD9 DUP10 PUSH2 0x1B9D JUMP JUMPDEST PUSH2 0xFE5 PUSH1 0x24 CALLDATALOAD DUP11 PUSH2 0x1E39 JUMP JUMPDEST CALLDATASIZE SWAP2 PUSH2 0x1CF5 JUMP JUMPDEST SWAP7 PUSH1 0x20 DUP8 ADD SWAP8 DUP9 MSTORE CALLDATASIZE SWAP2 PUSH2 0x1CF5 JUMP JUMPDEST PUSH1 0x40 DUP6 ADD MSTORE CALLDATASIZE SWAP2 PUSH2 0x1CF5 JUMP JUMPDEST PUSH1 0x60 DUP3 ADD MSTORE TIMESTAMP PUSH1 0x80 DUP3 ADD MSTORE PUSH1 0xA4 CALLDATALOAD PUSH1 0xA0 DUP3 ADD MSTORE PUSH1 0x1 PUSH1 0xC0 DUP3 ADD MSTORE PUSH1 0x1 DUP1 PUSH1 0xA0 SHL SUB DUP4 AND PUSH1 0x0 MSTORE PUSH1 0x1 PUSH1 0x20 MSTORE PUSH2 0x1042 PUSH1 0x24 CALLDATALOAD PUSH1 0x40 PUSH1 0x0 KECCAK256 PUSH2 0x1D5B JUMP JUMPDEST SWAP2 DUP2 MLOAD PUSH1 0x6 DUP2 LT ISZERO PUSH2 0x142E JUMPI PUSH1 0xFF DUP1 NOT DUP6 SLOAD AND SWAP2 AND OR DUP4 SSTORE MLOAD SWAP3 DUP4 MLOAD PUSH1 0x1 PUSH1 0x1 PUSH1 0x40 SHL SUB DUP2 GT PUSH2 0x729 JUMPI PUSH2 0x1079 PUSH1 0x1 DUP6 ADD SLOAD PUSH2 0x1B63 JUMP JUMPDEST PUSH1 0x1F DUP2 GT PUSH2 0x13E7 JUMPI JUMPDEST POP PUSH1 0x20 PUSH1 0x1F DUP3 GT PUSH1 0x1 EQ PUSH2 0x1378 JUMPI DUP2 SWAP3 SWAP4 SWAP5 SWAP6 PUSH1 0x0 SWAP3 PUSH2 0x136D JUMPI JUMPDEST POP POP DUP2 PUSH1 0x1 SHL SWAP2 PUSH1 0x0 NOT SWAP1 PUSH1 0x3 SHL SHR NOT AND OR PUSH1 0x1 DUP5 ADD SSTORE JUMPDEST PUSH1 0x40 DUP3 ADD MLOAD SWAP3 DUP4 MLOAD PUSH1 0x1 PUSH1 0x1 PUSH1 0x40 SHL SUB DUP2 GT PUSH2 0x729 JUMPI PUSH2 0x10D8 PUSH1 0x2 DUP4 ADD SLOAD PUSH2 0x1B63 JUMP JUMPDEST PUSH1 0x1F DUP2 GT PUSH2 0x1326 JUMPI JUMPDEST POP PUSH1 0x20 PUSH1 0x1F DUP3 GT PUSH1 0x1 EQ PUSH2 0x12B7 JUMPI DUP2 SWAP3 SWAP4 SWAP5 SWAP6 PUSH1 0x0 SWAP3 PUSH2 0x12AC JUMPI JUMPDEST POP POP DUP2 PUSH1 0x1 SHL SWAP2 PUSH1 0x0 NOT SWAP1 PUSH1 0x3 SHL SHR NOT AND OR PUSH1 0x2 DUP3 ADD SSTORE JUMPDEST PUSH1 0x60 DUP4 ADD MLOAD SWAP3 DUP4 MLOAD PUSH1 0x1 PUSH1 0x1 PUSH1 0x40 SHL SUB DUP2 GT PUSH2 0x729 JUMPI PUSH2 0x1137 PUSH1 0x3 DUP5 ADD SLOAD PUSH2 0x1B63 JUMP JUMPDEST PUSH1 0x1F DUP2 GT PUSH2 0x1265 JUMPI JUMPDEST POP PUSH1 0x20 PUSH1 0x1F DUP3 GT PUSH1 0x1 EQ PUSH2 0x11EF JUMPI SWAP2 DUP2 PUSH1 0xC0 SWAP3 PUSH1 0x6 SWAP5 PUSH2 0x11A6 SWAP8 SWAP9 PUSH1 0x0 SWAP3 PUSH2 0x11E4 JUMPI JUMPDEST POP POP DUP2 PUSH1 0x1 SHL SWAP2 PUSH1 0x0 NOT SWAP1 PUSH1 0x3 SHL SHR NOT AND OR PUSH1 0x3 DUP6 ADD SSTORE JUMPDEST PUSH1 0x80 DUP2 ADD MLOAD PUSH1 0x4 DUP6 ADD SSTORE PUSH1 0xA0 DUP2 ADD MLOAD PUSH1 0x5 DUP6 ADD SSTORE ADD MLOAD ISZERO ISZERO SWAP2 ADD SWAP1 PUSH1 0xFF DUP1 NOT DUP4 SLOAD AND SWAP2 ISZERO ISZERO AND OR SWAP1 SSTORE JUMP JUMPDEST PUSH1 0x40 MLOAD PUSH1 0xA4 CALLDATALOAD DUP2 MSTORE PUSH1 0x24 CALLDATALOAD SWAP2 PUSH1 0x1 PUSH1 0x1 PUSH1 0xA0 SHL SUB AND SWAP1 PUSH32 0x13EFC95A35704073BFBFB9554EE57E3909EEDA1D02540A0B75858B2A6669D1B SWAP1 PUSH1 0x20 SWAP1 LOG3 STOP JUMPDEST ADD MLOAD SWAP1 POP DUP9 DUP1 PUSH2 0x1163 JUMP JUMPDEST PUSH1 0x1F NOT DUP3 AND SWAP6 PUSH1 0x3 DUP6 ADD PUSH1 0x0 MSTORE PUSH1 0x20 PUSH1 0x0 KECCAK256 SWAP7 PUSH1 0x0 JUMPDEST DUP2 DUP2 LT PUSH2 0x124D JUMPI POP SWAP3 PUSH2 0x11A6 SWAP7 SWAP8 PUSH1 0x6 SWAP6 SWAP4 PUSH1 0x1 SWAP4 DUP4 PUSH1 0xC0 SWAP8 LT PUSH2 0x1234 JUMPI JUMPDEST POP POP POP DUP2 SHL ADD PUSH1 0x3 DUP6 ADD SSTORE PUSH2 0x117B JUMP JUMPDEST ADD MLOAD PUSH1 0x0 NOT PUSH1 0xF8 DUP5 PUSH1 0x3 SHL AND SHR NOT AND SWAP1 SSTORE DUP9 DUP1 DUP1 PUSH2 0x1224 JUMP JUMPDEST DUP4 DUP4 ADD MLOAD DUP10 SSTORE PUSH1 0x1 SWAP1 SWAP9 ADD SWAP8 PUSH1 0x20 SWAP4 DUP5 ADD SWAP4 ADD PUSH2 0x1205 JUMP JUMPDEST PUSH1 0x3 DUP5 ADD PUSH1 0x0 MSTORE PUSH1 0x20 PUSH1 0x0 KECCAK256 PUSH1 0x1F DUP4 ADD PUSH1 0x5 SHR DUP2 ADD PUSH1 0x20 DUP5 LT PUSH2 0x12A5 JUMPI JUMPDEST PUSH1 0x1F DUP4 ADD PUSH1 0x5 SHR DUP3 ADD DUP2 LT PUSH2 0x1299 JUMPI POP POP PUSH2 0x1140 JUMP JUMPDEST PUSH1 0x0 DUP2 SSTORE PUSH1 0x1 ADD PUSH2 0x1283 JUMP JUMPDEST POP DUP1 PUSH2 0x1283 JUMP JUMPDEST ADD MLOAD SWAP1 POP DUP6 DUP1 PUSH2 0x10FC JUMP JUMPDEST PUSH1 0x2 DUP4 ADD PUSH1 0x0 MSTORE PUSH1 0x20 PUSH1 0x0 KECCAK256 SWAP1 PUSH1 0x0 JUMPDEST PUSH1 0x1F NOT DUP5 AND DUP2 LT PUSH2 0x130E JUMPI POP PUSH1 0x1 SWAP4 SWAP5 SWAP6 SWAP7 DUP4 PUSH1 0x1F NOT DUP2 AND LT PUSH2 0x12F5 JUMPI JUMPDEST POP POP POP DUP2 SHL ADD PUSH1 0x2 DUP3 ADD SSTORE PUSH2 0x1114 JUMP JUMPDEST ADD MLOAD PUSH1 0x0 NOT PUSH1 0xF8 DUP5 PUSH1 0x3 SHL AND SHR NOT AND SWAP1 SSTORE DUP6 DUP1 DUP1 PUSH2 0x12E5 JUMP JUMPDEST SWAP1 SWAP2 PUSH1 0x20 PUSH1 0x1 DUP2 SWAP3 DUP6 DUP12 ADD MLOAD DUP2 SSTORE ADD SWAP4 ADD SWAP2 ADD PUSH2 0x12C7 JUMP JUMPDEST PUSH1 0x2 DUP4 ADD PUSH1 0x0 MSTORE PUSH1 0x20 PUSH1 0x0 KECCAK256 PUSH1 0x1F DUP4 ADD PUSH1 0x5 SHR DUP2 ADD PUSH1 0x20 DUP5 LT PUSH2 0x1366 JUMPI JUMPDEST PUSH1 0x1F DUP4 ADD PUSH1 0x5 SHR DUP3 ADD DUP2 LT PUSH2 0x135A JUMPI POP POP PUSH2 0x10E1 JUMP JUMPDEST PUSH1 0x0 DUP2 SSTORE PUSH1 0x1 ADD PUSH2 0x1344 JUMP JUMPDEST POP DUP1 PUSH2 0x1344 JUMP JUMPDEST ADD MLOAD SWAP1 POP DUP6 DUP1 PUSH2 0x109D JUMP JUMPDEST PUSH1 0x1 DUP6 ADD PUSH1 0x0 MSTORE PUSH1 0x20 PUSH1 0x0 KECCAK256 SWAP1 PUSH1 0x0 JUMPDEST PUSH1 0x1F NOT DUP5 AND DUP2 LT PUSH2 0x13CF JUMPI POP PUSH1 0x1 SWAP4 SWAP5 SWAP6 SWAP7 DUP4 PUSH1 0x1F NOT DUP2 AND LT PUSH2 0x13B6 JUMPI JUMPDEST POP POP POP DUP2 SHL ADD PUSH1 0x1 DUP5 ADD SSTORE PUSH2 0x10B5 JUMP JUMPDEST ADD MLOAD PUSH1 0x0 NOT PUSH1 0xF8 DUP5 PUSH1 0x3 SHL AND SHR NOT AND SWAP1 SSTORE DUP6 DUP1 DUP1 PUSH2 0x13A6 JUMP JUMPDEST SWAP1 SWAP2 PUSH1 0x20 PUSH1 0x1 DUP2 SWAP3 DUP6 DUP12 ADD MLOAD DUP2 SSTORE ADD SWAP4 ADD SWAP2 ADD PUSH2 0x1388 JUMP JUMPDEST PUSH1 0x1 DUP6 ADD PUSH1 0x0 MSTORE PUSH1 0x20 PUSH1 0x0 KECCAK256 PUSH1 0x1F DUP4 ADD PUSH1 0x5 SHR DUP2 ADD PUSH1 0x20 DUP5 LT PUSH2 0x1427 JUMPI JUMPDEST PUSH1 0x1F DUP4 ADD PUSH1 0x5 SHR DUP3 ADD DUP2 LT PUSH2 0x141B JUMPI POP POP PUSH2 0x1082 JUMP JUMPDEST PUSH1 0x0 DUP2 SSTORE PUSH1 0x1 ADD PUSH2 0x1405 JUMP JUMPDEST POP DUP1 PUSH2 0x1405 JUMP JUMPDEST PUSH4 0x4E487B71 PUSH1 0xE0 SHL PUSH1 0x0 MSTORE PUSH1 0x21 PUSH1 0x4 MSTORE PUSH1 0x24 PUSH1 0x0 REVERT JUMPDEST PUSH1 0x40 MLOAD PUSH3 0x461BCD PUSH1 0xE5 SHL DUP2 MSTORE PUSH1 0x20 PUSH1 0x4 DUP3 ADD MSTORE PUSH1 0x12 PUSH1 0x24 DUP3 ADD MSTORE PUSH18 0x24B73B30B634B21032BC3834B930BA34B7B7 PUSH1 0x71 SHL PUSH1 0x44 DUP3 ADD MSTORE PUSH1 0x64 SWAP1 REVERT JUMPDEST CALLVALUE PUSH2 0x180 JUMPI PUSH1 0x0 CALLDATASIZE PUSH1 0x3 NOT ADD SLT PUSH2 0x180 JUMPI PUSH1 0x20 PUSH1 0x40 MLOAD PUSH32 0x65CB1D8422CDF0328F26B49E42E9F4524474C431DA623CBE0EA455F1B67C9F77 DUP2 MSTORE RETURN JUMPDEST CALLVALUE PUSH2 0x180 JUMPI PUSH1 0x20 CALLDATASIZE PUSH1 0x3 NOT ADD SLT PUSH2 0x180 JUMPI PUSH1 0x1 PUSH1 0x1 PUSH1 0xA0 SHL SUB PUSH2 0x14DA PUSH2 0x1B37 JUMP JUMPDEST AND PUSH1 0x0 MSTORE PUSH1 0x0 PUSH1 0x20 MSTORE PUSH1 0x20 PUSH1 0xFF PUSH1 0x7 PUSH1 0x40 PUSH1 0x0 KECCAK256 ADD SLOAD AND PUSH1 0x40 MLOAD SWAP1 ISZERO ISZERO DUP2 MSTORE RETURN JUMPDEST CALLVALUE PUSH2 0x180 JUMPI PUSH1 0x0 CALLDATASIZE PUSH1 0x3 NOT ADD SLT PUSH2 0x180 JUMPI PUSH1 0x20 PUSH1 0xFF PUSH1 0x0 DUP1 MLOAD PUSH1 0x20 PUSH2 0x22AD DUP4 CODECOPY DUP2 MLOAD SWAP2 MSTORE SLOAD AND PUSH1 0x40 MLOAD SWAP1 ISZERO ISZERO DUP2 MSTORE RETURN JUMPDEST CALLVALUE PUSH2 0x180 JUMPI PUSH2 0x155A PUSH2 0x153C CALLDATASIZE PUSH2 0x1D2C JUMP JUMPDEST PUSH1 0x1 PUSH1 0x1 PUSH1 0xA0 SHL SUB SWAP1 SWAP2 AND PUSH1 0x0 SWAP1 DUP2 MSTORE PUSH1 0x1 PUSH1 0x20 MSTORE PUSH1 0x40 SWAP1 KECCAK256 PUSH2 0x1D5B JUMP JUMPDEST PUSH1 0xFF DUP2 SLOAD AND SWAP1 PUSH2 0x156C PUSH1 0x1 DUP3 ADD PUSH2 0x1BF5 JUMP JUMPDEST SWAP2 PUSH2 0x1579 PUSH1 0x2 DUP4 ADD PUSH2 0x1BF5 JUMP JUMPDEST SWAP2 PUSH2 0x1586 PUSH1 0x3 DUP3 ADD PUSH2 0x1BF5 JUMP JUMPDEST SWAP1 PUSH1 0x4 DUP2 ADD SLOAD SWAP3 PUSH1 0xFF PUSH1 0x6 PUSH1 0x5 DUP5 ADD SLOAD SWAP4 ADD SLOAD AND SWAP3 PUSH1 0x40 MLOAD SWAP7 PUSH1 0x6 DUP4 LT ISZERO PUSH2 0x142E JUMPI DUP8 SWAP7 PUSH2 0x15C8 PUSH2 0x15D6 SWAP3 PUSH2 0x15E4 SWAP6 DUP11 MSTORE PUSH1 0xE0 PUSH1 0x20 DUP12 ADD MSTORE PUSH1 0xE0 DUP11 ADD SWAP1 PUSH2 0x1C9A JUMP JUMPDEST SWAP1 DUP9 DUP3 SUB PUSH1 0x40 DUP11 ADD MSTORE PUSH2 0x1C9A JUMP JUMPDEST SWAP1 DUP7 DUP3 SUB PUSH1 0x60 DUP9 ADD MSTORE PUSH2 0x1C9A JUMP JUMPDEST SWAP3 PUSH1 0x80 DUP6 ADD MSTORE PUSH1 0xA0 DUP5 ADD MSTORE ISZERO ISZERO PUSH1 0xC0 DUP4 ADD MSTORE SUB SWAP1 RETURN JUMPDEST CALLVALUE PUSH2 0x180 JUMPI PUSH1 0x0 CALLDATASIZE PUSH1 0x3 NOT ADD SLT PUSH2 0x180 JUMPI PUSH32 0x0 PUSH1 0x1 PUSH1 0x1 PUSH1 0xA0 SHL SUB AND ADDRESS SUB PUSH2 0x1665 JUMPI PUSH1 0x20 PUSH1 0x40 MLOAD PUSH32 0x360894A13BA1A3210667C828492DB98DCA3E2076CC3735A920A3CA505D382BBC DUP2 MSTORE RETURN JUMPDEST PUSH1 0x40 MLOAD PUSH4 0x703E46DD PUSH1 0xE1 SHL DUP2 MSTORE PUSH1 0x4 SWAP1 REVERT JUMPDEST PUSH1 0x40 CALLDATASIZE PUSH1 0x3 NOT ADD SLT PUSH2 0x180 JUMPI PUSH2 0x168B PUSH2 0x1B37 JUMP JUMPDEST PUSH1 0x24 CALLDATALOAD PUSH1 0x1 PUSH1 0x1 PUSH1 0x40 SHL SUB DUP2 GT PUSH2 0x180 JUMPI CALLDATASIZE PUSH1 0x23 DUP3 ADD SLT ISZERO PUSH2 0x180 JUMPI PUSH2 0x16BB SWAP1 CALLDATASIZE SWAP1 PUSH1 0x24 DUP2 PUSH1 0x4 ADD CALLDATALOAD SWAP2 ADD PUSH2 0x1CF5 JUMP JUMPDEST SWAP1 PUSH1 0x1 PUSH1 0x1 PUSH1 0xA0 SHL SUB PUSH32 0x0 DUP2 AND ADDRESS DUP2 EQ SWAP1 DUP2 ISZERO PUSH2 0x1877 JUMPI JUMPDEST POP PUSH2 0x1665 JUMPI PUSH2 0x16FF PUSH2 0x1E6A JUMP JUMPDEST PUSH1 0x40 MLOAD PUSH4 0x52D1902D PUSH1 0xE0 SHL DUP2 MSTORE SWAP1 DUP3 AND SWAP2 PUSH1 0x20 SWAP2 DUP3 DUP2 PUSH1 0x4 DUP2 DUP8 GAS STATICCALL PUSH1 0x0 SWAP2 DUP2 PUSH2 0x1848 JUMPI JUMPDEST POP PUSH2 0x1742 JUMPI PUSH1 0x40 MLOAD PUSH4 0x4C9C8CE3 PUSH1 0xE0 SHL DUP2 MSTORE PUSH1 0x4 DUP2 ADD DUP6 SWAP1 MSTORE PUSH1 0x24 SWAP1 REVERT JUMPDEST SWAP3 DUP5 SWAP4 PUSH32 0x360894A13BA1A3210667C828492DB98DCA3E2076CC3735A920A3CA505D382BBC SWAP1 DUP2 DUP2 SUB PUSH2 0x1830 JUMPI POP DUP3 EXTCODESIZE ISZERO PUSH2 0x1817 JUMPI DUP1 SLOAD PUSH1 0x1 PUSH1 0x1 PUSH1 0xA0 SHL SUB NOT AND DUP3 OR SWAP1 SSTORE PUSH1 0x40 MLOAD SWAP1 PUSH32 0xBC7CD75A20EE27FD9ADEBAB32041F755214DBC6BFFA90CC0225B39DA2E5C2D3B PUSH1 0x0 DUP1 LOG2 DUP4 MLOAD ISZERO PUSH2 0x17FD JUMPI POP PUSH1 0x0 DUP1 DUP5 DUP5 PUSH2 0x17E SWAP7 MLOAD SWAP2 ADD DUP5 GAS DELEGATECALL SWAP1 RETURNDATASIZE ISZERO PUSH2 0x17F4 JUMPI RETURNDATASIZE PUSH2 0x17D7 DUP2 PUSH2 0x1CDA JUMP JUMPDEST SWAP1 PUSH2 0x17E5 PUSH1 0x40 MLOAD SWAP3 DUP4 PUSH2 0x1BD4 JUMP JUMPDEST DUP2 MSTORE PUSH1 0x0 DUP2 SWAP5 RETURNDATASIZE SWAP3 ADD RETURNDATACOPY PUSH2 0x2229 JUMP JUMPDEST PUSH1 0x60 SWAP3 POP PUSH2 0x2229 JUMP JUMPDEST SWAP3 POP POP POP CALLVALUE PUSH2 0x1808 JUMPI STOP JUMPDEST PUSH4 0xB398979F PUSH1 0xE0 SHL DUP2 MSTORE PUSH1 0x4 SWAP1 REVERT JUMPDEST PUSH1 0x40 MLOAD PUSH4 0x4C9C8CE3 PUSH1 0xE0 SHL DUP2 MSTORE PUSH1 0x4 DUP2 ADD DUP4 SWAP1 MSTORE PUSH1 0x24 SWAP1 REVERT JUMPDEST PUSH1 0x24 SWAP1 PUSH1 0x40 MLOAD SWAP1 PUSH4 0x2A875269 PUSH1 0xE2 SHL DUP3 MSTORE PUSH1 0x4 DUP3 ADD MSTORE REVERT JUMPDEST SWAP1 SWAP2 POP DUP4 DUP2 DUP2 RETURNDATASIZE DUP4 GT PUSH2 0x1870 JUMPI JUMPDEST PUSH2 0x1860 DUP2 DUP4 PUSH2 0x1BD4 JUMP JUMPDEST DUP2 ADD SUB SLT PUSH2 0x180 JUMPI MLOAD SWAP1 DUP7 PUSH2 0x1724 JUMP JUMPDEST POP RETURNDATASIZE PUSH2 0x1856 JUMP JUMPDEST SWAP1 POP DUP2 PUSH32 0x360894A13BA1A3210667C828492DB98DCA3E2076CC3735A920A3CA505D382BBC SLOAD AND EQ ISZERO DUP5 PUSH2 0x16F2 JUMP JUMPDEST CALLVALUE PUSH2 0x180 JUMPI PUSH1 0x0 CALLDATASIZE PUSH1 0x3 NOT ADD SLT PUSH2 0x180 JUMPI PUSH2 0x18BE PUSH2 0x1E6A JUMP JUMPDEST PUSH1 0x0 DUP1 MLOAD PUSH1 0x20 PUSH2 0x22AD DUP4 CODECOPY DUP2 MLOAD SWAP2 MSTORE DUP1 SLOAD PUSH1 0xFF DUP2 AND ISZERO PUSH2 0x190A JUMPI PUSH1 0xFF NOT AND SWAP1 SSTORE PUSH32 0x5DB9EE0A495BF2E6FF9C91A7834C1BA4FDD244A5E8AA4E537BD38AEAE4B073AA PUSH1 0x20 PUSH1 0x40 MLOAD CALLER DUP2 MSTORE LOG1 STOP JUMPDEST PUSH1 0x40 MLOAD PUSH4 0x8DFC202B PUSH1 0xE0 SHL DUP2 MSTORE PUSH1 0x4 SWAP1 REVERT JUMPDEST CALLVALUE PUSH2 0x180 JUMPI PUSH1 0x40 CALLDATASIZE PUSH1 0x3 NOT ADD SLT PUSH2 0x180 JUMPI PUSH2 0x1935 PUSH2 0x1B4D JUMP JUMPDEST CALLER PUSH1 0x1 PUSH1 0x1 PUSH1 0xA0 SHL SUB DUP3 AND SUB PUSH2 0x1951 JUMPI PUSH2 0x17E SWAP1 PUSH1 0x4 CALLDATALOAD PUSH2 0x213A JUMP JUMPDEST PUSH1 0x40 MLOAD PUSH4 0x334BD919 PUSH1 0xE1 SHL DUP2 MSTORE PUSH1 0x4 SWAP1 REVERT JUMPDEST CALLVALUE PUSH2 0x180 JUMPI PUSH1 0x40 CALLDATASIZE PUSH1 0x3 NOT ADD SLT PUSH2 0x180 JUMPI PUSH2 0x17E PUSH1 0x4 CALLDATALOAD PUSH2 0x1982 PUSH2 0x1B4D JUMP JUMPDEST SWAP1 DUP1 PUSH1 0x0 MSTORE PUSH1 0x0 DUP1 MLOAD PUSH1 0x20 PUSH2 0x228D DUP4 CODECOPY DUP2 MLOAD SWAP2 MSTORE PUSH1 0x20 MSTORE PUSH2 0x19AA PUSH1 0x1 PUSH1 0x40 PUSH1 0x0 KECCAK256 ADD SLOAD PUSH2 0x1F1E JUMP JUMPDEST PUSH2 0x20B3 JUMP JUMPDEST CALLVALUE PUSH2 0x180 JUMPI PUSH1 0x20 CALLDATASIZE PUSH1 0x3 NOT ADD SLT PUSH2 0x180 JUMPI PUSH1 0x1 PUSH1 0x1 PUSH1 0xA0 SHL SUB DUP1 PUSH2 0x19D1 PUSH2 0x1B37 JUMP JUMPDEST AND PUSH1 0x0 MSTORE PUSH1 0x0 PUSH1 0x20 MSTORE PUSH1 0x40 PUSH1 0x0 KECCAK256 SWAP1 DUP2 SLOAD AND PUSH2 0x19EF PUSH1 0x1 DUP4 ADD PUSH2 0x1BF5 JUMP JUMPDEST SWAP2 PUSH2 0x19FC PUSH1 0x2 DUP3 ADD PUSH2 0x1BF5 JUMP JUMPDEST PUSH2 0x1A08 PUSH1 0x3 DUP4 ADD PUSH2 0x1BF5 JUMP JUMPDEST SWAP2 PUSH2 0x1A15 PUSH1 0x4 DUP3 ADD PUSH2 0x1BF5 JUMP JUMPDEST SWAP3 PUSH1 0x5 DUP3 ADD SLOAD SWAP4 PUSH2 0x1A86 PUSH1 0x6 DUP5 ADD SLOAD SWAP2 PUSH2 0x1A78 PUSH1 0xFF PUSH1 0x7 DUP8 ADD SLOAD AND SWAP5 PUSH2 0x1A6A PUSH1 0x9 PUSH1 0x8 DUP10 ADD SLOAD SWAP9 ADD SLOAD SWAP9 PUSH2 0x1A5C PUSH1 0x40 MLOAD SWAP14 DUP15 SWAP14 DUP15 PUSH2 0x140 SWAP2 DUP2 MSTORE DUP2 PUSH1 0x20 DUP3 ADD MSTORE ADD SWAP1 PUSH2 0x1C9A JUMP JUMPDEST DUP13 DUP2 SUB PUSH1 0x40 DUP15 ADD MSTORE SWAP1 PUSH2 0x1C9A JUMP JUMPDEST SWAP1 DUP11 DUP3 SUB PUSH1 0x60 DUP13 ADD MSTORE PUSH2 0x1C9A JUMP JUMPDEST SWAP1 DUP9 DUP3 SUB PUSH1 0x80 DUP11 ADD MSTORE PUSH2 0x1C9A JUMP JUMPDEST SWAP5 PUSH1 0xA0 DUP8 ADD MSTORE PUSH1 0xC0 DUP7 ADD MSTORE ISZERO ISZERO PUSH1 0xE0 DUP6 ADD MSTORE PUSH2 0x100 DUP5 ADD MSTORE PUSH2 0x120 DUP4 ADD MSTORE SUB SWAP1 RETURN JUMPDEST CALLVALUE PUSH2 0x180 JUMPI PUSH1 0x20 CALLDATASIZE PUSH1 0x3 NOT ADD SLT PUSH2 0x180 JUMPI PUSH1 0x4 CALLDATALOAD PUSH1 0x0 MSTORE PUSH1 0x0 DUP1 MLOAD PUSH1 0x20 PUSH2 0x228D DUP4 CODECOPY DUP2 MLOAD SWAP2 MSTORE PUSH1 0x20 MSTORE PUSH1 0x20 PUSH1 0x1 PUSH1 0x40 PUSH1 0x0 KECCAK256 ADD SLOAD PUSH1 0x40 MLOAD SWAP1 DUP2 MSTORE RETURN JUMPDEST CALLVALUE PUSH2 0x180 JUMPI PUSH1 0x20 CALLDATASIZE PUSH1 0x3 NOT ADD SLT PUSH2 0x180 JUMPI PUSH1 0x4 CALLDATALOAD SWAP1 PUSH4 0xFFFFFFFF PUSH1 0xE0 SHL DUP3 AND DUP1 SWAP3 SUB PUSH2 0x180 JUMPI PUSH1 0x20 SWAP2 PUSH4 0x7965DB0B PUSH1 0xE0 SHL DUP2 EQ SWAP1 DUP2 ISZERO PUSH2 0x1B26 JUMPI JUMPDEST POP ISZERO ISZERO DUP2 MSTORE RETURN JUMPDEST PUSH4 0x1FFC9A7 PUSH1 0xE0 SHL EQ SWAP1 POP DUP4 PUSH2 0x1B1F JUMP JUMPDEST PUSH1 0x4 CALLDATALOAD SWAP1 PUSH1 0x1 PUSH1 0x1 PUSH1 0xA0 SHL SUB DUP3 AND DUP3 SUB PUSH2 0x180 JUMPI JUMP JUMPDEST PUSH1 0x24 CALLDATALOAD SWAP1 PUSH1 0x1 PUSH1 0x1 PUSH1 0xA0 SHL SUB DUP3 AND DUP3 SUB PUSH2 0x180 JUMPI JUMP JUMPDEST SWAP1 PUSH1 0x1 DUP3 DUP2 SHR SWAP3 AND DUP1 ISZERO PUSH2 0x1B93 JUMPI JUMPDEST PUSH1 0x20 DUP4 LT EQ PUSH2 0x1B7D JUMPI JUMP JUMPDEST PUSH4 0x4E487B71 PUSH1 0xE0 SHL PUSH1 0x0 MSTORE PUSH1 0x22 PUSH1 0x4 MSTORE PUSH1 0x24 PUSH1 0x0 REVERT JUMPDEST SWAP2 PUSH1 0x7F AND SWAP2 PUSH2 0x1B72 JUMP JUMPDEST PUSH1 0xE0 DUP2 ADD SWAP1 DUP2 LT PUSH1 0x1 PUSH1 0x1 PUSH1 0x40 SHL SUB DUP3 GT OR PUSH2 0x729 JUMPI PUSH1 0x40 MSTORE JUMP JUMPDEST PUSH2 0x140 DUP2 ADD SWAP1 DUP2 LT PUSH1 0x1 PUSH1 0x1 PUSH1 0x40 SHL SUB DUP3 GT OR PUSH2 0x729 JUMPI PUSH1 0x40 MSTORE JUMP JUMPDEST SWAP1 PUSH1 0x1F DUP1 NOT SWAP2 ADD AND DUP2 ADD SWAP1 DUP2 LT PUSH1 0x1 PUSH1 0x1 PUSH1 0x40 SHL SUB DUP3 GT OR PUSH2 0x729 JUMPI PUSH1 0x40 MSTORE JUMP JUMPDEST SWAP1 PUSH1 0x40 MLOAD SWAP2 DUP3 PUSH1 0x0 DUP3 SLOAD PUSH2 0x1C08 DUP2 PUSH2 0x1B63 JUMP JUMPDEST SWAP1 DUP2 DUP5 MSTORE PUSH1 0x20 SWAP5 PUSH1 0x1 SWAP2 PUSH1 0x1 DUP2 AND SWAP1 DUP2 PUSH1 0x0 EQ PUSH2 0x1C78 JUMPI POP PUSH1 0x1 EQ PUSH2 0x1C39 JUMPI JUMPDEST POP POP POP PUSH2 0x1C37 SWAP3 POP SUB DUP4 PUSH2 0x1BD4 JUMP JUMPDEST JUMP JUMPDEST PUSH1 0x0 SWAP1 DUP2 MSTORE DUP6 DUP2 KECCAK256 SWAP6 SWAP4 POP SWAP2 SWAP1 JUMPDEST DUP2 DUP4 LT PUSH2 0x1C60 JUMPI POP POP PUSH2 0x1C37 SWAP4 POP DUP3 ADD ADD CODESIZE DUP1 DUP1 PUSH2 0x1C28 JUMP JUMPDEST DUP6 SLOAD DUP9 DUP5 ADD DUP6 ADD MSTORE SWAP5 DUP6 ADD SWAP5 DUP8 SWAP5 POP SWAP2 DUP4 ADD SWAP2 PUSH2 0x1C47 JUMP JUMPDEST SWAP3 POP POP POP PUSH2 0x1C37 SWAP5 SWAP3 POP PUSH1 0xFF NOT AND DUP3 DUP5 ADD MSTORE ISZERO ISZERO PUSH1 0x5 SHL DUP3 ADD ADD CODESIZE DUP1 DUP1 PUSH2 0x1C28 JUMP JUMPDEST SWAP2 SWAP1 DUP3 MLOAD SWAP3 DUP4 DUP3 MSTORE PUSH1 0x0 JUMPDEST DUP5 DUP2 LT PUSH2 0x1CC6 JUMPI POP POP DUP3 PUSH1 0x0 PUSH1 0x20 DUP1 SWAP5 SWAP6 DUP5 ADD ADD MSTORE PUSH1 0x1F DUP1 NOT SWAP2 ADD AND ADD ADD SWAP1 JUMP JUMPDEST PUSH1 0x20 DUP2 DUP4 ADD DUP2 ADD MLOAD DUP5 DUP4 ADD DUP3 ADD MSTORE ADD PUSH2 0x1CA5 JUMP JUMPDEST PUSH1 0x1 PUSH1 0x1 PUSH1 0x40 SHL SUB DUP2 GT PUSH2 0x729 JUMPI PUSH1 0x1F ADD PUSH1 0x1F NOT AND PUSH1 0x20 ADD SWAP1 JUMP JUMPDEST SWAP3 SWAP2 SWAP3 PUSH2 0x1D01 DUP3 PUSH2 0x1CDA JUMP JUMPDEST SWAP2 PUSH2 0x1D0F PUSH1 0x40 MLOAD SWAP4 DUP5 PUSH2 0x1BD4 JUMP JUMPDEST DUP3 SWAP5 DUP2 DUP5 MSTORE DUP2 DUP4 ADD GT PUSH2 0x180 JUMPI DUP3 DUP2 PUSH1 0x20 SWAP4 DUP5 PUSH1 0x0 SWAP7 ADD CALLDATACOPY ADD ADD MSTORE JUMP JUMPDEST PUSH1 0x40 SWAP1 PUSH1 0x3 NOT ADD SLT PUSH2 0x180 JUMPI PUSH1 0x4 CALLDATALOAD PUSH1 0x1 PUSH1 0x1 PUSH1 0xA0 SHL SUB DUP2 AND DUP2 SUB PUSH2 0x180 JUMPI SWAP1 PUSH1 0x24 CALLDATALOAD PUSH1 0x6 DUP2 LT ISZERO PUSH2 0x180 JUMPI SWAP1 JUMP JUMPDEST SWAP1 PUSH1 0x6 DUP2 LT ISZERO PUSH2 0x142E JUMPI PUSH1 0x0 MSTORE PUSH1 0x20 MSTORE PUSH1 0x40 PUSH1 0x0 KECCAK256 SWAP1 JUMP JUMPDEST SWAP2 DUP2 PUSH1 0x1F DUP5 ADD SLT ISZERO PUSH2 0x180 JUMPI DUP3 CALLDATALOAD SWAP2 PUSH1 0x1 PUSH1 0x1 PUSH1 0x40 SHL SUB DUP4 GT PUSH2 0x180 JUMPI PUSH1 0x20 DUP4 DUP2 DUP7 ADD SWAP6 ADD ADD GT PUSH2 0x180 JUMPI JUMP JUMPDEST PUSH1 0x2 SLOAD DUP2 LT ISZERO PUSH2 0x1DD7 JUMPI PUSH1 0x2 PUSH1 0x0 MSTORE PUSH32 0x405787FA12A823E0F2B7631CC41B3BA8828B3321CA811111FA75CD3AA3BB5ACE ADD SWAP1 PUSH1 0x0 SWAP1 JUMP JUMPDEST PUSH4 0x4E487B71 PUSH1 0xE0 SHL PUSH1 0x0 MSTORE PUSH1 0x32 PUSH1 0x4 MSTORE PUSH1 0x24 PUSH1 0x0 REVERT JUMPDEST ISZERO PUSH2 0x1DF4 JUMPI JUMP JUMPDEST PUSH1 0x40 MLOAD PUSH3 0x461BCD PUSH1 0xE5 SHL DUP2 MSTORE PUSH1 0x20 PUSH1 0x4 DUP3 ADD MSTORE PUSH1 0x18 PUSH1 0x24 DUP3 ADD MSTORE PUSH32 0x50726F6475636572206E6F742077686974656C69737465640000000000000000 PUSH1 0x44 DUP3 ADD MSTORE PUSH1 0x64 SWAP1 REVERT JUMPDEST PUSH1 0x6 DUP3 LT ISZERO PUSH2 0x142E JUMPI MSTORE JUMP JUMPDEST PUSH1 0x0 NOT DUP2 EQ PUSH2 0x1E54 JUMPI PUSH1 0x1 ADD SWAP1 JUMP JUMPDEST PUSH4 0x4E487B71 PUSH1 0xE0 SHL PUSH1 0x0 MSTORE PUSH1 0x11 PUSH1 0x4 MSTORE PUSH1 0x24 PUSH1 0x0 REVERT JUMPDEST CALLER PUSH1 0x0 SWAP1 DUP2 MSTORE PUSH32 0xB7DB2DD08FCB62D0C9E08C51941CAE53C267786A0B75803FB7960902FC8EF97D PUSH1 0x20 MSTORE PUSH1 0x40 DUP2 KECCAK256 SLOAD PUSH1 0xFF AND ISZERO PUSH2 0x1EA4 JUMPI POP JUMP JUMPDEST PUSH1 0x44 SWAP1 PUSH1 0x40 MLOAD SWAP1 PUSH4 0xE2517D3F PUSH1 0xE0 SHL DUP3 MSTORE CALLER PUSH1 0x4 DUP4 ADD MSTORE PUSH1 0x24 DUP3 ADD MSTORE REVERT JUMPDEST CALLER PUSH1 0x0 SWAP1 DUP2 MSTORE PUSH32 0xE45607ABFEF3D9CF5E943A575BEAE878B8EBD6D89ED911D543232B99EF6BC2DD PUSH1 0x20 MSTORE PUSH1 0x40 SWAP1 KECCAK256 SLOAD PUSH32 0x65CB1D8422CDF0328F26B49E42E9F4524474C431DA623CBE0EA455F1B67C9F77 SWAP1 PUSH1 0xFF AND ISZERO PUSH2 0x1EA4 JUMPI POP JUMP JUMPDEST DUP1 PUSH1 0x0 MSTORE PUSH1 0x0 DUP1 MLOAD PUSH1 0x20 PUSH2 0x228D DUP4 CODECOPY DUP2 MLOAD SWAP2 MSTORE PUSH1 0x20 MSTORE PUSH1 0x40 PUSH1 0x0 KECCAK256 CALLER PUSH1 0x0 MSTORE PUSH1 0x20 MSTORE PUSH1 0xFF PUSH1 0x40 PUSH1 0x0 KECCAK256 SLOAD AND ISZERO PUSH2 0x1EA4 JUMPI POP JUMP JUMPDEST PUSH1 0x1 PUSH1 0x1 PUSH1 0xA0 SHL SUB AND PUSH1 0x0 DUP2 DUP2 MSTORE PUSH32 0xB7DB2DD08FCB62D0C9E08C51941CAE53C267786A0B75803FB7960902FC8EF97D PUSH1 0x20 MSTORE PUSH1 0x40 DUP2 KECCAK256 SLOAD SWAP1 SWAP2 SWAP1 PUSH1 0x0 DUP1 MLOAD PUSH1 0x20 PUSH2 0x228D DUP4 CODECOPY DUP2 MLOAD SWAP2 MSTORE SWAP1 PUSH1 0xFF AND PUSH2 0x1FEC JUMPI DUP3 DUP1 MSTORE PUSH1 0x20 MSTORE PUSH1 0x40 DUP3 KECCAK256 DUP2 DUP4 MSTORE PUSH1 0x20 MSTORE PUSH1 0x40 DUP3 KECCAK256 PUSH1 0x1 PUSH1 0xFF NOT DUP3 SLOAD AND OR SWAP1 SSTORE CALLER SWAP2 PUSH32 0x2F8788117E7EFF1D82E926EC794901D17C78024A50270940304540A733656F0D DUP2 DUP1 LOG4 PUSH1 0x1 SWAP1 JUMP JUMPDEST POP POP SWAP1 JUMP JUMPDEST PUSH1 0x1 PUSH1 0x1 PUSH1 0xA0 SHL SUB AND PUSH1 0x0 DUP2 DUP2 MSTORE PUSH32 0xE45607ABFEF3D9CF5E943A575BEAE878B8EBD6D89ED911D543232B99EF6BC2DD PUSH1 0x20 MSTORE PUSH1 0x40 DUP2 KECCAK256 SLOAD SWAP1 SWAP2 SWAP1 PUSH32 0x65CB1D8422CDF0328F26B49E42E9F4524474C431DA623CBE0EA455F1B67C9F77 SWAP1 PUSH1 0x0 DUP1 MLOAD PUSH1 0x20 PUSH2 0x228D DUP4 CODECOPY DUP2 MLOAD SWAP2 MSTORE SWAP1 PUSH1 0xFF AND PUSH2 0x20AD JUMPI DUP2 DUP5 MSTORE PUSH1 0x20 MSTORE PUSH1 0x40 DUP4 KECCAK256 DUP3 DUP5 MSTORE PUSH1 0x20 MSTORE PUSH1 0x40 DUP4 KECCAK256 PUSH1 0x1 PUSH1 0xFF NOT DUP3 SLOAD AND OR SWAP1 SSTORE PUSH32 0x2F8788117E7EFF1D82E926EC794901D17C78024A50270940304540A733656F0D CALLER SWAP4 DUP1 LOG4 PUSH1 0x1 SWAP1 JUMP JUMPDEST POP POP POP SWAP1 JUMP JUMPDEST SWAP1 PUSH1 0x0 SWAP2 DUP1 DUP4 MSTORE PUSH1 0x0 DUP1 MLOAD PUSH1 0x20 PUSH2 0x228D DUP4 CODECOPY DUP2 MLOAD SWAP2 MSTORE DUP1 PUSH1 0x20 MSTORE PUSH1 0x40 DUP5 KECCAK256 SWAP3 PUSH1 0x1 DUP1 PUSH1 0xA0 SHL SUB AND SWAP3 DUP4 DUP6 MSTORE PUSH1 0x20 MSTORE PUSH1 0xFF PUSH1 0x40 DUP6 KECCAK256 SLOAD AND ISZERO PUSH1 0x0 EQ PUSH2 0x20AD JUMPI DUP2 DUP5 MSTORE PUSH1 0x20 MSTORE PUSH1 0x40 DUP4 KECCAK256 DUP3 DUP5 MSTORE PUSH1 0x20 MSTORE PUSH1 0x40 DUP4 KECCAK256 PUSH1 0x1 PUSH1 0xFF NOT DUP3 SLOAD AND OR SWAP1 SSTORE PUSH32 0x2F8788117E7EFF1D82E926EC794901D17C78024A50270940304540A733656F0D CALLER SWAP4 DUP1 LOG4 PUSH1 0x1 SWAP1 JUMP JUMPDEST SWAP1 PUSH1 0x0 SWAP2 DUP1 DUP4 MSTORE PUSH1 0x0 DUP1 MLOAD PUSH1 0x20 PUSH2 0x228D DUP4 CODECOPY DUP2 MLOAD SWAP2 MSTORE DUP1 PUSH1 0x20 MSTORE PUSH1 0x40 DUP5 KECCAK256 SWAP3 PUSH1 0x1 DUP1 PUSH1 0xA0 SHL SUB AND SWAP3 DUP4 DUP6 MSTORE PUSH1 0x20 MSTORE PUSH1 0xFF PUSH1 0x40 DUP6 KECCAK256 SLOAD AND PUSH1 0x0 EQ PUSH2 0x20AD JUMPI DUP2 DUP5 MSTORE PUSH1 0x20 MSTORE PUSH1 0x40 DUP4 KECCAK256 DUP3 DUP5 MSTORE PUSH1 0x20 MSTORE PUSH1 0x40 DUP4 KECCAK256 PUSH1 0xFF NOT DUP2 SLOAD AND SWAP1 SSTORE PUSH32 0xF6391F5C32D9C69D2A47EA670B442974B53935D1EDC7FD64EB21E047A839171B CALLER SWAP4 DUP1 LOG4 PUSH1 0x1 SWAP1 JUMP JUMPDEST PUSH1 0xFF PUSH1 0x0 DUP1 MLOAD PUSH1 0x20 PUSH2 0x22AD DUP4 CODECOPY DUP2 MLOAD SWAP2 MSTORE SLOAD AND PUSH2 0x21D6 JUMPI JUMP JUMPDEST PUSH1 0x40 MLOAD PUSH4 0xD93C0665 PUSH1 0xE0 SHL DUP2 MSTORE PUSH1 0x4 SWAP1 REVERT JUMPDEST PUSH1 0xFF PUSH32 0xF0C57E16840DF040F15088DC2F81FE391C3923BEC73E23A9662EFC9C229C6A00 SLOAD PUSH1 0x40 SHR AND ISZERO PUSH2 0x2217 JUMPI JUMP JUMPDEST PUSH1 0x40 MLOAD PUSH4 0x1AFCD79F PUSH1 0xE3 SHL DUP2 MSTORE PUSH1 0x4 SWAP1 REVERT JUMPDEST SWAP1 PUSH2 0x2250 JUMPI POP DUP1 MLOAD ISZERO PUSH2 0x223E JUMPI PUSH1 0x20 DUP2 MLOAD SWAP2 ADD REVERT JUMPDEST PUSH1 0x40 MLOAD PUSH4 0xD6BDA275 PUSH1 0xE0 SHL DUP2 MSTORE PUSH1 0x4 SWAP1 REVERT JUMPDEST DUP2 MLOAD ISZERO DUP1 PUSH2 0x2283 JUMPI JUMPDEST PUSH2 0x2261 JUMPI POP SWAP1 JUMP JUMPDEST PUSH1 0x40 MLOAD PUSH4 0x9996B315 PUSH1 0xE0 SHL DUP2 MSTORE PUSH1 0x1 PUSH1 0x1 PUSH1 0xA0 SHL SUB SWAP1 SWAP2 AND PUSH1 0x4 DUP3 ADD MSTORE PUSH1 0x24 SWAP1 REVERT JUMPDEST POP DUP1 EXTCODESIZE ISZERO PUSH2 0x2259 JUMP INVALID MUL 0xDD PUSH28 0xC7DEC4DCEEDDA775E58DD541E08A116C6C53815C0BD028192F7B6268 STOP 0xCD MCOPY 0xD1 TLOAD PUSH15 0x187E77E9AEE88184C21F4F2182AB58 0x27 0xCB EXTCODESIZE PUSH31 0x7FBEDCD63F03300A2646970667358221220AD6A128A6387DB7A7670A303F5 MOD SWAP7 PC PUSH23 0x746EEE7DBAE5C9DF11A4D28BE3F12364736F6C63430008 XOR STOP CALLER "},"methodIdentifiers":{"CERTIFIER_ROLE()":"69d0b517","DEFAULT_ADMIN_ROLE()":"a217fddf","UPGRADE_INTERFACE_VERSION()":"ad3cb1cc","activeProducers(uint256)":"a14fabec","addCertification(address,uint8,string,string,string,uint256)":"8074c2ca","certifications(address,uint8)":"542429e2","getProducer(address)":"aab147b2","getRoleAdmin(bytes32)":"248a9ca3","grantRole(bytes32,address)":"2f2ff15d","hasCertification(address,uint8)":"98e232ef","hasRole(bytes32,address)":"91d14854","incrementBatchCount(address)":"c90df9bc","initialize(address)":"c4d66de8","isProducerCertified(address)":"656d1ea8","pause()":"8456cb59","paused()":"5c975abb","producers(address)":"26324eff","proxiableUUID()":"52d1902d","renounceRole(bytes32,address)":"36568abe","revokeRole(bytes32,address)":"d547741f","supportsInterface(bytes4)":"01ffc9a7","totalProducers()":"b2db6140","unpause()":"3f4ba83a","upgradeToAndCall(address,bytes)":"4f1ef286","whitelistProducer(address,string,string,string,string,int256,int256)":"c1c0f456"}},"storageLayout":{"storage":[{"astId":9354,"contract":"contracts/ProducerCertification.sol:ProducerCertification","label":"producers","offset":0,"slot":"0","type":"t_mapping(t_address,t_struct(Producer)9333_storage)"},{"astId":9362,"contract":"contracts/ProducerCertification.sol:ProducerCertification","label":"certifications","offset":0,"slot":"1","type":"t_mapping(t_address,t_mapping(t_enum(CertificationType)9312,t_struct(Certification)9349_storage))"},{"astId":9365,"contract":"contracts/ProducerCertification.sol:ProducerCertification","label":"activeProducers","offset":0,"slot":"2","type":"t_array(t_address)dyn_storage"},{"astId":9367,"contract":"contracts/ProducerCertification.sol:ProducerCertification","label":"totalProducers","offset":0,"slot":"3","type":"t_uint256"}],"types":{"t_address":{"encoding":"inplace","label":"address","numberOfBytes":"20"},"t_array(t_address)dyn_storage":{"base":"t_address","encoding":"dynamic_array","label":"address[]","numberOfBytes":"32"},"t_bool":{"encoding":"inplace","label":"bool","numberOfBytes":"1"},"t_enum(CertificationType)9312":{"encoding":"inplace","label":"enum ProducerCertification.CertificationType","numberOfBytes":"1"},"t_int256":{"encoding":"inplace","label":"int256","numberOfBytes":"32"},"t_mapping(t_address,t_mapping(t_enum(CertificationType)9312,t_struct(Certification)9349_storage))":{"encoding":"mapping","key":"t_address","label":"mapping(address => mapping(enum ProducerCertification.CertificationType => struct ProducerCertification.Certification))","numberOfBytes":"32","value":"t_mapping(t_enum(CertificationType)9312,t_struct(Certification)9349_storage)"},"t_mapping(t_address,t_struct(Producer)9333_storage)":{"encoding":"mapping","key":"t_address","label":"mapping(address => struct ProducerCertification.Producer)","numberOfBytes":"32","value":"t_struct(Producer)9333_storage"},"t_mapping(t_enum(CertificationType)9312,t_struct(Certification)9349_storage)":{"encoding":"mapping","key":"t_enum(CertificationType)9312","label":"mapping(enum ProducerCertification.CertificationType => struct ProducerCertification.Certification)","numberOfBytes":"32","value":"t_struct(Certification)9349_storage"},"t_string_storage":{"encoding":"bytes","label":"string","numberOfBytes":"32"},"t_struct(Certification)9349_storage":{"encoding":"inplace","label":"struct ProducerCertification.Certification","members":[{"astId":9336,"contract":"contracts/ProducerCertification.sol:ProducerCertification","label":"certType","offset":0,"slot":"0","type":"t_enum(CertificationType)9312"},{"astId":9338,"contract":"contracts/ProducerCertification.sol:ProducerCertification","label":"certifier","offset":0,"slot":"1","type":"t_string_storage"},{"astId":9340,"contract":"contracts/ProducerCertification.sol:ProducerCertification","label":"certificateNumber","offset":0,"slot":"2","type":"t_string_storage"},{"astId":9342,"contract":"contracts/ProducerCertification.sol:ProducerCertification","label":"ipfsHash","offset":0,"slot":"3","type":"t_string_storage"},{"astId":9344,"contract":"contracts/ProducerCertification.sol:ProducerCertification","label":"issuedAt","offset":0,"slot":"4","type":"t_uint256"},{"astId":9346,"contract":"contracts/ProducerCertification.sol:ProducerCertification","label":"expiresAt","offset":0,"slot":"5","type":"t_uint256"},{"astId":9348,"contract":"contracts/ProducerCertification.sol:ProducerCertification","label":"isActive","offset":0,"slot":"6","type":"t_bool"}],"numberOfBytes":"224"},"t_struct(Producer)9333_storage":{"encoding":"inplace","label":"struct ProducerCertification.Producer","members":[{"astId":9314,"contract":"contracts/ProducerCertification.sol:ProducerCertification","label":"wallet","offset":0,"slot":"0","type":"t_address"},{"astId":9316,"contract":"contracts/ProducerCertification.sol:ProducerCertification","label":"businessName","offset":0,"slot":"1","type":"t_string_storage"},{"astId":9318,"contract":"contracts/ProducerCertification.sol:ProducerCertification","label":"rfc","offset":0,"slot":"2","type":"t_string_storage"},{"astId":9320,"contract":"contracts/ProducerCertification.sol:ProducerCertification","label":"state","offset":0,"slot":"3","type":"t_string_storage"},{"astId":9322,"contract":"contracts/ProducerCertification.sol:ProducerCertification","label":"municipality","offset":0,"slot":"4","type":"t_string_storage"},{"astId":9324,"contract":"contracts/ProducerCertification.sol:ProducerCertification","label":"latitude","offset":0,"slot":"5","type":"t_int256"},{"astId":9326,"contract":"contracts/ProducerCertification.sol:ProducerCertification","label":"longitude","offset":0,"slot":"6","type":"t_int256"},{"astId":9328,"contract":"contracts/ProducerCertification.sol:ProducerCertification","label":"isWhitelisted","offset":0,"slot":"7","type":"t_bool"},{"astId":9330,"contract":"contracts/ProducerCertification.sol:ProducerCertification","label":"whitelistedAt","offset":0,"slot":"8","type":"t_uint256"},{"astId":9332,"contract":"contracts/ProducerCertification.sol:ProducerCertification","label":"totalBatches","offset":0,"slot":"9","type":"t_uint256"}],"numberOfBytes":"320"},"t_uint256":{"encoding":"inplace","label":"uint256","numberOfBytes":"32"}}}}}}