{"contracts/TraceabilityRegistry.sol":{"TraceabilityRegistry":{"abi":[{"inputs":[],"stateMutability":"nonpayable","type":"constructor"},{"inputs":[],"name":"AccessControlBadConfirmation","type":"error"},{"inputs":[{"internalType":"address","name":"account","type":"address"},{"internalType":"bytes32","name":"neededRole","type":"bytes32"}],"name":"AccessControlUnauthorizedAccount","type":"error"},{"inputs":[{"internalType":"address","name":"target","type":"address"}],"name":"AddressEmptyCode","type":"error"},{"inputs":[{"internalType":"address","name":"implementation","type":"address"}],"name":"ERC1967InvalidImplementation","type":"error"},{"inputs":[],"name":"ERC1967NonPayable","type":"error"},{"inputs":[],"name":"EnforcedPause","type":"error"},{"inputs":[],"name":"EventAlreadyVerified","type":"error"},{"inputs":[],"name":"EventNotFound","type":"error"},{"inputs":[],"name":"ExpectedPause","type":"error"},{"inputs":[],"name":"FailedCall","type":"error"},{"inputs":[],"name":"InvalidBatchID","type":"error"},{"inputs":[],"name":"InvalidIPFSHash","type":"error"},{"inputs":[],"name":"InvalidInitialization","type":"error"},{"inputs":[],"name":"NotACertifiedProducer","type":"error"},{"inputs":[],"name":"NotInitializing","type":"error"},{"inputs":[],"name":"ReentrancyGuardReentrantCall","type":"error"},{"inputs":[],"name":"UUPSUnauthorizedCallContext","type":"error"},{"inputs":[{"internalType":"bytes32","name":"slot","type":"bytes32"}],"name":"UUPSUnsupportedProxiableUUID","type":"error"},{"anonymous":false,"inputs":[{"indexed":true,"internalType":"bytes32","name":"eventId","type":"bytes32"},{"indexed":true,"internalType":"string","name":"batchId","type":"string"},{"indexed":true,"internalType":"address","name":"producer","type":"address"},{"indexed":false,"internalType":"string","name":"eventType","type":"string"},{"indexed":false,"internalType":"uint256","name":"timestamp","type":"uint256"}],"name":"EventRegistered","type":"event"},{"anonymous":false,"inputs":[{"indexed":true,"internalType":"bytes32","name":"eventId","type":"bytes32"},{"indexed":true,"internalType":"address","name":"certifier","type":"address"}],"name":"EventVerified","type":"event"},{"anonymous":false,"inputs":[{"indexed":false,"internalType":"uint64","name":"version","type":"uint64"}],"name":"Initialized","type":"event"},{"anonymous":false,"inputs":[{"indexed":false,"internalType":"address","name":"account","type":"address"}],"name":"Paused","type":"event"},{"anonymous":false,"inputs":[{"indexed":true,"internalType":"bytes32","name":"role","type":"bytes32"},{"indexed":true,"internalType":"bytes32","name":"previousAdminRole","type":"bytes32"},{"indexed":true,"internalType":"bytes32","name":"newAdminRole","type":"bytes32"}],"name":"RoleAdminChanged","type":"event"},{"anonymous":false,"inputs":[{"indexed":true,"internalType":"bytes32","name":"role","type":"bytes32"},{"indexed":true,"internalType":"address","name":"account","type":"address"},{"indexed":true,"internalType":"address","name":"sender","type":"address"}],"name":"RoleGranted","type":"event"},{"anonymous":false,"inputs":[{"indexed":true,"internalType":"bytes32","name":"role","type":"bytes32"},{"indexed":true,"internalType":"address","name":"account","type":"address"},{"indexed":true,"internalType":"address","name":"sender","type":"address"}],"name":"RoleRevoked","type":"event"},{"anonymous":false,"inputs":[{"indexed":false,"internalType":"address","name":"account","type":"address"}],"name":"Unpaused","type":"event"},{"anonymous":false,"inputs":[{"indexed":true,"internalType":"address","name":"implementation","type":"address"}],"name":"Upgraded","type":"event"},{"inputs":[],"name":"CERTIFIER_ROLE","outputs":[{"internalType":"bytes32","name":"","type":"bytes32"}],"stateMutability":"view","type":"function"},{"inputs":[],"name":"DEFAULT_ADMIN_ROLE","outputs":[{"internalType":"bytes32","name":"","type":"bytes32"}],"stateMutability":"view","type":"function"},{"inputs":[],"name":"UPGRADE_INTERFACE_VERSION","outputs":[{"internalType":"string","name":"","type":"string"}],"stateMutability":"view","type":"function"},{"inputs":[{"internalType":"string","name":"batchId","type":"string"}],"name":"getBatchHistory","outputs":[{"components":[{"internalType":"bytes32","name":"eventId","type":"bytes32"},{"internalType":"string","name":"eventType","type":"string"},{"internalType":"address","name":"producer","type":"address"},{"internalType":"uint256","name":"timestamp","type":"uint256"},{"components":[{"internalType":"int256","name":"latitude","type":"int256"},{"internalType":"int256","name":"longitude","type":"int256"}],"internalType":"struct TraceabilityRegistry.GPSCoordinates","name":"location","type":"tuple"},{"internalType":"string","name":"ipfsHash","type":"string"},{"internalType":"bytes32","name":"previousEventHash","type":"bytes32"},{"internalType":"bool","name":"verified","type":"bool"}],"internalType":"struct TraceabilityRegistry.CriticalTrackingEvent[]","name":"","type":"tuple[]"}],"stateMutability":"view","type":"function"},{"inputs":[{"internalType":"bytes32","name":"role","type":"bytes32"}],"name":"getRoleAdmin","outputs":[{"internalType":"bytes32","name":"","type":"bytes32"}],"stateMutability":"view","type":"function"},{"inputs":[{"internalType":"bytes32","name":"role","type":"bytes32"},{"internalType":"address","name":"account","type":"address"}],"name":"grantRole","outputs":[],"stateMutability":"nonpayable","type":"function"},{"inputs":[{"internalType":"bytes32","name":"role","type":"bytes32"},{"internalType":"address","name":"account","type":"address"}],"name":"hasRole","outputs":[{"internalType":"bool","name":"","type":"bool"}],"stateMutability":"view","type":"function"},{"inputs":[{"internalType":"address","name":"admin","type":"address"},{"internalType":"address","name":"_producerCertificationAddress","type":"address"}],"name":"initialize","outputs":[],"stateMutability":"nonpayable","type":"function"},{"inputs":[],"name":"pause","outputs":[],"stateMutability":"nonpayable","type":"function"},{"inputs":[],"name":"paused","outputs":[{"internalType":"bool","name":"","type":"bool"}],"stateMutability":"view","type":"function"},{"inputs":[],"name":"producerCertificationContract","outputs":[{"internalType":"contract IProducerCertification","name":"","type":"address"}],"stateMutability":"view","type":"function"},{"inputs":[],"name":"proxiableUUID","outputs":[{"internalType":"bytes32","name":"","type":"bytes32"}],"stateMutability":"view","type":"function"},{"inputs":[{"internalType":"string","name":"eventType","type":"string"},{"internalType":"string","name":"batchId","type":"string"},{"internalType":"int256","name":"latitude","type":"int256"},{"internalType":"int256","name":"longitude","type":"int256"},{"internalType":"string","name":"ipfsHash","type":"string"}],"name":"registerEvent","outputs":[{"internalType":"bytes32","name":"","type":"bytes32"}],"stateMutability":"nonpayable","type":"function"},{"inputs":[{"internalType":"bytes32","name":"role","type":"bytes32"},{"internalType":"address","name":"callerConfirmation","type":"address"}],"name":"renounceRole","outputs":[],"stateMutability":"nonpayable","type":"function"},{"inputs":[{"internalType":"bytes32","name":"role","type":"bytes32"},{"internalType":"address","name":"account","type":"address"}],"name":"revokeRole","outputs":[],"stateMutability":"nonpayable","type":"function"},{"inputs":[{"internalType":"bytes4","name":"interfaceId","type":"bytes4"}],"name":"supportsInterface","outputs":[{"internalType":"bool","name":"","type":"bool"}],"stateMutability":"view","type":"function"},{"inputs":[],"name":"unpause","outputs":[],"stateMutability":"nonpayable","type":"function"},{"inputs":[{"internalType":"address","name":"newImplementation","type":"address"},{"internalType":"bytes","name":"data","type":"bytes"}],"name":"upgradeToAndCall","outputs":[],"stateMutability":"payable","type":"function"},{"inputs":[{"internalType":"bytes32","name":"eventId","type":"bytes32"},{"internalType":"string","name":"batchId","type":"string"}],"name":"verifyEvent","outputs":[],"stateMutability":"nonpayable","type":"function"}],"evm":{"bytecode":{"linkReferences":{},"object":"60a080604052346100cc57306080527ff0c57e16840df040f15088dc2f81fe391c3923bec73e23a9662efc9c229c6a009081549060ff8260401c166100bd57506001600160401b036002600160401b031982821601610078575b60405161191190816100d2823960805181818161067d01526107360152f35b6001600160401b031990911681179091556040519081527fc7f505b2f371ae2175ee4913f4499e1f2633a7b5936321eed1cdaeb6115181d290602090a1388080610059565b63f92ee8a960e01b8152600490fd5b600080fdfe608080604052600436101561001357600080fd5b60e060003560e01c91826301ffc9a71461120e575081630923bb1414610be9578163248a9ca314610bad5781632f2ff15d14610b6157816336568abe14610b1a5781633f4ba83a14610aa3578163485cc955146109155781634f1ef286146106e757816352d1902d1461066a5781635c975abb1461063a57816369d0b517146105ff5781638456cb591461059857816391d148541461053e578163a217fddf14610522578163a252d8a71461030257508063ad3cb1cc146102b8578063d547741f1461026a578063d640a799146102415763ea4714c4146100f357600080fd5b3461023c57604036600319011261023c576004356024356001600160401b03811161023c57610126903690600401611261565b3360009081527fe45607abfef3d9cf5e943a575beae878b8ebd6d89ed911d543232b99ef6bc2dd60205260409020547f65cb1d8422cdf0328f26b49e42e9f4524474c431da623cbe0ea455f1b67c9f779392919060ff161561021d57906101b191836000526002602052602060406000205492826040519384928337810160018152030190206113a4565b508181540361020b57600801805460ff81166101f95760ff1916600117905533907fb5687d81b3cf7356c5e42a698c19d95fb939891cc41a87e21252d5feefd0201b600080a3005b604051633b43ed8360e11b8152600490fd5b604051635add554360e01b8152600490fd5b60405163e2517d3f60e01b815233600482015260248101859052604490fd5b600080fd5b3461023c57600036600319011261023c576000546040516001600160a01b039091168152602090f35b3461023c57604036600319011261023c576102b660043561028961128e565b908060005260008051602061187c8339815191526020526102b1600160406000200154611538565b611754565b005b3461023c57600036600319011261023c576102fe6040516102d8816112ba565b60058152640352e302e360dc1b6020820152604051918291602083526020830190611364565b0390f35b3461023c5760208060031936011261023c576001600160401b0360043581811161023c57610334903690600401611261565b6040519291819084378201918381600194600181520301902092835491821161050c5783858460059460405195610370868360051b01886112f1565b81875260009485528585208688019591865b8484106104645750505050506040519484869586019181875251809252604086019360408360051b88010195946000915b8483106103c05788880389f35b9193959750919384808298603f198c82030186528a5190610100866103f76101208551855286860151908088870152850190611364565b9360018060a01b036040820151166040850152606080820151908501526104418660808084015190815190880152015160a090818701528201519560c09686820388880152611364565b9481015182850152015115159101529901930193019092889796949295936103b3565b9460098982999a9760409c999c5161047b816112d5565b8654815261048a858801611410565b8184015260028701546001600160a01b031660408083019190915260038801546060830152516104b9816112ba565b60048801548152868801548482015260808201526104d960068801611410565b60a0820152600787015460c08201528d60ff60088901541615159082015281520193019301929198959897969497610382565b634e487b7160e01b600052604160045260246000fd5b3461023c57600036600319011261023c57602060405160008152f35b3461023c57604036600319011261023c5761055761128e565b60043560005260008051602061187c83398151915260205260406000209060018060a01b0316600052602052602060ff604060002054166040519015158152f35b3461023c57600036600319011261023c576105b16114e0565b6105b96114b5565b60008051602061189c833981519152600160ff198254161790557f62e78cea01bee320cd4e420270b5ea74000d11b0c9f74754ebdbfc544b05a2586020604051338152a1005b3461023c57600036600319011261023c5760206040517f65cb1d8422cdf0328f26b49e42e9f4524474c431da623cbe0ea455f1b67c9f778152f35b3461023c57600036600319011261023c57602060ff60008051602061189c83398151915254166040519015158152f35b3461023c57600036600319011261023c577f00000000000000000000000000000000000000000000000000000000000000006001600160a01b031630036106d55760206040517f360894a13ba1a3210667c828492db98dca3e2076cc3735a920a3ca505d382bbc8152f35b60405163703e46dd60e11b8152600490fd5b604036600319011261023c576106fb6112a4565b6024356001600160401b03811161023c573660238201121561023c5761072b90369060248160040135910161132d565b906001600160a01b037f000000000000000000000000000000000000000000000000000000000000000081163081149081156108e7575b506106d55761076f6114e0565b6040516352d1902d60e01b8152908216916020918281600481875afa600091816108b8575b506107b257604051634c9c8ce360e01b815260048101859052602490fd5b9284937f360894a13ba1a3210667c828492db98dca3e2076cc3735a920a3ca505d382bbc908181036108a05750823b156108875780546001600160a01b03191682179055604051907fbc7cd75a20ee27fd9adebab32041f755214dbc6bffa90cc0225b39da2e5c2d3b600080a283511561086d575060008084846102b696519101845af4903d15610864573d61084781611312565b9061085560405192836112f1565b8152600081943d92013e611818565b60609250611818565b925050503461087857005b63b398979f60e01b8152600490fd5b604051634c9c8ce360e01b815260048101839052602490fd5b60249060405190632a87526960e21b82526004820152fd5b9091508381813d83116108e0575b6108d081836112f1565b8101031261023c57519086610794565b503d6108c6565b9050817f360894a13ba1a3210667c828492db98dca3e2076cc3735a920a3ca505d382bbc5416141584610762565b3461023c57604036600319011261023c5761092e6112a4565b61093661128e565b907ff0c57e16840df040f15088dc2f81fe391c3923bec73e23a9662efc9c229c6a0091825460ff8160401c1615926001600160401b03821680159081610a9b575b6001149081610a91575b159081610a88575b50610a765767ffffffffffffffff19821660011785556109f39184610a57575b506109b26117d7565b6109ba6117d7565b6109c26117d7565b6109ca6117d7565b60016000805160206118bc833981519152556109e46117d7565b6109ed8161156b565b5061160b565b5060018060a01b03166bffffffffffffffffffffffff60a01b6000541617600055610a1a57005b68ff00000000000000001981541690557fc7f505b2f371ae2175ee4913f4499e1f2633a7b5936321eed1cdaeb6115181d2602060405160018152a1005b68ffffffffffffffffff191668010000000000000001178555856109a9565b60405163f92ee8a960e01b8152600490fd5b90501586610989565b303b159150610981565b859150610977565b3461023c57600036600319011261023c57610abc6114e0565b60008051602061189c833981519152805460ff811615610b085760ff191690557f5db9ee0a495bf2e6ff9c91a7834c1ba4fdd244a5e8aa4e537bd38aeae4b073aa6020604051338152a1005b604051638dfc202b60e01b8152600490fd5b3461023c57604036600319011261023c57610b3361128e565b336001600160a01b03821603610b4f576102b690600435611754565b60405163334bd91960e11b8152600490fd5b3461023c57604036600319011261023c576102b6600435610b8061128e565b908060005260008051602061187c833981519152602052610ba8600160406000200154611538565b6116cd565b3461023c57602036600319011261023c5760043560005260008051602061187c8339815191526020526020600160406000200154604051908152f35b3461023c5760a036600319011261023c576004356001600160401b03811161023c57610c19903690600401611261565b906024356001600160401b03811161023c57610c39903690600401611261565b9290916084356001600160401b03811161023c57610c5b903690600401611261565b9390610c656114b5565b60026000805160206118bc83398151915254146111fc5760026000805160206118bc83398151915255600054604051630cada3d560e31b815233600482015290602090829060249082906001600160a01b03165afa9081156111f0576000916111b5575b50156111a357851561119157841561117f57604051602081019085858337610d1a6054828a8982018189602083016000815237013360601b60208201524260348201520360348101845201826112f1565b5190209460405187848237600181890190815281900360200190208054909281156111745781600019810111610fb157610db1610d5b6000198401866113a4565b5054915b60405194610d6c866112ba565b6044358652606435602087015260405195610d86876112d5565b8b8752610d94368c8c61132d565b60208801523360408801524260608801526080870152369161132d565b60a084015260c0830152600060e08301526801000000000000000081101561050c57806001610de392018455836113a4565b61115e578151815560208201518051906001600160401b03821161050c578190610e1060018501546113d6565b601f811161110b575b50602090601f83116001146110995760009261108e575b50508160011b916000199060031b1c19161760018201555b6002810160018060a01b036040840151166bffffffffffffffffffffffff60a01b8254161790556060820151600382015560206080830151805160048401550151600582015560a08201518051906001600160401b03821161050c57610eb160068401546113d6565b601f8111611047575b50602090601f8311600114610fd257918060e09492600894600092610fc7575b50508160011b916000199060031b1c19161760068201555b60c0840151600782015501910151151560ff80198354169116179055546000198101908111610fb15760209585927fdfeb49cb582c0f0f0fcebda8c750cb29d879416a90e90d84de7a9377276a80c192846000526002895260406000205581604051928392833781016000815203902092846040519160408352816040840152606083013760006060868301015242878201526060813396601f80199101168101030190a460016000805160206118bc83398151915255604051908152f35b634e487b7160e01b600052601160045260246000fd5b015190508c80610eda565b906006840160005260206000209160005b601f198516811061102f57509260e0949260019260089583601f19811610611016575b505050811b016006820155610ef2565b015160001960f88460031b161c191690558c8080611006565b91926020600181928685015181550194019201610fe3565b600684016000526020600020601f840160051c810160208510611087575b601f830160051c8201811061107b575050610eba565b60008155600101611065565b5080611065565b015190508a80610e30565b9250600184016000526020600020906000935b601f19841685106110f0576001945083601f198116106110d7575b505050811b016001820155610e48565b015160001960f88460031b161c191690558a80806110c7565b818101518355602094850194600190930192909101906110ac565b909150600184016000526020600020601f840160051c810160208510611157575b90849392915b601f830160051c82018110611148575050610e19565b60008155859450600101611132565b508061112c565b634e487b7160e01b600052600060045260246000fd5b610db1600091610d5f565b604051636e6db68160e11b8152600490fd5b604051630a698e8560e31b8152600490fd5b6040516374924b8b60e01b8152600490fd5b90506020813d6020116111e8575b816111d0602093836112f1565b8101031261023c5751801515810361023c5787610cc9565b3d91506111c3565b6040513d6000823e3d90fd5b604051633ee5aeb560e01b8152600490fd5b3461023c57602036600319011261023c576004359063ffffffff60e01b821680920361023c57602091637965db0b60e01b8114908115611250575b5015158152f35b6301ffc9a760e01b14905083611249565b9181601f8401121561023c578235916001600160401b03831161023c576020838186019501011161023c57565b602435906001600160a01b038216820361023c57565b600435906001600160a01b038216820361023c57565b604081019081106001600160401b0382111761050c57604052565b61010081019081106001600160401b0382111761050c57604052565b90601f801991011681019081106001600160401b0382111761050c57604052565b6001600160401b03811161050c57601f01601f191660200190565b92919261133982611312565b9161134760405193846112f1565b82948184528183011161023c578281602093846000960137010152565b919082519283825260005b848110611390575050826000602080949584010152601f8019910116010190565b60208183018101518483018201520161136f565b80548210156113c0576000526009602060002091020190600090565b634e487b7160e01b600052603260045260246000fd5b90600182811c92168015611406575b60208310146113f057565b634e487b7160e01b600052602260045260246000fd5b91607f16916113e5565b90604051918260008254611423816113d6565b908184526020946001916001811690816000146114935750600114611454575b505050611452925003836112f1565b565b600090815285812095935091905b81831061147b5750506114529350820101388080611443565b85548884018501529485019487945091830191611462565b9250505061145294925060ff191682840152151560051b820101388080611443565b60ff60008051602061189c83398151915254166114ce57565b60405163d93c066560e01b8152600490fd5b3360009081527fb7db2dd08fcb62d0c9e08c51941cae53c267786a0b75803fb7960902fc8ef97d602052604081205460ff161561151a5750565b6044906040519063e2517d3f60e01b82523360048301526024820152fd5b8060005260008051602061187c83398151915260205260406000203360005260205260ff604060002054161561151a5750565b6001600160a01b031660008181527fb7db2dd08fcb62d0c9e08c51941cae53c267786a0b75803fb7960902fc8ef97d602052604081205490919060008051602061187c8339815191529060ff16611606578280526020526040822081835260205260408220600160ff1982541617905533917f2f8788117e7eff1d82e926ec794901d17c78024a50270940304540a733656f0d8180a4600190565b505090565b6001600160a01b031660008181527fe45607abfef3d9cf5e943a575beae878b8ebd6d89ed911d543232b99ef6bc2dd60205260408120549091907f65cb1d8422cdf0328f26b49e42e9f4524474c431da623cbe0ea455f1b67c9f779060008051602061187c8339815191529060ff166116c7578184526020526040832082845260205260408320600160ff198254161790557f2f8788117e7eff1d82e926ec794901d17c78024a50270940304540a733656f0d339380a4600190565b50505090565b9060009180835260008051602061187c83398151915280602052604084209260018060a01b03169283855260205260ff604085205416156000146116c7578184526020526040832082845260205260408320600160ff198254161790557f2f8788117e7eff1d82e926ec794901d17c78024a50270940304540a733656f0d339380a4600190565b9060009180835260008051602061187c83398151915280602052604084209260018060a01b03169283855260205260ff6040852054166000146116c757818452602052604083208284526020526040832060ff1981541690557ff6391f5c32d9c69d2a47ea670b442974b53935d1edc7fd64eb21e047a839171b339380a4600190565b60ff7ff0c57e16840df040f15088dc2f81fe391c3923bec73e23a9662efc9c229c6a005460401c161561180657565b604051631afcd79f60e31b8152600490fd5b9061183f575080511561182d57602081519101fd5b60405163d6bda27560e01b8152600490fd5b81511580611872575b611850575090565b604051639996b31560e01b81526001600160a01b039091166004820152602490fd5b50803b1561184856fe02dd7bc7dec4dceedda775e58dd541e08a116c6c53815c0bd028192f7b626800cd5ed15c6e187e77e9aee88184c21f4f2182ab5827cb3b7e07fbedcd63f033009b779b17422d0df92223018b32b4d1fa46e071723d6817e2486d003becc55f00a264697066735822122092b9426e12d803b2412639050abb2cbde93def821a794d1d9556911c405f5e1e64736f6c63430008180033","opcodes":"PUSH1 0xA0 DUP1 PUSH1 0x40 MSTORE CALLVALUE PUSH2 0xCC JUMPI ADDRESS PUSH1 0x80 MSTORE PUSH32 0xF0C57E16840DF040F15088DC2F81FE391C3923BEC73E23A9662EFC9C229C6A00 SWAP1 DUP2 SLOAD SWAP1 PUSH1 0xFF DUP3 PUSH1 0x40 SHR AND PUSH2 0xBD JUMPI POP PUSH1 0x1 PUSH1 0x1 PUSH1 0x40 SHL SUB PUSH1 0x2 PUSH1 0x1 PUSH1 0x40 SHL SUB NOT DUP3 DUP3 AND ADD PUSH2 0x78 JUMPI JUMPDEST PUSH1 0x40 MLOAD PUSH2 0x1911 SWAP1 DUP2 PUSH2 0xD2 DUP3 CODECOPY PUSH1 0x80 MLOAD DUP2 DUP2 DUP2 PUSH2 0x67D ADD MSTORE PUSH2 0x736 ADD MSTORE RETURN JUMPDEST PUSH1 0x1 PUSH1 0x1 PUSH1 0x40 SHL SUB NOT SWAP1 SWAP2 AND DUP2 OR SWAP1 SWAP2 SSTORE PUSH1 0x40 MLOAD SWAP1 DUP2 MSTORE PUSH32 0xC7F505B2F371AE2175EE4913F4499E1F2633A7B5936321EED1CDAEB6115181D2 SWAP1 PUSH1 0x20 SWAP1 LOG1 CODESIZE DUP1 DUP1 PUSH2 0x59 JUMP JUMPDEST PUSH4 0xF92EE8A9 PUSH1 0xE0 SHL DUP2 MSTORE PUSH1 0x4 SWAP1 REVERT JUMPDEST PUSH1 0x0 DUP1 REVERT INVALID PUSH1 0x80 DUP1 PUSH1 0x40 MSTORE PUSH1 0x4 CALLDATASIZE LT ISZERO PUSH2 0x13 JUMPI PUSH1 0x0 DUP1 REVERT JUMPDEST PUSH1 0xE0 PUSH1 0x0 CALLDATALOAD PUSH1 0xE0 SHR SWAP2 DUP3 PUSH4 0x1FFC9A7 EQ PUSH2 0x120E JUMPI POP DUP2 PUSH4 0x923BB14 EQ PUSH2 0xBE9 JUMPI DUP2 PUSH4 0x248A9CA3 EQ PUSH2 0xBAD JUMPI DUP2 PUSH4 0x2F2FF15D EQ PUSH2 0xB61 JUMPI DUP2 PUSH4 0x36568ABE EQ PUSH2 0xB1A JUMPI DUP2 PUSH4 0x3F4BA83A EQ PUSH2 0xAA3 JUMPI DUP2 PUSH4 0x485CC955 EQ PUSH2 0x915 JUMPI DUP2 PUSH4 0x4F1EF286 EQ PUSH2 0x6E7 JUMPI DUP2 PUSH4 0x52D1902D EQ PUSH2 0x66A JUMPI DUP2 PUSH4 0x5C975ABB EQ PUSH2 0x63A JUMPI DUP2 PUSH4 0x69D0B517 EQ PUSH2 0x5FF JUMPI DUP2 PUSH4 0x8456CB59 EQ PUSH2 0x598 JUMPI DUP2 PUSH4 0x91D14854 EQ PUSH2 0x53E JUMPI DUP2 PUSH4 0xA217FDDF EQ PUSH2 0x522 JUMPI DUP2 PUSH4 0xA252D8A7 EQ PUSH2 0x302 JUMPI POP DUP1 PUSH4 0xAD3CB1CC EQ PUSH2 0x2B8 JUMPI DUP1 PUSH4 0xD547741F EQ PUSH2 0x26A JUMPI DUP1 PUSH4 0xD640A799 EQ PUSH2 0x241 JUMPI PUSH4 0xEA4714C4 EQ PUSH2 0xF3 JUMPI PUSH1 0x0 DUP1 REVERT JUMPDEST CALLVALUE PUSH2 0x23C JUMPI PUSH1 0x40 CALLDATASIZE PUSH1 0x3 NOT ADD SLT PUSH2 0x23C JUMPI PUSH1 0x4 CALLDATALOAD PUSH1 0x24 CALLDATALOAD PUSH1 0x1 PUSH1 0x1 PUSH1 0x40 SHL SUB DUP2 GT PUSH2 0x23C JUMPI PUSH2 0x126 SWAP1 CALLDATASIZE SWAP1 PUSH1 0x4 ADD PUSH2 0x1261 JUMP JUMPDEST CALLER PUSH1 0x0 SWAP1 DUP2 MSTORE PUSH32 0xE45607ABFEF3D9CF5E943A575BEAE878B8EBD6D89ED911D543232B99EF6BC2DD PUSH1 0x20 MSTORE PUSH1 0x40 SWAP1 KECCAK256 SLOAD PUSH32 0x65CB1D8422CDF0328F26B49E42E9F4524474C431DA623CBE0EA455F1B67C9F77 SWAP4 SWAP3 SWAP2 SWAP1 PUSH1 0xFF AND ISZERO PUSH2 0x21D JUMPI SWAP1 PUSH2 0x1B1 SWAP2 DUP4 PUSH1 0x0 MSTORE PUSH1 0x2 PUSH1 0x20 MSTORE PUSH1 0x20 PUSH1 0x40 PUSH1 0x0 KECCAK256 SLOAD SWAP3 DUP3 PUSH1 0x40 MLOAD SWAP4 DUP5 SWAP3 DUP4 CALLDATACOPY DUP2 ADD PUSH1 0x1 DUP2 MSTORE SUB ADD SWAP1 KECCAK256 PUSH2 0x13A4 JUMP JUMPDEST POP DUP2 DUP2 SLOAD SUB PUSH2 0x20B JUMPI PUSH1 0x8 ADD DUP1 SLOAD PUSH1 0xFF DUP2 AND PUSH2 0x1F9 JUMPI PUSH1 0xFF NOT AND PUSH1 0x1 OR SWAP1 SSTORE CALLER SWAP1 PUSH32 0xB5687D81B3CF7356C5E42A698C19D95FB939891CC41A87E21252D5FEEFD0201B PUSH1 0x0 DUP1 LOG3 STOP JUMPDEST PUSH1 0x40 MLOAD PUSH4 0x3B43ED83 PUSH1 0xE1 SHL DUP2 MSTORE PUSH1 0x4 SWAP1 REVERT JUMPDEST PUSH1 0x40 MLOAD PUSH4 0x5ADD5543 PUSH1 0xE0 SHL DUP2 MSTORE PUSH1 0x4 SWAP1 REVERT JUMPDEST PUSH1 0x40 MLOAD PUSH4 0xE2517D3F PUSH1 0xE0 SHL DUP2 MSTORE CALLER PUSH1 0x4 DUP3 ADD MSTORE PUSH1 0x24 DUP2 ADD DUP6 SWAP1 MSTORE PUSH1 0x44 SWAP1 REVERT JUMPDEST PUSH1 0x0 DUP1 REVERT JUMPDEST CALLVALUE PUSH2 0x23C JUMPI PUSH1 0x0 CALLDATASIZE PUSH1 0x3 NOT ADD SLT PUSH2 0x23C JUMPI PUSH1 0x0 SLOAD PUSH1 0x40 MLOAD PUSH1 0x1 PUSH1 0x1 PUSH1 0xA0 SHL SUB SWAP1 SWAP2 AND DUP2 MSTORE PUSH1 0x20 SWAP1 RETURN JUMPDEST CALLVALUE PUSH2 0x23C JUMPI PUSH1 0x40 CALLDATASIZE PUSH1 0x3 NOT ADD SLT PUSH2 0x23C JUMPI PUSH2 0x2B6 PUSH1 0x4 CALLDATALOAD PUSH2 0x289 PUSH2 0x128E JUMP JUMPDEST SWAP1 DUP1 PUSH1 0x0 MSTORE PUSH1 0x0 DUP1 MLOAD PUSH1 0x20 PUSH2 0x187C DUP4 CODECOPY DUP2 MLOAD SWAP2 MSTORE PUSH1 0x20 MSTORE PUSH2 0x2B1 PUSH1 0x1 PUSH1 0x40 PUSH1 0x0 KECCAK256 ADD SLOAD PUSH2 0x1538 JUMP JUMPDEST PUSH2 0x1754 JUMP JUMPDEST STOP JUMPDEST CALLVALUE PUSH2 0x23C JUMPI PUSH1 0x0 CALLDATASIZE PUSH1 0x3 NOT ADD SLT PUSH2 0x23C JUMPI PUSH2 0x2FE PUSH1 0x40 MLOAD PUSH2 0x2D8 DUP2 PUSH2 0x12BA JUMP JUMPDEST PUSH1 0x5 DUP2 MSTORE PUSH5 0x352E302E3 PUSH1 0xDC SHL PUSH1 0x20 DUP3 ADD MSTORE PUSH1 0x40 MLOAD SWAP2 DUP3 SWAP2 PUSH1 0x20 DUP4 MSTORE PUSH1 0x20 DUP4 ADD SWAP1 PUSH2 0x1364 JUMP JUMPDEST SUB SWAP1 RETURN JUMPDEST CALLVALUE PUSH2 0x23C JUMPI PUSH1 0x20 DUP1 PUSH1 0x3 NOT CALLDATASIZE ADD SLT PUSH2 0x23C JUMPI PUSH1 0x1 PUSH1 0x1 PUSH1 0x40 SHL SUB PUSH1 0x4 CALLDATALOAD DUP2 DUP2 GT PUSH2 0x23C JUMPI PUSH2 0x334 SWAP1 CALLDATASIZE SWAP1 PUSH1 0x4 ADD PUSH2 0x1261 JUMP JUMPDEST PUSH1 0x40 MLOAD SWAP3 SWAP2 DUP2 SWAP1 DUP5 CALLDATACOPY DUP3 ADD SWAP2 DUP4 DUP2 PUSH1 0x1 SWAP5 PUSH1 0x1 DUP2 MSTORE SUB ADD SWAP1 KECCAK256 SWAP3 DUP4 SLOAD SWAP2 DUP3 GT PUSH2 0x50C JUMPI DUP4 DUP6 DUP5 PUSH1 0x5 SWAP5 PUSH1 0x40 MLOAD SWAP6 PUSH2 0x370 DUP7 DUP4 PUSH1 0x5 SHL ADD DUP9 PUSH2 0x12F1 JUMP JUMPDEST DUP2 DUP8 MSTORE PUSH1 0x0 SWAP5 DUP6 MSTORE DUP6 DUP6 KECCAK256 DUP7 DUP9 ADD SWAP6 SWAP2 DUP7 JUMPDEST DUP5 DUP5 LT PUSH2 0x464 JUMPI POP POP POP POP POP PUSH1 0x40 MLOAD SWAP5 DUP5 DUP7 SWAP6 DUP7 ADD SWAP2 DUP2 DUP8 MSTORE MLOAD DUP1 SWAP3 MSTORE PUSH1 0x40 DUP7 ADD SWAP4 PUSH1 0x40 DUP4 PUSH1 0x5 SHL DUP9 ADD ADD SWAP6 SWAP5 PUSH1 0x0 SWAP2 JUMPDEST DUP5 DUP4 LT PUSH2 0x3C0 JUMPI DUP9 DUP9 SUB DUP10 RETURN JUMPDEST SWAP2 SWAP4 SWAP6 SWAP8 POP SWAP2 SWAP4 DUP5 DUP1 DUP3 SWAP9 PUSH1 0x3F NOT DUP13 DUP3 SUB ADD DUP7 MSTORE DUP11 MLOAD SWAP1 PUSH2 0x100 DUP7 PUSH2 0x3F7 PUSH2 0x120 DUP6 MLOAD DUP6 MSTORE DUP7 DUP7 ADD MLOAD SWAP1 DUP1 DUP9 DUP8 ADD MSTORE DUP6 ADD SWAP1 PUSH2 0x1364 JUMP JUMPDEST SWAP4 PUSH1 0x1 DUP1 PUSH1 0xA0 SHL SUB PUSH1 0x40 DUP3 ADD MLOAD AND PUSH1 0x40 DUP6 ADD MSTORE PUSH1 0x60 DUP1 DUP3 ADD MLOAD SWAP1 DUP6 ADD MSTORE PUSH2 0x441 DUP7 PUSH1 0x80 DUP1 DUP5 ADD MLOAD SWAP1 DUP2 MLOAD SWAP1 DUP9 ADD MSTORE ADD MLOAD PUSH1 0xA0 SWAP1 DUP2 DUP8 ADD MSTORE DUP3 ADD MLOAD SWAP6 PUSH1 0xC0 SWAP7 DUP7 DUP3 SUB DUP9 DUP9 ADD MSTORE PUSH2 0x1364 JUMP JUMPDEST SWAP5 DUP2 ADD MLOAD DUP3 DUP6 ADD MSTORE ADD MLOAD ISZERO ISZERO SWAP2 ADD MSTORE SWAP10 ADD SWAP4 ADD SWAP4 ADD SWAP1 SWAP3 DUP9 SWAP8 SWAP7 SWAP5 SWAP3 SWAP6 SWAP4 PUSH2 0x3B3 JUMP JUMPDEST SWAP5 PUSH1 0x9 DUP10 DUP3 SWAP10 SWAP11 SWAP8 PUSH1 0x40 SWAP13 SWAP10 SWAP13 MLOAD PUSH2 0x47B DUP2 PUSH2 0x12D5 JUMP JUMPDEST DUP7 SLOAD DUP2 MSTORE PUSH2 0x48A DUP6 DUP9 ADD PUSH2 0x1410 JUMP JUMPDEST DUP2 DUP5 ADD MSTORE PUSH1 0x2 DUP8 ADD SLOAD PUSH1 0x1 PUSH1 0x1 PUSH1 0xA0 SHL SUB AND PUSH1 0x40 DUP1 DUP4 ADD SWAP2 SWAP1 SWAP2 MSTORE PUSH1 0x3 DUP9 ADD SLOAD PUSH1 0x60 DUP4 ADD MSTORE MLOAD PUSH2 0x4B9 DUP2 PUSH2 0x12BA JUMP JUMPDEST PUSH1 0x4 DUP9 ADD SLOAD DUP2 MSTORE DUP7 DUP9 ADD SLOAD DUP5 DUP3 ADD MSTORE PUSH1 0x80 DUP3 ADD MSTORE PUSH2 0x4D9 PUSH1 0x6 DUP9 ADD PUSH2 0x1410 JUMP JUMPDEST PUSH1 0xA0 DUP3 ADD MSTORE PUSH1 0x7 DUP8 ADD SLOAD PUSH1 0xC0 DUP3 ADD MSTORE DUP14 PUSH1 0xFF PUSH1 0x8 DUP10 ADD SLOAD AND ISZERO ISZERO SWAP1 DUP3 ADD MSTORE DUP2 MSTORE ADD SWAP4 ADD SWAP4 ADD SWAP3 SWAP2 SWAP9 SWAP6 SWAP9 SWAP8 SWAP7 SWAP5 SWAP8 PUSH2 0x382 JUMP JUMPDEST PUSH4 0x4E487B71 PUSH1 0xE0 SHL PUSH1 0x0 MSTORE PUSH1 0x41 PUSH1 0x4 MSTORE PUSH1 0x24 PUSH1 0x0 REVERT JUMPDEST CALLVALUE PUSH2 0x23C JUMPI PUSH1 0x0 CALLDATASIZE PUSH1 0x3 NOT ADD SLT PUSH2 0x23C JUMPI PUSH1 0x20 PUSH1 0x40 MLOAD PUSH1 0x0 DUP2 MSTORE RETURN JUMPDEST CALLVALUE PUSH2 0x23C JUMPI PUSH1 0x40 CALLDATASIZE PUSH1 0x3 NOT ADD SLT PUSH2 0x23C JUMPI PUSH2 0x557 PUSH2 0x128E JUMP JUMPDEST PUSH1 0x4 CALLDATALOAD PUSH1 0x0 MSTORE PUSH1 0x0 DUP1 MLOAD PUSH1 0x20 PUSH2 0x187C DUP4 CODECOPY DUP2 MLOAD SWAP2 MSTORE PUSH1 0x20 MSTORE PUSH1 0x40 PUSH1 0x0 KECCAK256 SWAP1 PUSH1 0x1 DUP1 PUSH1 0xA0 SHL SUB AND PUSH1 0x0 MSTORE PUSH1 0x20 MSTORE PUSH1 0x20 PUSH1 0xFF PUSH1 0x40 PUSH1 0x0 KECCAK256 SLOAD AND PUSH1 0x40 MLOAD SWAP1 ISZERO ISZERO DUP2 MSTORE RETURN JUMPDEST CALLVALUE PUSH2 0x23C JUMPI PUSH1 0x0 CALLDATASIZE PUSH1 0x3 NOT ADD SLT PUSH2 0x23C JUMPI PUSH2 0x5B1 PUSH2 0x14E0 JUMP JUMPDEST PUSH2 0x5B9 PUSH2 0x14B5 JUMP JUMPDEST PUSH1 0x0 DUP1 MLOAD PUSH1 0x20 PUSH2 0x189C DUP4 CODECOPY DUP2 MLOAD SWAP2 MSTORE PUSH1 0x1 PUSH1 0xFF NOT DUP3 SLOAD AND OR SWAP1 SSTORE PUSH32 0x62E78CEA01BEE320CD4E420270B5EA74000D11B0C9F74754EBDBFC544B05A258 PUSH1 0x20 PUSH1 0x40 MLOAD CALLER DUP2 MSTORE LOG1 STOP JUMPDEST CALLVALUE PUSH2 0x23C JUMPI PUSH1 0x0 CALLDATASIZE PUSH1 0x3 NOT ADD SLT PUSH2 0x23C JUMPI PUSH1 0x20 PUSH1 0x40 MLOAD PUSH32 0x65CB1D8422CDF0328F26B49E42E9F4524474C431DA623CBE0EA455F1B67C9F77 DUP2 MSTORE RETURN JUMPDEST CALLVALUE PUSH2 0x23C JUMPI PUSH1 0x0 CALLDATASIZE PUSH1 0x3 NOT ADD SLT PUSH2 0x23C JUMPI PUSH1 0x20 PUSH1 0xFF PUSH1 0x0 DUP1 MLOAD PUSH1 0x20 PUSH2 0x189C DUP4 CODECOPY DUP2 MLOAD SWAP2 MSTORE SLOAD AND PUSH1 0x40 MLOAD SWAP1 ISZERO ISZERO DUP2 MSTORE RETURN JUMPDEST CALLVALUE PUSH2 0x23C JUMPI PUSH1 0x0 CALLDATASIZE PUSH1 0x3 NOT ADD SLT PUSH2 0x23C JUMPI PUSH32 0x0 PUSH1 0x1 PUSH1 0x1 PUSH1 0xA0 SHL SUB AND ADDRESS SUB PUSH2 0x6D5 JUMPI PUSH1 0x20 PUSH1 0x40 MLOAD PUSH32 0x360894A13BA1A3210667C828492DB98DCA3E2076CC3735A920A3CA505D382BBC DUP2 MSTORE RETURN JUMPDEST PUSH1 0x40 MLOAD PUSH4 0x703E46DD PUSH1 0xE1 SHL DUP2 MSTORE PUSH1 0x4 SWAP1 REVERT JUMPDEST PUSH1 0x40 CALLDATASIZE PUSH1 0x3 NOT ADD SLT PUSH2 0x23C JUMPI PUSH2 0x6FB PUSH2 0x12A4 JUMP JUMPDEST PUSH1 0x24 CALLDATALOAD PUSH1 0x1 PUSH1 0x1 PUSH1 0x40 SHL SUB DUP2 GT PUSH2 0x23C JUMPI CALLDATASIZE PUSH1 0x23 DUP3 ADD SLT ISZERO PUSH2 0x23C JUMPI PUSH2 0x72B SWAP1 CALLDATASIZE SWAP1 PUSH1 0x24 DUP2 PUSH1 0x4 ADD CALLDATALOAD SWAP2 ADD PUSH2 0x132D JUMP JUMPDEST SWAP1 PUSH1 0x1 PUSH1 0x1 PUSH1 0xA0 SHL SUB PUSH32 0x0 DUP2 AND ADDRESS DUP2 EQ SWAP1 DUP2 ISZERO PUSH2 0x8E7 JUMPI JUMPDEST POP PUSH2 0x6D5 JUMPI PUSH2 0x76F PUSH2 0x14E0 JUMP JUMPDEST PUSH1 0x40 MLOAD PUSH4 0x52D1902D PUSH1 0xE0 SHL DUP2 MSTORE SWAP1 DUP3 AND SWAP2 PUSH1 0x20 SWAP2 DUP3 DUP2 PUSH1 0x4 DUP2 DUP8 GAS STATICCALL PUSH1 0x0 SWAP2 DUP2 PUSH2 0x8B8 JUMPI JUMPDEST POP PUSH2 0x7B2 JUMPI PUSH1 0x40 MLOAD PUSH4 0x4C9C8CE3 PUSH1 0xE0 SHL DUP2 MSTORE PUSH1 0x4 DUP2 ADD DUP6 SWAP1 MSTORE PUSH1 0x24 SWAP1 REVERT JUMPDEST SWAP3 DUP5 SWAP4 PUSH32 0x360894A13BA1A3210667C828492DB98DCA3E2076CC3735A920A3CA505D382BBC SWAP1 DUP2 DUP2 SUB PUSH2 0x8A0 JUMPI POP DUP3 EXTCODESIZE ISZERO PUSH2 0x887 JUMPI DUP1 SLOAD PUSH1 0x1 PUSH1 0x1 PUSH1 0xA0 SHL SUB NOT AND DUP3 OR SWAP1 SSTORE PUSH1 0x40 MLOAD SWAP1 PUSH32 0xBC7CD75A20EE27FD9ADEBAB32041F755214DBC6BFFA90CC0225B39DA2E5C2D3B PUSH1 0x0 DUP1 LOG2 DUP4 MLOAD ISZERO PUSH2 0x86D JUMPI POP PUSH1 0x0 DUP1 DUP5 DUP5 PUSH2 0x2B6 SWAP7 MLOAD SWAP2 ADD DUP5 GAS DELEGATECALL SWAP1 RETURNDATASIZE ISZERO PUSH2 0x864 JUMPI RETURNDATASIZE PUSH2 0x847 DUP2 PUSH2 0x1312 JUMP JUMPDEST SWAP1 PUSH2 0x855 PUSH1 0x40 MLOAD SWAP3 DUP4 PUSH2 0x12F1 JUMP JUMPDEST DUP2 MSTORE PUSH1 0x0 DUP2 SWAP5 RETURNDATASIZE SWAP3 ADD RETURNDATACOPY PUSH2 0x1818 JUMP JUMPDEST PUSH1 0x60 SWAP3 POP PUSH2 0x1818 JUMP JUMPDEST SWAP3 POP POP POP CALLVALUE PUSH2 0x878 JUMPI STOP JUMPDEST PUSH4 0xB398979F PUSH1 0xE0 SHL DUP2 MSTORE PUSH1 0x4 SWAP1 REVERT JUMPDEST PUSH1 0x40 MLOAD PUSH4 0x4C9C8CE3 PUSH1 0xE0 SHL DUP2 MSTORE PUSH1 0x4 DUP2 ADD DUP4 SWAP1 MSTORE PUSH1 0x24 SWAP1 REVERT JUMPDEST PUSH1 0x24 SWAP1 PUSH1 0x40 MLOAD SWAP1 PUSH4 0x2A875269 PUSH1 0xE2 SHL DUP3 MSTORE PUSH1 0x4 DUP3 ADD MSTORE REVERT JUMPDEST SWAP1 SWAP2 POP DUP4 DUP2 DUP2 RETURNDATASIZE DUP4 GT PUSH2 0x8E0 JUMPI JUMPDEST PUSH2 0x8D0 DUP2 DUP4 PUSH2 0x12F1 JUMP JUMPDEST DUP2 ADD SUB SLT PUSH2 0x23C JUMPI MLOAD SWAP1 DUP7 PUSH2 0x794 JUMP JUMPDEST POP RETURNDATASIZE PUSH2 0x8C6 JUMP JUMPDEST SWAP1 POP DUP2 PUSH32 0x360894A13BA1A3210667C828492DB98DCA3E2076CC3735A920A3CA505D382BBC SLOAD AND EQ ISZERO DUP5 PUSH2 0x762 JUMP JUMPDEST CALLVALUE PUSH2 0x23C JUMPI PUSH1 0x40 CALLDATASIZE PUSH1 0x3 NOT ADD SLT PUSH2 0x23C JUMPI PUSH2 0x92E PUSH2 0x12A4 JUMP JUMPDEST PUSH2 0x936 PUSH2 0x128E JUMP JUMPDEST SWAP1 PUSH32 0xF0C57E16840DF040F15088DC2F81FE391C3923BEC73E23A9662EFC9C229C6A00 SWAP2 DUP3 SLOAD PUSH1 0xFF DUP2 PUSH1 0x40 SHR AND ISZERO SWAP3 PUSH1 0x1 PUSH1 0x1 PUSH1 0x40 SHL SUB DUP3 AND DUP1 ISZERO SWAP1 DUP2 PUSH2 0xA9B JUMPI JUMPDEST PUSH1 0x1 EQ SWAP1 DUP2 PUSH2 0xA91 JUMPI JUMPDEST ISZERO SWAP1 DUP2 PUSH2 0xA88 JUMPI JUMPDEST POP PUSH2 0xA76 JUMPI PUSH8 0xFFFFFFFFFFFFFFFF NOT DUP3 AND PUSH1 0x1 OR DUP6 SSTORE PUSH2 0x9F3 SWAP2 DUP5 PUSH2 0xA57 JUMPI JUMPDEST POP PUSH2 0x9B2 PUSH2 0x17D7 JUMP JUMPDEST PUSH2 0x9BA PUSH2 0x17D7 JUMP JUMPDEST PUSH2 0x9C2 PUSH2 0x17D7 JUMP JUMPDEST PUSH2 0x9CA PUSH2 0x17D7 JUMP JUMPDEST PUSH1 0x1 PUSH1 0x0 DUP1 MLOAD PUSH1 0x20 PUSH2 0x18BC DUP4 CODECOPY DUP2 MLOAD SWAP2 MSTORE SSTORE PUSH2 0x9E4 PUSH2 0x17D7 JUMP JUMPDEST PUSH2 0x9ED DUP2 PUSH2 0x156B JUMP JUMPDEST POP PUSH2 0x160B JUMP JUMPDEST POP PUSH1 0x1 DUP1 PUSH1 0xA0 SHL SUB AND PUSH12 0xFFFFFFFFFFFFFFFFFFFFFFFF PUSH1 0xA0 SHL PUSH1 0x0 SLOAD AND OR PUSH1 0x0 SSTORE PUSH2 0xA1A JUMPI STOP JUMPDEST PUSH9 0xFF0000000000000000 NOT DUP2 SLOAD AND SWAP1 SSTORE PUSH32 0xC7F505B2F371AE2175EE4913F4499E1F2633A7B5936321EED1CDAEB6115181D2 PUSH1 0x20 PUSH1 0x40 MLOAD PUSH1 0x1 DUP2 MSTORE LOG1 STOP JUMPDEST PUSH9 0xFFFFFFFFFFFFFFFFFF NOT AND PUSH9 0x10000000000000001 OR DUP6 SSTORE DUP6 PUSH2 0x9A9 JUMP JUMPDEST PUSH1 0x40 MLOAD PUSH4 0xF92EE8A9 PUSH1 0xE0 SHL DUP2 MSTORE PUSH1 0x4 SWAP1 REVERT JUMPDEST SWAP1 POP ISZERO DUP7 PUSH2 0x989 JUMP JUMPDEST ADDRESS EXTCODESIZE ISZERO SWAP2 POP PUSH2 0x981 JUMP JUMPDEST DUP6 SWAP2 POP PUSH2 0x977 JUMP JUMPDEST CALLVALUE PUSH2 0x23C JUMPI PUSH1 0x0 CALLDATASIZE PUSH1 0x3 NOT ADD SLT PUSH2 0x23C JUMPI PUSH2 0xABC PUSH2 0x14E0 JUMP JUMPDEST PUSH1 0x0 DUP1 MLOAD PUSH1 0x20 PUSH2 0x189C DUP4 CODECOPY DUP2 MLOAD SWAP2 MSTORE DUP1 SLOAD PUSH1 0xFF DUP2 AND ISZERO PUSH2 0xB08 JUMPI PUSH1 0xFF NOT AND SWAP1 SSTORE PUSH32 0x5DB9EE0A495BF2E6FF9C91A7834C1BA4FDD244A5E8AA4E537BD38AEAE4B073AA PUSH1 0x20 PUSH1 0x40 MLOAD CALLER DUP2 MSTORE LOG1 STOP JUMPDEST PUSH1 0x40 MLOAD PUSH4 0x8DFC202B PUSH1 0xE0 SHL DUP2 MSTORE PUSH1 0x4 SWAP1 REVERT JUMPDEST CALLVALUE PUSH2 0x23C JUMPI PUSH1 0x40 CALLDATASIZE PUSH1 0x3 NOT ADD SLT PUSH2 0x23C JUMPI PUSH2 0xB33 PUSH2 0x128E JUMP JUMPDEST CALLER PUSH1 0x1 PUSH1 0x1 PUSH1 0xA0 SHL SUB DUP3 AND SUB PUSH2 0xB4F JUMPI PUSH2 0x2B6 SWAP1 PUSH1 0x4 CALLDATALOAD PUSH2 0x1754 JUMP JUMPDEST PUSH1 0x40 MLOAD PUSH4 0x334BD919 PUSH1 0xE1 SHL DUP2 MSTORE PUSH1 0x4 SWAP1 REVERT JUMPDEST CALLVALUE PUSH2 0x23C JUMPI PUSH1 0x40 CALLDATASIZE PUSH1 0x3 NOT ADD SLT PUSH2 0x23C JUMPI PUSH2 0x2B6 PUSH1 0x4 CALLDATALOAD PUSH2 0xB80 PUSH2 0x128E JUMP JUMPDEST SWAP1 DUP1 PUSH1 0x0 MSTORE PUSH1 0x0 DUP1 MLOAD PUSH1 0x20 PUSH2 0x187C DUP4 CODECOPY DUP2 MLOAD SWAP2 MSTORE PUSH1 0x20 MSTORE PUSH2 0xBA8 PUSH1 0x1 PUSH1 0x40 PUSH1 0x0 KECCAK256 ADD SLOAD PUSH2 0x1538 JUMP JUMPDEST PUSH2 0x16CD JUMP JUMPDEST CALLVALUE PUSH2 0x23C JUMPI PUSH1 0x20 CALLDATASIZE PUSH1 0x3 NOT ADD SLT PUSH2 0x23C JUMPI PUSH1 0x4 CALLDATALOAD PUSH1 0x0 MSTORE PUSH1 0x0 DUP1 MLOAD PUSH1 0x20 PUSH2 0x187C DUP4 CODECOPY DUP2 MLOAD SWAP2 MSTORE PUSH1 0x20 MSTORE PUSH1 0x20 PUSH1 0x1 PUSH1 0x40 PUSH1 0x0 KECCAK256 ADD SLOAD PUSH1 0x40 MLOAD SWAP1 DUP2 MSTORE RETURN JUMPDEST CALLVALUE PUSH2 0x23C JUMPI PUSH1 0xA0 CALLDATASIZE PUSH1 0x3 NOT ADD SLT PUSH2 0x23C JUMPI PUSH1 0x4 CALLDATALOAD PUSH1 0x1 PUSH1 0x1 PUSH1 0x40 SHL SUB DUP2 GT PUSH2 0x23C JUMPI PUSH2 0xC19 SWAP1 CALLDATASIZE SWAP1 PUSH1 0x4 ADD PUSH2 0x1261 JUMP JUMPDEST SWAP1 PUSH1 0x24 CALLDATALOAD PUSH1 0x1 PUSH1 0x1 PUSH1 0x40 SHL SUB DUP2 GT PUSH2 0x23C JUMPI PUSH2 0xC39 SWAP1 CALLDATASIZE SWAP1 PUSH1 0x4 ADD PUSH2 0x1261 JUMP JUMPDEST SWAP3 SWAP1 SWAP2 PUSH1 0x84 CALLDATALOAD PUSH1 0x1 PUSH1 0x1 PUSH1 0x40 SHL SUB DUP2 GT PUSH2 0x23C JUMPI PUSH2 0xC5B SWAP1 CALLDATASIZE SWAP1 PUSH1 0x4 ADD PUSH2 0x1261 JUMP JUMPDEST SWAP4 SWAP1 PUSH2 0xC65 PUSH2 0x14B5 JUMP JUMPDEST PUSH1 0x2 PUSH1 0x0 DUP1 MLOAD PUSH1 0x20 PUSH2 0x18BC DUP4 CODECOPY DUP2 MLOAD SWAP2 MSTORE SLOAD EQ PUSH2 0x11FC JUMPI PUSH1 0x2 PUSH1 0x0 DUP1 MLOAD PUSH1 0x20 PUSH2 0x18BC DUP4 CODECOPY DUP2 MLOAD SWAP2 MSTORE SSTORE PUSH1 0x0 SLOAD PUSH1 0x40 MLOAD PUSH4 0xCADA3D5 PUSH1 0xE3 SHL DUP2 MSTORE CALLER PUSH1 0x4 DUP3 ADD MSTORE SWAP1 PUSH1 0x20 SWAP1 DUP3 SWAP1 PUSH1 0x24 SWAP1 DUP3 SWAP1 PUSH1 0x1 PUSH1 0x1 PUSH1 0xA0 SHL SUB AND GAS STATICCALL SWAP1 DUP2 ISZERO PUSH2 0x11F0 JUMPI PUSH1 0x0 SWAP2 PUSH2 0x11B5 JUMPI JUMPDEST POP ISZERO PUSH2 0x11A3 JUMPI DUP6 ISZERO PUSH2 0x1191 JUMPI DUP5 ISZERO PUSH2 0x117F JUMPI PUSH1 0x40 MLOAD PUSH1 0x20 DUP2 ADD SWAP1 DUP6 DUP6 DUP4 CALLDATACOPY PUSH2 0xD1A PUSH1 0x54 DUP3 DUP11 DUP10 DUP3 ADD DUP2 DUP10 PUSH1 0x20 DUP4 ADD PUSH1 0x0 DUP2 MSTORE CALLDATACOPY ADD CALLER PUSH1 0x60 SHL PUSH1 0x20 DUP3 ADD MSTORE TIMESTAMP PUSH1 0x34 DUP3 ADD MSTORE SUB PUSH1 0x34 DUP2 ADD DUP5 MSTORE ADD DUP3 PUSH2 0x12F1 JUMP JUMPDEST MLOAD SWAP1 KECCAK256 SWAP5 PUSH1 0x40 MLOAD DUP8 DUP5 DUP3 CALLDATACOPY PUSH1 0x1 DUP2 DUP10 ADD SWAP1 DUP2 MSTORE DUP2 SWAP1 SUB PUSH1 0x20 ADD SWAP1 KECCAK256 DUP1 SLOAD SWAP1 SWAP3 DUP2 ISZERO PUSH2 0x1174 JUMPI DUP2 PUSH1 0x0 NOT DUP2 ADD GT PUSH2 0xFB1 JUMPI PUSH2 0xDB1 PUSH2 0xD5B PUSH1 0x0 NOT DUP5 ADD DUP7 PUSH2 0x13A4 JUMP JUMPDEST POP SLOAD SWAP2 JUMPDEST PUSH1 0x40 MLOAD SWAP5 PUSH2 0xD6C DUP7 PUSH2 0x12BA JUMP JUMPDEST PUSH1 0x44 CALLDATALOAD DUP7 MSTORE PUSH1 0x64 CALLDATALOAD PUSH1 0x20 DUP8 ADD MSTORE PUSH1 0x40 MLOAD SWAP6 PUSH2 0xD86 DUP8 PUSH2 0x12D5 JUMP JUMPDEST DUP12 DUP8 MSTORE PUSH2 0xD94 CALLDATASIZE DUP13 DUP13 PUSH2 0x132D JUMP JUMPDEST PUSH1 0x20 DUP9 ADD MSTORE CALLER PUSH1 0x40 DUP9 ADD MSTORE TIMESTAMP PUSH1 0x60 DUP9 ADD MSTORE PUSH1 0x80 DUP8 ADD MSTORE CALLDATASIZE SWAP2 PUSH2 0x132D JUMP JUMPDEST PUSH1 0xA0 DUP5 ADD MSTORE PUSH1 0xC0 DUP4 ADD MSTORE PUSH1 0x0 PUSH1 0xE0 DUP4 ADD MSTORE PUSH9 0x10000000000000000 DUP2 LT ISZERO PUSH2 0x50C JUMPI DUP1 PUSH1 0x1 PUSH2 0xDE3 SWAP3 ADD DUP5 SSTORE DUP4 PUSH2 0x13A4 JUMP JUMPDEST PUSH2 0x115E JUMPI DUP2 MLOAD DUP2 SSTORE PUSH1 0x20 DUP3 ADD MLOAD DUP1 MLOAD SWAP1 PUSH1 0x1 PUSH1 0x1 PUSH1 0x40 SHL SUB DUP3 GT PUSH2 0x50C JUMPI DUP2 SWAP1 PUSH2 0xE10 PUSH1 0x1 DUP6 ADD SLOAD PUSH2 0x13D6 JUMP JUMPDEST PUSH1 0x1F DUP2 GT PUSH2 0x110B JUMPI JUMPDEST POP PUSH1 0x20 SWAP1 PUSH1 0x1F DUP4 GT PUSH1 0x1 EQ PUSH2 0x1099 JUMPI PUSH1 0x0 SWAP3 PUSH2 0x108E JUMPI JUMPDEST POP POP DUP2 PUSH1 0x1 SHL SWAP2 PUSH1 0x0 NOT SWAP1 PUSH1 0x3 SHL SHR NOT AND OR PUSH1 0x1 DUP3 ADD SSTORE JUMPDEST PUSH1 0x2 DUP2 ADD PUSH1 0x1 DUP1 PUSH1 0xA0 SHL SUB PUSH1 0x40 DUP5 ADD MLOAD AND PUSH12 0xFFFFFFFFFFFFFFFFFFFFFFFF PUSH1 0xA0 SHL DUP3 SLOAD AND OR SWAP1 SSTORE PUSH1 0x60 DUP3 ADD MLOAD PUSH1 0x3 DUP3 ADD SSTORE PUSH1 0x20 PUSH1 0x80 DUP4 ADD MLOAD DUP1 MLOAD PUSH1 0x4 DUP5 ADD SSTORE ADD MLOAD PUSH1 0x5 DUP3 ADD SSTORE PUSH1 0xA0 DUP3 ADD MLOAD DUP1 MLOAD SWAP1 PUSH1 0x1 PUSH1 0x1 PUSH1 0x40 SHL SUB DUP3 GT PUSH2 0x50C JUMPI PUSH2 0xEB1 PUSH1 0x6 DUP5 ADD SLOAD PUSH2 0x13D6 JUMP JUMPDEST PUSH1 0x1F DUP2 GT PUSH2 0x1047 JUMPI JUMPDEST POP PUSH1 0x20 SWAP1 PUSH1 0x1F DUP4 GT PUSH1 0x1 EQ PUSH2 0xFD2 JUMPI SWAP2 DUP1 PUSH1 0xE0 SWAP5 SWAP3 PUSH1 0x8 SWAP5 PUSH1 0x0 SWAP3 PUSH2 0xFC7 JUMPI JUMPDEST POP POP DUP2 PUSH1 0x1 SHL SWAP2 PUSH1 0x0 NOT SWAP1 PUSH1 0x3 SHL SHR NOT AND OR PUSH1 0x6 DUP3 ADD SSTORE JUMPDEST PUSH1 0xC0 DUP5 ADD MLOAD PUSH1 0x7 DUP3 ADD SSTORE ADD SWAP2 ADD MLOAD ISZERO ISZERO PUSH1 0xFF DUP1 NOT DUP4 SLOAD AND SWAP2 AND OR SWAP1 SSTORE SLOAD PUSH1 0x0 NOT DUP2 ADD SWAP1 DUP2 GT PUSH2 0xFB1 JUMPI PUSH1 0x20 SWAP6 DUP6 SWAP3 PUSH32 0xDFEB49CB582C0F0F0FCEBDA8C750CB29D879416A90E90D84DE7A9377276A80C1 SWAP3 DUP5 PUSH1 0x0 MSTORE PUSH1 0x2 DUP10 MSTORE PUSH1 0x40 PUSH1 0x0 KECCAK256 SSTORE DUP2 PUSH1 0x40 MLOAD SWAP3 DUP4 SWAP3 DUP4 CALLDATACOPY DUP2 ADD PUSH1 0x0 DUP2 MSTORE SUB SWAP1 KECCAK256 SWAP3 DUP5 PUSH1 0x40 MLOAD SWAP2 PUSH1 0x40 DUP4 MSTORE DUP2 PUSH1 0x40 DUP5 ADD MSTORE PUSH1 0x60 DUP4 ADD CALLDATACOPY PUSH1 0x0 PUSH1 0x60 DUP7 DUP4 ADD ADD MSTORE TIMESTAMP DUP8 DUP3 ADD MSTORE PUSH1 0x60 DUP2 CALLER SWAP7 PUSH1 0x1F DUP1 NOT SWAP2 ADD AND DUP2 ADD SUB ADD SWAP1 LOG4 PUSH1 0x1 PUSH1 0x0 DUP1 MLOAD PUSH1 0x20 PUSH2 0x18BC DUP4 CODECOPY DUP2 MLOAD SWAP2 MSTORE SSTORE PUSH1 0x40 MLOAD SWAP1 DUP2 MSTORE RETURN JUMPDEST PUSH4 0x4E487B71 PUSH1 0xE0 SHL PUSH1 0x0 MSTORE PUSH1 0x11 PUSH1 0x4 MSTORE PUSH1 0x24 PUSH1 0x0 REVERT JUMPDEST ADD MLOAD SWAP1 POP DUP13 DUP1 PUSH2 0xEDA JUMP JUMPDEST SWAP1 PUSH1 0x6 DUP5 ADD PUSH1 0x0 MSTORE PUSH1 0x20 PUSH1 0x0 KECCAK256 SWAP2 PUSH1 0x0 JUMPDEST PUSH1 0x1F NOT DUP6 AND DUP2 LT PUSH2 0x102F JUMPI POP SWAP3 PUSH1 0xE0 SWAP5 SWAP3 PUSH1 0x1 SWAP3 PUSH1 0x8 SWAP6 DUP4 PUSH1 0x1F NOT DUP2 AND LT PUSH2 0x1016 JUMPI JUMPDEST POP POP POP DUP2 SHL ADD PUSH1 0x6 DUP3 ADD SSTORE PUSH2 0xEF2 JUMP JUMPDEST ADD MLOAD PUSH1 0x0 NOT PUSH1 0xF8 DUP5 PUSH1 0x3 SHL AND SHR NOT AND SWAP1 SSTORE DUP13 DUP1 DUP1 PUSH2 0x1006 JUMP JUMPDEST SWAP2 SWAP3 PUSH1 0x20 PUSH1 0x1 DUP2 SWAP3 DUP7 DUP6 ADD MLOAD DUP2 SSTORE ADD SWAP5 ADD SWAP3 ADD PUSH2 0xFE3 JUMP JUMPDEST PUSH1 0x6 DUP5 ADD PUSH1 0x0 MSTORE PUSH1 0x20 PUSH1 0x0 KECCAK256 PUSH1 0x1F DUP5 ADD PUSH1 0x5 SHR DUP2 ADD PUSH1 0x20 DUP6 LT PUSH2 0x1087 JUMPI JUMPDEST PUSH1 0x1F DUP4 ADD PUSH1 0x5 SHR DUP3 ADD DUP2 LT PUSH2 0x107B JUMPI POP POP PUSH2 0xEBA JUMP JUMPDEST PUSH1 0x0 DUP2 SSTORE PUSH1 0x1 ADD PUSH2 0x1065 JUMP JUMPDEST POP DUP1 PUSH2 0x1065 JUMP JUMPDEST ADD MLOAD SWAP1 POP DUP11 DUP1 PUSH2 0xE30 JUMP JUMPDEST SWAP3 POP PUSH1 0x1 DUP5 ADD PUSH1 0x0 MSTORE PUSH1 0x20 PUSH1 0x0 KECCAK256 SWAP1 PUSH1 0x0 SWAP4 JUMPDEST PUSH1 0x1F NOT DUP5 AND DUP6 LT PUSH2 0x10F0 JUMPI PUSH1 0x1 SWAP5 POP DUP4 PUSH1 0x1F NOT DUP2 AND LT PUSH2 0x10D7 JUMPI JUMPDEST POP POP POP DUP2 SHL ADD PUSH1 0x1 DUP3 ADD SSTORE PUSH2 0xE48 JUMP JUMPDEST ADD MLOAD PUSH1 0x0 NOT PUSH1 0xF8 DUP5 PUSH1 0x3 SHL AND SHR NOT AND SWAP1 SSTORE DUP11 DUP1 DUP1 PUSH2 0x10C7 JUMP JUMPDEST DUP2 DUP2 ADD MLOAD DUP4 SSTORE PUSH1 0x20 SWAP5 DUP6 ADD SWAP5 PUSH1 0x1 SWAP1 SWAP4 ADD SWAP3 SWAP1 SWAP2 ADD SWAP1 PUSH2 0x10AC JUMP JUMPDEST SWAP1 SWAP2 POP PUSH1 0x1 DUP5 ADD PUSH1 0x0 MSTORE PUSH1 0x20 PUSH1 0x0 KECCAK256 PUSH1 0x1F DUP5 ADD PUSH1 0x5 SHR DUP2 ADD PUSH1 0x20 DUP6 LT PUSH2 0x1157 JUMPI JUMPDEST SWAP1 DUP5 SWAP4 SWAP3 SWAP2 JUMPDEST PUSH1 0x1F DUP4 ADD PUSH1 0x5 SHR DUP3 ADD DUP2 LT PUSH2 0x1148 JUMPI POP POP PUSH2 0xE19 JUMP JUMPDEST PUSH1 0x0 DUP2 SSTORE DUP6 SWAP5 POP PUSH1 0x1 ADD PUSH2 0x1132 JUMP JUMPDEST POP DUP1 PUSH2 0x112C JUMP JUMPDEST PUSH4 0x4E487B71 PUSH1 0xE0 SHL PUSH1 0x0 MSTORE PUSH1 0x0 PUSH1 0x4 MSTORE PUSH1 0x24 PUSH1 0x0 REVERT JUMPDEST PUSH2 0xDB1 PUSH1 0x0 SWAP2 PUSH2 0xD5F JUMP JUMPDEST PUSH1 0x40 MLOAD PUSH4 0x6E6DB681 PUSH1 0xE1 SHL DUP2 MSTORE PUSH1 0x4 SWAP1 REVERT JUMPDEST PUSH1 0x40 MLOAD PUSH4 0xA698E85 PUSH1 0xE3 SHL DUP2 MSTORE PUSH1 0x4 SWAP1 REVERT JUMPDEST PUSH1 0x40 MLOAD PUSH4 0x74924B8B PUSH1 0xE0 SHL DUP2 MSTORE PUSH1 0x4 SWAP1 REVERT JUMPDEST SWAP1 POP PUSH1 0x20 DUP2 RETURNDATASIZE PUSH1 0x20 GT PUSH2 0x11E8 JUMPI JUMPDEST DUP2 PUSH2 0x11D0 PUSH1 0x20 SWAP4 DUP4 PUSH2 0x12F1 JUMP JUMPDEST DUP2 ADD SUB SLT PUSH2 0x23C JUMPI MLOAD DUP1 ISZERO ISZERO DUP2 SUB PUSH2 0x23C JUMPI DUP8 PUSH2 0xCC9 JUMP JUMPDEST RETURNDATASIZE SWAP2 POP PUSH2 0x11C3 JUMP JUMPDEST PUSH1 0x40 MLOAD RETURNDATASIZE PUSH1 0x0 DUP3 RETURNDATACOPY RETURNDATASIZE SWAP1 REVERT JUMPDEST PUSH1 0x40 MLOAD PUSH4 0x3EE5AEB5 PUSH1 0xE0 SHL DUP2 MSTORE PUSH1 0x4 SWAP1 REVERT JUMPDEST CALLVALUE PUSH2 0x23C JUMPI PUSH1 0x20 CALLDATASIZE PUSH1 0x3 NOT ADD SLT PUSH2 0x23C JUMPI PUSH1 0x4 CALLDATALOAD SWAP1 PUSH4 0xFFFFFFFF PUSH1 0xE0 SHL DUP3 AND DUP1 SWAP3 SUB PUSH2 0x23C JUMPI PUSH1 0x20 SWAP2 PUSH4 0x7965DB0B PUSH1 0xE0 SHL DUP2 EQ SWAP1 DUP2 ISZERO PUSH2 0x1250 JUMPI JUMPDEST POP ISZERO ISZERO DUP2 MSTORE RETURN JUMPDEST PUSH4 0x1FFC9A7 PUSH1 0xE0 SHL EQ SWAP1 POP DUP4 PUSH2 0x1249 JUMP JUMPDEST SWAP2 DUP2 PUSH1 0x1F DUP5 ADD SLT ISZERO PUSH2 0x23C JUMPI DUP3 CALLDATALOAD SWAP2 PUSH1 0x1 PUSH1 0x1 PUSH1 0x40 SHL SUB DUP4 GT PUSH2 0x23C JUMPI PUSH1 0x20 DUP4 DUP2 DUP7 ADD SWAP6 ADD ADD GT PUSH2 0x23C JUMPI JUMP JUMPDEST PUSH1 0x24 CALLDATALOAD SWAP1 PUSH1 0x1 PUSH1 0x1 PUSH1 0xA0 SHL SUB DUP3 AND DUP3 SUB PUSH2 0x23C JUMPI JUMP JUMPDEST PUSH1 0x4 CALLDATALOAD SWAP1 PUSH1 0x1 PUSH1 0x1 PUSH1 0xA0 SHL SUB DUP3 AND DUP3 SUB PUSH2 0x23C JUMPI JUMP JUMPDEST PUSH1 0x40 DUP2 ADD SWAP1 DUP2 LT PUSH1 0x1 PUSH1 0x1 PUSH1 0x40 SHL SUB DUP3 GT OR PUSH2 0x50C JUMPI PUSH1 0x40 MSTORE JUMP JUMPDEST PUSH2 0x100 DUP2 ADD SWAP1 DUP2 LT PUSH1 0x1 PUSH1 0x1 PUSH1 0x40 SHL SUB DUP3 GT OR PUSH2 0x50C JUMPI PUSH1 0x40 MSTORE JUMP JUMPDEST SWAP1 PUSH1 0x1F DUP1 NOT SWAP2 ADD AND DUP2 ADD SWAP1 DUP2 LT PUSH1 0x1 PUSH1 0x1 PUSH1 0x40 SHL SUB DUP3 GT OR PUSH2 0x50C JUMPI PUSH1 0x40 MSTORE JUMP JUMPDEST PUSH1 0x1 PUSH1 0x1 PUSH1 0x40 SHL SUB DUP2 GT PUSH2 0x50C JUMPI PUSH1 0x1F ADD PUSH1 0x1F NOT AND PUSH1 0x20 ADD SWAP1 JUMP JUMPDEST SWAP3 SWAP2 SWAP3 PUSH2 0x1339 DUP3 PUSH2 0x1312 JUMP JUMPDEST SWAP2 PUSH2 0x1347 PUSH1 0x40 MLOAD SWAP4 DUP5 PUSH2 0x12F1 JUMP JUMPDEST DUP3 SWAP5 DUP2 DUP5 MSTORE DUP2 DUP4 ADD GT PUSH2 0x23C JUMPI DUP3 DUP2 PUSH1 0x20 SWAP4 DUP5 PUSH1 0x0 SWAP7 ADD CALLDATACOPY ADD ADD MSTORE JUMP JUMPDEST SWAP2 SWAP1 DUP3 MLOAD SWAP3 DUP4 DUP3 MSTORE PUSH1 0x0 JUMPDEST DUP5 DUP2 LT PUSH2 0x1390 JUMPI POP POP DUP3 PUSH1 0x0 PUSH1 0x20 DUP1 SWAP5 SWAP6 DUP5 ADD ADD MSTORE PUSH1 0x1F DUP1 NOT SWAP2 ADD AND ADD ADD SWAP1 JUMP JUMPDEST PUSH1 0x20 DUP2 DUP4 ADD DUP2 ADD MLOAD DUP5 DUP4 ADD DUP3 ADD MSTORE ADD PUSH2 0x136F JUMP JUMPDEST DUP1 SLOAD DUP3 LT ISZERO PUSH2 0x13C0 JUMPI PUSH1 0x0 MSTORE PUSH1 0x9 PUSH1 0x20 PUSH1 0x0 KECCAK256 SWAP2 MUL ADD SWAP1 PUSH1 0x0 SWAP1 JUMP JUMPDEST PUSH4 0x4E487B71 PUSH1 0xE0 SHL PUSH1 0x0 MSTORE PUSH1 0x32 PUSH1 0x4 MSTORE PUSH1 0x24 PUSH1 0x0 REVERT JUMPDEST SWAP1 PUSH1 0x1 DUP3 DUP2 SHR SWAP3 AND DUP1 ISZERO PUSH2 0x1406 JUMPI JUMPDEST PUSH1 0x20 DUP4 LT EQ PUSH2 0x13F0 JUMPI JUMP JUMPDEST PUSH4 0x4E487B71 PUSH1 0xE0 SHL PUSH1 0x0 MSTORE PUSH1 0x22 PUSH1 0x4 MSTORE PUSH1 0x24 PUSH1 0x0 REVERT JUMPDEST SWAP2 PUSH1 0x7F AND SWAP2 PUSH2 0x13E5 JUMP JUMPDEST SWAP1 PUSH1 0x40 MLOAD SWAP2 DUP3 PUSH1 0x0 DUP3 SLOAD PUSH2 0x1423 DUP2 PUSH2 0x13D6 JUMP JUMPDEST SWAP1 DUP2 DUP5 MSTORE PUSH1 0x20 SWAP5 PUSH1 0x1 SWAP2 PUSH1 0x1 DUP2 AND SWAP1 DUP2 PUSH1 0x0 EQ PUSH2 0x1493 JUMPI POP PUSH1 0x1 EQ PUSH2 0x1454 JUMPI JUMPDEST POP POP POP PUSH2 0x1452 SWAP3 POP SUB DUP4 PUSH2 0x12F1 JUMP JUMPDEST JUMP JUMPDEST PUSH1 0x0 SWAP1 DUP2 MSTORE DUP6 DUP2 KECCAK256 SWAP6 SWAP4 POP SWAP2 SWAP1 JUMPDEST DUP2 DUP4 LT PUSH2 0x147B JUMPI POP POP PUSH2 0x1452 SWAP4 POP DUP3 ADD ADD CODESIZE DUP1 DUP1 PUSH2 0x1443 JUMP JUMPDEST DUP6 SLOAD DUP9 DUP5 ADD DUP6 ADD MSTORE SWAP5 DUP6 ADD SWAP5 DUP8 SWAP5 POP SWAP2 DUP4 ADD SWAP2 PUSH2 0x1462 JUMP JUMPDEST SWAP3 POP POP POP PUSH2 0x1452 SWAP5 SWAP3 POP PUSH1 0xFF NOT AND DUP3 DUP5 ADD MSTORE ISZERO ISZERO PUSH1 0x5 SHL DUP3 ADD ADD CODESIZE DUP1 DUP1 PUSH2 0x1443 JUMP JUMPDEST PUSH1 0xFF PUSH1 0x0 DUP1 MLOAD PUSH1 0x20 PUSH2 0x189C DUP4 CODECOPY DUP2 MLOAD SWAP2 MSTORE SLOAD AND PUSH2 0x14CE JUMPI JUMP JUMPDEST PUSH1 0x40 MLOAD PUSH4 0xD93C0665 PUSH1 0xE0 SHL DUP2 MSTORE PUSH1 0x4 SWAP1 REVERT JUMPDEST CALLER PUSH1 0x0 SWAP1 DUP2 MSTORE PUSH32 0xB7DB2DD08FCB62D0C9E08C51941CAE53C267786A0B75803FB7960902FC8EF97D PUSH1 0x20 MSTORE PUSH1 0x40 DUP2 KECCAK256 SLOAD PUSH1 0xFF AND ISZERO PUSH2 0x151A JUMPI POP JUMP JUMPDEST PUSH1 0x44 SWAP1 PUSH1 0x40 MLOAD SWAP1 PUSH4 0xE2517D3F PUSH1 0xE0 SHL DUP3 MSTORE CALLER PUSH1 0x4 DUP4 ADD MSTORE PUSH1 0x24 DUP3 ADD MSTORE REVERT JUMPDEST DUP1 PUSH1 0x0 MSTORE PUSH1 0x0 DUP1 MLOAD PUSH1 0x20 PUSH2 0x187C DUP4 CODECOPY DUP2 MLOAD SWAP2 MSTORE PUSH1 0x20 MSTORE PUSH1 0x40 PUSH1 0x0 KECCAK256 CALLER PUSH1 0x0 MSTORE PUSH1 0x20 MSTORE PUSH1 0xFF PUSH1 0x40 PUSH1 0x0 KECCAK256 SLOAD AND ISZERO PUSH2 0x151A JUMPI POP JUMP JUMPDEST PUSH1 0x1 PUSH1 0x1 PUSH1 0xA0 SHL SUB AND PUSH1 0x0 DUP2 DUP2 MSTORE PUSH32 0xB7DB2DD08FCB62D0C9E08C51941CAE53C267786A0B75803FB7960902FC8EF97D PUSH1 0x20 MSTORE PUSH1 0x40 DUP2 KECCAK256 SLOAD SWAP1 SWAP2 SWAP1 PUSH1 0x0 DUP1 MLOAD PUSH1 0x20 PUSH2 0x187C DUP4 CODECOPY DUP2 MLOAD SWAP2 MSTORE SWAP1 PUSH1 0xFF AND PUSH2 0x1606 JUMPI DUP3 DUP1 MSTORE PUSH1 0x20 MSTORE PUSH1 0x40 DUP3 KECCAK256 DUP2 DUP4 MSTORE PUSH1 0x20 MSTORE PUSH1 0x40 DUP3 KECCAK256 PUSH1 0x1 PUSH1 0xFF NOT DUP3 SLOAD AND OR SWAP1 SSTORE CALLER SWAP2 PUSH32 0x2F8788117E7EFF1D82E926EC794901D17C78024A50270940304540A733656F0D DUP2 DUP1 LOG4 PUSH1 0x1 SWAP1 JUMP JUMPDEST POP POP SWAP1 JUMP JUMPDEST PUSH1 0x1 PUSH1 0x1 PUSH1 0xA0 SHL SUB AND PUSH1 0x0 DUP2 DUP2 MSTORE PUSH32 0xE45607ABFEF3D9CF5E943A575BEAE878B8EBD6D89ED911D543232B99EF6BC2DD PUSH1 0x20 MSTORE PUSH1 0x40 DUP2 KECCAK256 SLOAD SWAP1 SWAP2 SWAP1 PUSH32 0x65CB1D8422CDF0328F26B49E42E9F4524474C431DA623CBE0EA455F1B67C9F77 SWAP1 PUSH1 0x0 DUP1 MLOAD PUSH1 0x20 PUSH2 0x187C DUP4 CODECOPY DUP2 MLOAD SWAP2 MSTORE SWAP1 PUSH1 0xFF AND PUSH2 0x16C7 JUMPI DUP2 DUP5 MSTORE PUSH1 0x20 MSTORE PUSH1 0x40 DUP4 KECCAK256 DUP3 DUP5 MSTORE PUSH1 0x20 MSTORE PUSH1 0x40 DUP4 KECCAK256 PUSH1 0x1 PUSH1 0xFF NOT DUP3 SLOAD AND OR SWAP1 SSTORE PUSH32 0x2F8788117E7EFF1D82E926EC794901D17C78024A50270940304540A733656F0D CALLER SWAP4 DUP1 LOG4 PUSH1 0x1 SWAP1 JUMP JUMPDEST POP POP POP SWAP1 JUMP JUMPDEST SWAP1 PUSH1 0x0 SWAP2 DUP1 DUP4 MSTORE PUSH1 0x0 DUP1 MLOAD PUSH1 0x20 PUSH2 0x187C DUP4 CODECOPY DUP2 MLOAD SWAP2 MSTORE DUP1 PUSH1 0x20 MSTORE PUSH1 0x40 DUP5 KECCAK256 SWAP3 PUSH1 0x1 DUP1 PUSH1 0xA0 SHL SUB AND SWAP3 DUP4 DUP6 MSTORE PUSH1 0x20 MSTORE PUSH1 0xFF PUSH1 0x40 DUP6 KECCAK256 SLOAD AND ISZERO PUSH1 0x0 EQ PUSH2 0x16C7 JUMPI DUP2 DUP5 MSTORE PUSH1 0x20 MSTORE PUSH1 0x40 DUP4 KECCAK256 DUP3 DUP5 MSTORE PUSH1 0x20 MSTORE PUSH1 0x40 DUP4 KECCAK256 PUSH1 0x1 PUSH1 0xFF NOT DUP3 SLOAD AND OR SWAP1 SSTORE PUSH32 0x2F8788117E7EFF1D82E926EC794901D17C78024A50270940304540A733656F0D CALLER SWAP4 DUP1 LOG4 PUSH1 0x1 SWAP1 JUMP JUMPDEST SWAP1 PUSH1 0x0 SWAP2 DUP1 DUP4 MSTORE PUSH1 0x0 DUP1 MLOAD PUSH1 0x20 PUSH2 0x187C DUP4 CODECOPY DUP2 MLOAD SWAP2 MSTORE DUP1 PUSH1 0x20 MSTORE PUSH1 0x40 DUP5 KECCAK256 SWAP3 PUSH1 0x1 DUP1 PUSH1 0xA0 SHL SUB AND SWAP3 DUP4 DUP6 MSTORE PUSH1 0x20 MSTORE PUSH1 0xFF PUSH1 0x40 DUP6 KECCAK256 SLOAD AND PUSH1 0x0 EQ PUSH2 0x16C7 JUMPI DUP2 DUP5 MSTORE PUSH1 0x20 MSTORE PUSH1 0x40 DUP4 KECCAK256 DUP3 DUP5 MSTORE PUSH1 0x20 MSTORE PUSH1 0x40 DUP4 KECCAK256 PUSH1 0xFF NOT DUP2 SLOAD AND SWAP1 SSTORE PUSH32 0xF6391F5C32D9C69D2A47EA670B442974B53935D1EDC7FD64EB21E047A839171B CALLER SWAP4 DUP1 LOG4 PUSH1 0x1 SWAP1 JUMP JUMPDEST PUSH1 0xFF PUSH32 0xF0C57E16840DF040F15088DC2F81FE391C3923BEC73E23A9662EFC9C229C6A00 SLOAD PUSH1 0x40 SHR AND ISZERO PUSH2 0x1806 JUMPI JUMP JUMPDEST PUSH1 0x40 MLOAD PUSH4 0x1AFCD79F PUSH1 0xE3 SHL DUP2 MSTORE PUSH1 0x4 SWAP1 REVERT JUMPDEST SWAP1 PUSH2 0x183F JUMPI POP DUP1 MLOAD ISZERO PUSH2 0x182D JUMPI PUSH1 0x20 DUP2 MLOAD SWAP2 ADD REVERT JUMPDEST PUSH1 0x40 MLOAD PUSH4 0xD6BDA275 PUSH1 0xE0 SHL DUP2 MSTORE PUSH1 0x4 SWAP1 REVERT JUMPDEST DUP2 MLOAD ISZERO DUP1 PUSH2 0x1872 JUMPI JUMPDEST PUSH2 0x1850 JUMPI POP SWAP1 JUMP JUMPDEST PUSH1 0x40 MLOAD PUSH4 0x9996B315 PUSH1 0xE0 SHL DUP2 MSTORE PUSH1 0x1 PUSH1 0x1 PUSH1 0xA0 SHL SUB SWAP1 SWAP2 AND PUSH1 0x4 DUP3 ADD MSTORE PUSH1 0x24 SWAP1 REVERT JUMPDEST POP DUP1 EXTCODESIZE ISZERO PUSH2 0x1848 JUMP INVALID MUL 0xDD PUSH28 0xC7DEC4DCEEDDA775E58DD541E08A116C6C53815C0BD028192F7B6268 STOP 0xCD MCOPY 0xD1 TLOAD PUSH15 0x187E77E9AEE88184C21F4F2182AB58 0x27 0xCB EXTCODESIZE PUSH31 0x7FBEDCD63F033009B779B17422D0DF92223018B32B4D1FA46E071723D6817 0xE2 BASEFEE PUSH14 0x3BECC55F00A264697066735822 SLT KECCAK256 SWAP3 0xB9 TIMESTAMP PUSH15 0x12D803B2412639050ABB2CBDE93DEF DUP3 BYTE PUSH26 0x4D1D9556911C405F5E1E64736F6C634300081800330000000000 "},"methodIdentifiers":{"CERTIFIER_ROLE()":"69d0b517","DEFAULT_ADMIN_ROLE()":"a217fddf","UPGRADE_INTERFACE_VERSION()":"ad3cb1cc","getBatchHistory(string)":"a252d8a7","getRoleAdmin(bytes32)":"248a9ca3","grantRole(bytes32,address)":"2f2ff15d","hasRole(bytes32,address)":"91d14854","initialize(address,address)":"485cc955","pause()":"8456cb59","paused()":"5c975abb","producerCertificationContract()":"d640a799","proxiableUUID()":"52d1902d","registerEvent(string,string,int256,int256,string)":"0923bb14","renounceRole(bytes32,address)":"36568abe","revokeRole(bytes32,address)":"d547741f","supportsInterface(bytes4)":"01ffc9a7","unpause()":"3f4ba83a","upgradeToAndCall(address,bytes)":"4f1ef286","verifyEvent(bytes32,string)":"ea4714c4"}},"storageLayout":{"storage":[{"astId":9732,"contract":"contracts/TraceabilityRegistry.sol:TraceabilityRegistry","label":"producerCertificationContract","offset":0,"slot":"0","type":"t_contract(IProducerCertification)10063"},{"astId":9738,"contract":"contracts/TraceabilityRegistry.sol:TraceabilityRegistry","label":"batchEvents","offset":0,"slot":"1","type":"t_mapping(t_string_memory_ptr,t_array(t_struct(CriticalTrackingEvent)9729_storage)dyn_storage)"},{"astId":9742,"contract":"contracts/TraceabilityRegistry.sol:TraceabilityRegistry","label":"eventIndex","offset":0,"slot":"2","type":"t_mapping(t_bytes32,t_uint256)"}],"types":{"t_address":{"encoding":"inplace","label":"address","numberOfBytes":"20"},"t_array(t_struct(CriticalTrackingEvent)9729_storage)dyn_storage":{"base":"t_struct(CriticalTrackingEvent)9729_storage","encoding":"dynamic_array","label":"struct TraceabilityRegistry.CriticalTrackingEvent[]","numberOfBytes":"32"},"t_bool":{"encoding":"inplace","label":"bool","numberOfBytes":"1"},"t_bytes32":{"encoding":"inplace","label":"bytes32","numberOfBytes":"32"},"t_contract(IProducerCertification)10063":{"encoding":"inplace","label":"contract IProducerCertification","numberOfBytes":"20"},"t_int256":{"encoding":"inplace","label":"int256","numberOfBytes":"32"},"t_mapping(t_bytes32,t_uint256)":{"encoding":"mapping","key":"t_bytes32","label":"mapping(bytes32 => uint256)","numberOfBytes":"32","value":"t_uint256"},"t_mapping(t_string_memory_ptr,t_array(t_struct(CriticalTrackingEvent)9729_storage)dyn_storage)":{"encoding":"mapping","key":"t_string_memory_ptr","label":"mapping(string => struct TraceabilityRegistry.CriticalTrackingEvent[])","numberOfBytes":"32","value":"t_array(t_struct(CriticalTrackingEvent)9729_storage)dyn_storage"},"t_string_memory_ptr":{"encoding":"bytes","label":"string","numberOfBytes":"32"},"t_string_storage":{"encoding":"bytes","label":"string","numberOfBytes":"32"},"t_struct(CriticalTrackingEvent)9729_storage":{"encoding":"inplace","label":"struct TraceabilityRegistry.CriticalTrackingEvent","members":[{"astId":9713,"contract":"contracts/TraceabilityRegistry.sol:TraceabilityRegistry","label":"eventId","offset":0,"slot":"0","type":"t_bytes32"},{"astId":9715,"contract":"contracts/TraceabilityRegistry.sol:TraceabilityRegistry","label":"eventType","offset":0,"slot":"1","type":"t_string_storage"},{"astId":9717,"contract":"contracts/TraceabilityRegistry.sol:TraceabilityRegistry","label":"producer","offset":0,"slot":"2","type":"t_address"},{"astId":9719,"contract":"contracts/TraceabilityRegistry.sol:TraceabilityRegistry","label":"timestamp","offset":0,"slot":"3","type":"t_uint256"},{"astId":9722,"contract":"contracts/TraceabilityRegistry.sol:TraceabilityRegistry","label":"location","offset":0,"slot":"4","type":"t_struct(GPSCoordinates)9711_storage"},{"astId":9724,"contract":"contracts/TraceabilityRegistry.sol:TraceabilityRegistry","label":"ipfsHash","offset":0,"slot":"6","type":"t_string_storage"},{"astId":9726,"contract":"contracts/TraceabilityRegistry.sol:TraceabilityRegistry","label":"previousEventHash","offset":0,"slot":"7","type":"t_bytes32"},{"astId":9728,"contract":"contracts/TraceabilityRegistry.sol:TraceabilityRegistry","label":"verified","offset":0,"slot":"8","type":"t_bool"}],"numberOfBytes":"288"},"t_struct(GPSCoordinates)9711_storage":{"encoding":"inplace","label":"struct TraceabilityRegistry.GPSCoordinates","members":[{"astId":9708,"contract":"contracts/TraceabilityRegistry.sol:TraceabilityRegistry","label":"latitude","offset":0,"slot":"0","type":"t_int256"},{"astId":9710,"contract":"contracts/TraceabilityRegistry.sol:TraceabilityRegistry","label":"longitude","offset":0,"slot":"1","type":"t_int256"}],"numberOfBytes":"64"},"t_uint256":{"encoding":"inplace","label":"uint256","numberOfBytes":"32"}}}}}}