{"contracts/BatchToken.sol":{"BatchToken":{"abi":[{"inputs":[],"stateMutability":"nonpayable","type":"constructor"},{"inputs":[],"name":"AccessControlBadConfirmation","type":"error"},{"inputs":[{"internalType":"address","name":"account","type":"address"},{"internalType":"bytes32","name":"neededRole","type":"bytes32"}],"name":"AccessControlUnauthorizedAccount","type":"error"},{"inputs":[{"internalType":"address","name":"target","type":"address"}],"name":"AddressEmptyCode","type":"error"},{"inputs":[{"internalType":"address","name":"implementation","type":"address"}],"name":"ERC1967InvalidImplementation","type":"error"},{"inputs":[],"name":"ERC1967NonPayable","type":"error"},{"inputs":[{"internalType":"uint256","name":"numerator","type":"uint256"},{"internalType":"uint256","name":"denominator","type":"uint256"}],"name":"ERC2981InvalidDefaultRoyalty","type":"error"},{"inputs":[{"internalType":"address","name":"receiver","type":"address"}],"name":"ERC2981InvalidDefaultRoyaltyReceiver","type":"error"},{"inputs":[{"internalType":"uint256","name":"tokenId","type":"uint256"},{"internalType":"uint256","name":"numerator","type":"uint256"},{"internalType":"uint256","name":"denominator","type":"uint256"}],"name":"ERC2981InvalidTokenRoyalty","type":"error"},{"inputs":[{"internalType":"uint256","name":"tokenId","type":"uint256"},{"internalType":"address","name":"receiver","type":"address"}],"name":"ERC2981InvalidTokenRoyaltyReceiver","type":"error"},{"inputs":[{"internalType":"address","name":"sender","type":"address"},{"internalType":"uint256","name":"tokenId","type":"uint256"},{"internalType":"address","name":"owner","type":"address"}],"name":"ERC721IncorrectOwner","type":"error"},{"inputs":[{"internalType":"address","name":"operator","type":"address"},{"internalType":"uint256","name":"tokenId","type":"uint256"}],"name":"ERC721InsufficientApproval","type":"error"},{"inputs":[{"internalType":"address","name":"approver","type":"address"}],"name":"ERC721InvalidApprover","type":"error"},{"inputs":[{"internalType":"address","name":"operator","type":"address"}],"name":"ERC721InvalidOperator","type":"error"},{"inputs":[{"internalType":"address","name":"owner","type":"address"}],"name":"ERC721InvalidOwner","type":"error"},{"inputs":[{"internalType":"address","name":"receiver","type":"address"}],"name":"ERC721InvalidReceiver","type":"error"},{"inputs":[{"internalType":"address","name":"sender","type":"address"}],"name":"ERC721InvalidSender","type":"error"},{"inputs":[{"internalType":"uint256","name":"tokenId","type":"uint256"}],"name":"ERC721NonexistentToken","type":"error"},{"inputs":[],"name":"FailedCall","type":"error"},{"inputs":[],"name":"InvalidInitialization","type":"error"},{"inputs":[],"name":"NotInitializing","type":"error"},{"inputs":[],"name":"UUPSUnauthorizedCallContext","type":"error"},{"inputs":[{"internalType":"bytes32","name":"slot","type":"bytes32"}],"name":"UUPSUnsupportedProxiableUUID","type":"error"},{"anonymous":false,"inputs":[{"indexed":true,"internalType":"address","name":"owner","type":"address"},{"indexed":true,"internalType":"address","name":"approved","type":"address"},{"indexed":true,"internalType":"uint256","name":"tokenId","type":"uint256"}],"name":"Approval","type":"event"},{"anonymous":false,"inputs":[{"indexed":true,"internalType":"address","name":"owner","type":"address"},{"indexed":true,"internalType":"address","name":"operator","type":"address"},{"indexed":false,"internalType":"bool","name":"approved","type":"bool"}],"name":"ApprovalForAll","type":"event"},{"anonymous":false,"inputs":[{"indexed":false,"internalType":"uint256","name":"_fromTokenId","type":"uint256"},{"indexed":false,"internalType":"uint256","name":"_toTokenId","type":"uint256"}],"name":"BatchMetadataUpdate","type":"event"},{"anonymous":false,"inputs":[{"indexed":true,"internalType":"uint256","name":"tokenId","type":"uint256"},{"indexed":true,"internalType":"string","name":"batchNumber","type":"string"},{"indexed":true,"internalType":"address","name":"producer","type":"address"},{"indexed":false,"internalType":"string","name":"tokenURI","type":"string"}],"name":"BatchMinted","type":"event"},{"anonymous":false,"inputs":[{"indexed":false,"internalType":"uint64","name":"version","type":"uint64"}],"name":"Initialized","type":"event"},{"anonymous":false,"inputs":[{"indexed":false,"internalType":"uint256","name":"_tokenId","type":"uint256"}],"name":"MetadataUpdate","type":"event"},{"anonymous":false,"inputs":[{"indexed":true,"internalType":"bytes32","name":"role","type":"bytes32"},{"indexed":true,"internalType":"bytes32","name":"previousAdminRole","type":"bytes32"},{"indexed":true,"internalType":"bytes32","name":"newAdminRole","type":"bytes32"}],"name":"RoleAdminChanged","type":"event"},{"anonymous":false,"inputs":[{"indexed":true,"internalType":"bytes32","name":"role","type":"bytes32"},{"indexed":true,"internalType":"address","name":"account","type":"address"},{"indexed":true,"internalType":"address","name":"sender","type":"address"}],"name":"RoleGranted","type":"event"},{"anonymous":false,"inputs":[{"indexed":true,"internalType":"bytes32","name":"role","type":"bytes32"},{"indexed":true,"internalType":"address","name":"account","type":"address"},{"indexed":true,"internalType":"address","name":"sender","type":"address"}],"name":"RoleRevoked","type":"event"},{"anonymous":false,"inputs":[{"indexed":true,"internalType":"address","name":"from","type":"address"},{"indexed":true,"internalType":"address","name":"to","type":"address"},{"indexed":true,"internalType":"uint256","name":"tokenId","type":"uint256"}],"name":"Transfer","type":"event"},{"anonymous":false,"inputs":[{"indexed":true,"internalType":"address","name":"implementation","type":"address"}],"name":"Upgraded","type":"event"},{"inputs":[],"name":"DEFAULT_ADMIN_ROLE","outputs":[{"internalType":"bytes32","name":"","type":"bytes32"}],"stateMutability":"view","type":"function"},{"inputs":[],"name":"MINTER_ROLE","outputs":[{"internalType":"bytes32","name":"","type":"bytes32"}],"stateMutability":"view","type":"function"},{"inputs":[],"name":"UPGRADE_INTERFACE_VERSION","outputs":[{"internalType":"string","name":"","type":"string"}],"stateMutability":"view","type":"function"},{"inputs":[{"internalType":"address","name":"to","type":"address"},{"internalType":"uint256","name":"tokenId","type":"uint256"}],"name":"approve","outputs":[],"stateMutability":"nonpayable","type":"function"},{"inputs":[{"internalType":"address","name":"owner","type":"address"}],"name":"balanceOf","outputs":[{"internalType":"uint256","name":"","type":"uint256"}],"stateMutability":"view","type":"function"},{"inputs":[{"internalType":"string","name":"","type":"string"}],"name":"batchNumberToTokenId","outputs":[{"internalType":"uint256","name":"","type":"uint256"}],"stateMutability":"view","type":"function"},{"inputs":[{"internalType":"uint256","name":"tokenId","type":"uint256"}],"name":"getApproved","outputs":[{"internalType":"address","name":"","type":"address"}],"stateMutability":"view","type":"function"},{"inputs":[{"internalType":"bytes32","name":"role","type":"bytes32"}],"name":"getRoleAdmin","outputs":[{"internalType":"bytes32","name":"","type":"bytes32"}],"stateMutability":"view","type":"function"},{"inputs":[{"internalType":"bytes32","name":"role","type":"bytes32"},{"internalType":"address","name":"account","type":"address"}],"name":"grantRole","outputs":[],"stateMutability":"nonpayable","type":"function"},{"inputs":[{"internalType":"bytes32","name":"role","type":"bytes32"},{"internalType":"address","name":"account","type":"address"}],"name":"hasRole","outputs":[{"internalType":"bool","name":"","type":"bool"}],"stateMutability":"view","type":"function"},{"inputs":[{"internalType":"address","name":"admin","type":"address"},{"internalType":"address","name":"_producerCertificationAddress","type":"address"},{"internalType":"address","name":"royaltyReceiver","type":"address"},{"internalType":"uint96","name":"royaltyFeeNumerator","type":"uint96"}],"name":"initialize","outputs":[],"stateMutability":"nonpayable","type":"function"},{"inputs":[{"internalType":"address","name":"owner","type":"address"},{"internalType":"address","name":"operator","type":"address"}],"name":"isApprovedForAll","outputs":[{"internalType":"bool","name":"","type":"bool"}],"stateMutability":"view","type":"function"},{"inputs":[{"internalType":"address","name":"producer","type":"address"},{"internalType":"string","name":"batchNumber","type":"string"},{"internalType":"string","name":"_tokenURI","type":"string"}],"name":"mintBatch","outputs":[{"internalType":"uint256","name":"","type":"uint256"}],"stateMutability":"nonpayable","type":"function"},{"inputs":[],"name":"name","outputs":[{"internalType":"string","name":"","type":"string"}],"stateMutability":"view","type":"function"},{"inputs":[{"internalType":"uint256","name":"tokenId","type":"uint256"}],"name":"ownerOf","outputs":[{"internalType":"address","name":"","type":"address"}],"stateMutability":"view","type":"function"},{"inputs":[],"name":"producerCertificationContract","outputs":[{"internalType":"contract IProducerCertification","name":"","type":"address"}],"stateMutability":"view","type":"function"},{"inputs":[],"name":"proxiableUUID","outputs":[{"internalType":"bytes32","name":"","type":"bytes32"}],"stateMutability":"view","type":"function"},{"inputs":[{"internalType":"bytes32","name":"role","type":"bytes32"},{"internalType":"address","name":"callerConfirmation","type":"address"}],"name":"renounceRole","outputs":[],"stateMutability":"nonpayable","type":"function"},{"inputs":[{"internalType":"bytes32","name":"role","type":"bytes32"},{"internalType":"address","name":"account","type":"address"}],"name":"revokeRole","outputs":[],"stateMutability":"nonpayable","type":"function"},{"inputs":[{"internalType":"uint256","name":"tokenId","type":"uint256"},{"internalType":"uint256","name":"salePrice","type":"uint256"}],"name":"royaltyInfo","outputs":[{"internalType":"address","name":"receiver","type":"address"},{"internalType":"uint256","name":"amount","type":"uint256"}],"stateMutability":"view","type":"function"},{"inputs":[{"internalType":"address","name":"from","type":"address"},{"internalType":"address","name":"to","type":"address"},{"internalType":"uint256","name":"tokenId","type":"uint256"}],"name":"safeTransferFrom","outputs":[],"stateMutability":"nonpayable","type":"function"},{"inputs":[{"internalType":"address","name":"from","type":"address"},{"internalType":"address","name":"to","type":"address"},{"internalType":"uint256","name":"tokenId","type":"uint256"},{"internalType":"bytes","name":"data","type":"bytes"}],"name":"safeTransferFrom","outputs":[],"stateMutability":"nonpayable","type":"function"},{"inputs":[{"internalType":"address","name":"operator","type":"address"},{"internalType":"bool","name":"approved","type":"bool"}],"name":"setApprovalForAll","outputs":[],"stateMutability":"nonpayable","type":"function"},{"inputs":[{"internalType":"bytes4","name":"interfaceId","type":"bytes4"}],"name":"supportsInterface","outputs":[{"internalType":"bool","name":"","type":"bool"}],"stateMutability":"view","type":"function"},{"inputs":[],"name":"symbol","outputs":[{"internalType":"string","name":"","type":"string"}],"stateMutability":"view","type":"function"},{"inputs":[{"internalType":"uint256","name":"","type":"uint256"}],"name":"tokenToBatchNumber","outputs":[{"internalType":"string","name":"","type":"string"}],"stateMutability":"view","type":"function"},{"inputs":[{"internalType":"uint256","name":"tokenId","type":"uint256"}],"name":"tokenURI","outputs":[{"internalType":"string","name":"","type":"string"}],"stateMutability":"view","type":"function"},{"inputs":[{"internalType":"address","name":"from","type":"address"},{"internalType":"address","name":"to","type":"address"},{"internalType":"uint256","name":"tokenId","type":"uint256"}],"name":"transferFrom","outputs":[],"stateMutability":"nonpayable","type":"function"},{"inputs":[{"internalType":"address","name":"newImplementation","type":"address"},{"internalType":"bytes","name":"data","type":"bytes"}],"name":"upgradeToAndCall","outputs":[],"stateMutability":"payable","type":"function"}],"evm":{"bytecode":{"linkReferences":{},"object":"60a080604052346100cc57306080527ff0c57e16840df040f15088dc2f81fe391c3923bec73e23a9662efc9c229c6a009081549060ff8260401c166100bd57506001600160401b036002600160401b031982821601610078575b60405161261f90816100d28239608051818181610dcc0152610e750152f35b6001600160401b031990911681179091556040519081527fc7f505b2f371ae2175ee4913f4499e1f2633a7b5936321eed1cdaeb6115181d290602090a1388080610059565b63f92ee8a960e01b8152600490fd5b600080fdfe608080604052600436101561001357600080fd5b60003560e01c90816301ffc9a714611a735750806306fdde03146119c9578063081812fc1461197e578063095ea7b314611897578063116de2911461129e57806323b872dd14611287578063248a9ca31461124b5780632a55205a1461117c5780632f2ff15d146111305780633053a6b4146110f057806336568abe146110a957806342842e0e1461107b5780634f1ef28614610e3657806352d1902d14610db95780636352211e14610d8957806370a0823114610d3457806391d1485414610cda57806395d89b4114610bf95780639688b31814610b8c578063a217fddf14610b70578063a22cb46514610ad0578063ad3cb1cc14610a8a578063b88d4fde14610a30578063c87b56dd146109b4578063d317896f14610263578063d539139314610228578063d547741f146101da578063d640a799146101b15763e985e9c51461015e57600080fd5b346101ac5760403660031901126101ac57610177611b74565b610188610182611b8a565b91611fa2565b9060018060a01b0316600052602052602060ff604060002054166040519015158152f35b600080fd5b346101ac5760003660031901126101ac576000546040516001600160a01b039091168152602090f35b346101ac5760403660031901126101ac576102266004356101f9611b8a565b908060005260008051602061254a833981519152602052610221600160406000200154612274565b6122a7565b005b346101ac5760003660031901126101ac5760206040517f9f2df0fed2c77648de5860a4cc508cd0818c85b8b8a1ab4ceeef8d981c8956a68152f35b346101ac5760603660031901126101ac5761027c611b74565b6024356001600160401b0381116101ac5761029b903690600401611d7b565b916044356001600160401b0381116101ac576102bb903690600401611d7b565b3360009081527f549fe2656c81d2947b3b913f0a53b9ea86c71e049f3a1b8aa23c09a8a05cb8d46020526040902054909291907f9f2df0fed2c77648de5860a4cc508cd0818c85b8b8a1ab4ceeef8d981c8956a69060ff16156109965750600054604051630cada3d560e31b81526001600160a01b038481166004830152909160209183916024918391165afa90811561098a5760009161094f575b501561091157604051858582376020818781016003815203019020546108cc576001549360001985146108b6576001850160015560405161039781611c2a565b600081526001600160a01b0384161561089d57856000527f80bb2b638cc20bc4d0a60d66940f3ab4a00c1d7b313497ca82fb0b4ab0079302806020528660018060a01b0360406000205416801515928361085e575b6103f588611f69565b8054600101905560008381526020919091526040812080546001600160a01b0319166001600160a01b038a1690811790915591907fddf252ad1be2c89b69c2b068fc378daa952ba7f163c4a11628f55a4df523b3ef9080a461084557833b61072f575b50610464368584611d26565b856000527f0542a41881ee128a365a727b282c86fa859579490b9bb45aab8503648c8e79006020526040600020908051906001600160401b0382116106a2576104b7826104b18554611bd5565b85611fdb565b602090601f83116001146106c3576104e89291600091836106b8575b50508160011b916000199060031b1c19161790565b90555b7ff8e1a15aba9398e019f0b49df1a4fde98ee17ae345cb5f6b5e2c27f5033e8ce76020604051878152a184600052600260205260406000206001600160401b0387116106a2578686928261054c60209a6105468a9654611bd5565b83611fdb565b6000601f8411600114610610579183916105a3836040967f598be0457a5b817ad8396bd990f45b72bcf94255a48fbbe17a6087d0daddd6bc999a96600091610605575b508160011b916000199060031b1c19161790565b90555b868451838382378c8185810160038152030190205581845192839283378101600081520390209582519384928b8452818c8501528484013760008289018401526001600160a01b031696601f01601f19168101030190a4604051908152f35b90508401358f61058f565b601f19841690826000528b6000209160005b8181106106855750918593916040967f598be0457a5b817ad8396bd990f45b72bcf94255a48fbbe17a6087d0daddd6bc999a96941061066b575b5050600183811b0190556105a6565b830135600019600386901b60f8161c191690558c8061065c565b8286013584558c98508b9750600190930192918d01918d01610622565b634e487b7160e01b600052604160045260246000fd5b015190508a806104d3565b9190836000526020600020906000935b601f1984168510610714576001945083601f198116106106fb575b505050811b0190556104eb565b015160001960f88460031b161c191690558980806106ee565b818101518355602094850194600190930192909101906106d3565b60409695949396516020818061076e630a85bd0160e11b95868352336004840152600060248401528a6044840152608060648401526084830190611b4f565b038160006001600160a01b038d165af160009181610800575b506107c6578761079561232a565b80519190826107bf57604051633250574960e11b81526001600160a01b0383166004820152602490fd5b6020915001fd5b63ffffffff60e098959697981b16036107df5786610458565b604051633250574960e11b81526001600160a01b0384166004820152602490fd5b9091506020813d60201161083d575b8161081c60209383611c45565b810103126101ac57516001600160e01b0319811681036101ac579089610787565b3d915061080f565b6040516339e3563760e11b815260006004820152602490fd5b600083815260008051602061256a8339815191526020526040902080546001600160a01b031916905561089082611f69565b80546000190190556103ec565b604051633250574960e11b815260006004820152602490fd5b634e487b7160e01b600052601160045260246000fd5b60405162461bcd60e51b815260206004820152601760248201527f426174636820616c726561647920746f6b656e697a65640000000000000000006044820152606490fd5b60405162461bcd60e51b8152602060048201526016602482015275141c9bd91d58d95c881b9bdd0818d95c9d1a599a595960521b6044820152606490fd5b90506020813d602011610982575b8161096a60209383611c45565b810103126101ac575180151581036101ac5786610357565b3d915061095d565b6040513d6000823e3d90fd5b6044906040519063e2517d3f60e01b82523360048301526024820152fd5b346101ac5760203660031901126101ac576004356109d181612031565b506000527f0542a41881ee128a365a727b282c86fa859579490b9bb45aab8503648c8e7900602052610a2c610a096040600020611c66565b6000604051610a1781611c2a565b52604051918291602083526020830190611b4f565b0390f35b346101ac5760803660031901126101ac57610a49611b74565b610a51611b8a565b90604435606435926001600160401b0384116101ac57610a78610226943690600401611d5d565b92610a84838383611da8565b3361235a565b346101ac5760003660031901126101ac57610a2c604051610aaa81611c0f565b60058152640352e302e360dc1b6020820152604051918291602083526020830190611b4f565b346101ac5760403660031901126101ac57610ae9611b74565b602435908115158092036101ac576001600160a01b0316908115610b5757610b1033611fa2565b82600052602052604060002060ff1981541660ff83161790556040519081527f17307eab39ab6107e8899845ad3d59bd9653f200f220920489ca2b5937696c3160203392a3005b604051630b61174360e31b815260048101839052602490fd5b346101ac5760003660031901126101ac57602060405160008152f35b346101ac5760203660031901126101ac576004356001600160401b0381116101ac57366023820112156101ac57610be66020610bd381933690602481600401359101611d26565b8160405193828580945193849201611b2c565b8101600381520301902054604051908152f35b346101ac5760003660031901126101ac576040516000805160206125aa8339815191528054826000610c2a83611bd5565b9283835260209460019186600182169182600014610cb8575050600114610c6e575b5050610c5a92500383611c45565b610a2c604051928284938452830190611b4f565b85925060005260008051602061252a833981519152906000915b858310610ca0575050610c5a93508201018580610c4c565b80548389018501528794508693909201918101610c88565b9250935050610c5a94915060ff191682840152151560051b8201018580610c4c565b346101ac5760403660031901126101ac57610cf3611b8a565b60043560005260008051602061254a83398151915260205260406000209060018060a01b0316600052602052602060ff604060002054166040519015158152f35b346101ac5760203660031901126101ac57610d4d611b74565b6001600160a01b03811615610d7057610d67602091611f69565b54604051908152f35b6040516322718ad960e21b815260006004820152602490fd5b346101ac5760203660031901126101ac576020610da7600435612031565b6040516001600160a01b039091168152f35b346101ac5760003660031901126101ac577f00000000000000000000000000000000000000000000000000000000000000006001600160a01b03163003610e245760206040517f360894a13ba1a3210667c828492db98dca3e2076cc3735a920a3ca505d382bbc8152f35b60405163703e46dd60e11b8152600490fd5b60403660031901126101ac57610e4a611b74565b6024356001600160401b0381116101ac57610e69903690600401611d5d565b906001600160a01b03907f0000000000000000000000000000000000000000000000000000000000000000821630811490811561104d575b50610e24573360009081527fb7db2dd08fcb62d0c9e08c51941cae53c267786a0b75803fb7960902fc8ef97d602090815260409091205490929060ff161561102e578116916040516352d1902d60e01b81528181600481875afa60009181610fff575b50610f2257604051634c9c8ce360e01b815260048101859052602490fd5b9284937f360894a13ba1a3210667c828492db98dca3e2076cc3735a920a3ca505d382bbc90818103610fe75750833b15610fce5780546001600160a01b03191682179055604051907fbc7cd75a20ee27fd9adebab32041f755214dbc6bffa90cc0225b39da2e5c2d3b600080a2835115610fb45750600083819261022695519101845af4610fae61232a565b916124a6565b9250505034610fbf57005b63b398979f60e01b8152600490fd5b604051634c9c8ce360e01b815260048101839052602490fd5b60249060405190632a87526960e21b82526004820152fd5b9091508281813d8311611027575b6110178183611c45565b810103126101ac57519086610f04565b503d61100d565b60405163e2517d3f60e01b815233600482015260006024820152604490fd5b9050827f360894a13ba1a3210667c828492db98dca3e2076cc3735a920a3ca505d382bbc5416141584610ea1565b346101ac5761022661108c36611ba0565b906040519261109a84611c2a565b60008452610a84838383611da8565b346101ac5760403660031901126101ac576110c2611b8a565b336001600160a01b038216036110de57610226906004356122a7565b60405163334bd91960e11b8152600490fd5b346101ac5760203660031901126101ac576004356000526002602052610a2c61111c6040600020611c66565b604051918291602083526020830190611b4f565b346101ac5760403660031901126101ac5761022660043561114f611b8a565b908060005260008051602061254a833981519152602052611177600160406000200154612274565b6121ed565b346101ac5760403660031901126101ac576024356004356000527fdaedc9ab023613a7caf35e703657e986ccfad7e3eb0af93a2853f8d65dd86b016020526040600020549060018060a01b038083169260a01c908315611212575b506001600160601b0316908181029181830414901517156108b657604080516001600160a01b03939093168352612710909104602083015290f35b7fdaedc9ab023613a7caf35e703657e986ccfad7e3eb0af93a2853f8d65dd86b0054908116935060a01c90506001600160601b036111d7565b346101ac5760203660031901126101ac5760043560005260008051602061254a8339815191526020526020600160406000200154604051908152f35b346101ac5761022661129836611ba0565b91611da8565b346101ac5760803660031901126101ac576112b7611b74565b6112bf611b8a565b906044356001600160a01b03811681036101ac576001600160601b0360643516606435036101ac5760008051602061258a83398151915254916001600160401b03831680159081611887575b600114908161187d575b159081611874575b506118625760016001600160401b031984161760008051602061258a8339815191525560ff8360401c1615611835575b60405161135981611c0f565b601081526f082cee4de84e4d2c8ceca4084c2e8c6d60831b60208201526040519061138382611c0f565b600382526220a3a160e91b602083015261139b612477565b6113a3612477565b8051906001600160401b0382116106a2576113cc60008051602061250a83398151915254611bd5565b601f81116117bf575b50602090601f831160011461172d576114069291600091836116185750508160011b916000199060031b1c19161790565b60008051602061250a833981519152555b8051906001600160401b0382116106a2576114406000805160206125aa83398151915254611bd5565b601f81116116b7575b50602090601f831160011461162357918061147f926114bf95946000926116185750508160011b916000199060031b1c19161790565b6000805160206125aa833981519152555b611498612477565b6114a0612477565b6114a8612477565b6114b0612477565b6114b98161208b565b5061212b565b506001600160601b0360a01b9260018060a01b0316836000541617600055612710806001600160601b0360643516116115ef57506001600160a01b038116156115d6576040519260408401938085106001600160401b038611176106a25760409485526001600160a01b03929092168083526064356001600160601b03811660209094019390935260a09290921b16177fdaedc9ab023613a7caf35e703657e986ccfad7e3eb0af93a2853f8d65dd86b0055901c60ff161561157d57005b68ff00000000000000001960008051602061258a833981519152541660008051602061258a833981519152557fc7f505b2f371ae2175ee4913f4499e1f2633a7b5936321eed1cdaeb6115181d2602060405160018152a1005b604051635b6cc80560e11b815260006004820152602490fd5b60449060405190636f483d0960e01b82526001600160601b036064351660048301526024820152fd5b0151905088806104d3565b906000805160206125aa83398151915260005260008051602061252a8339815191529160005b601f198516811061169f57509183916001936114bf9695601f19811610611686575b505050811b016000805160206125aa83398151915255611490565b015160001960f88460031b161c1916905587808061166b565b91926020600181928685015181550194019201611649565b6000805160206125aa833981519152600052601f830160051c60008051602061252a8339815191520160208410611718575b601f820160051c60008051602061252a83398151915201811061170c5750611449565b600081556001016116e9565b5060008051602061252a8339815191526116e9565b919060008051602061250a8339815191526000526000805160206125ca833981519152906000935b601f19841685106117a4576001945083601f1981161061178b575b505050811b0160008051602061250a83398151915255611417565b015160001960f88460031b161c19169055878080611770565b81810151835560209485019460019093019290910190611755565b60008051602061250a833981519152600052601f830160051c6000805160206125ca8339815191520160208410611820575b601f820160051c6000805160206125ca83398151915201811061181457506113d5565b600081556001016117f1565b506000805160206125ca8339815191526117f1565b68ffffffffffffffffff198316680100000000000000011760008051602061258a8339815191525561134d565b60405163f92ee8a960e01b8152600490fd5b9050158561131d565b303b159150611315565b604085901c60ff1615915061130b565b346101ac5760403660031901126101ac576118b0611b74565b6024356118bc81612031565b3315158061196b575b8061194b575b611933576001600160a01b039283169282918491167f8c5be1e5ebec7d5bd14f71427d1e84f3dd0314c0f7b2291e5b200ac8c7c3b925600080a4600090815260008051602061256a8339815191526020526040902080546001600160a01b0319169091179055005b60405163a9fbf51f60e01b8152336004820152602490fd5b5061195581611fa2565b3360005260205260ff60406000205416156118cb565b506001600160a01b0381163314156118c5565b346101ac5760203660031901126101ac5760043561199b81612031565b5060005260008051602061256a833981519152602052602060018060a01b0360406000205416604051908152f35b346101ac5760003660031901126101ac5760405160008051602061250a83398151915280548260006119fa83611bd5565b9283835260209460019186600182169182600014610cb8575050600114611a29575050610c5a92500383611c45565b8592506000526000805160206125ca833981519152906000915b858310611a5b575050610c5a93508201018580610c4c565b80548389018501528794508693909201918101611a43565b346101ac5760203660031901126101ac576004359063ffffffff60e01b82168092036101ac57602091637965db0b60e01b8114908115611ab5575b5015158152f35b63152a902d60e11b811491508115611acf575b5083611aae565b632483248360e11b811491508115611ae9575b5083611ac8565b6380ac58cd60e01b811491508115611b1b575b8115611b0a575b5083611ae2565b6301ffc9a760e01b14905083611b03565b635b5e139f60e01b81149150611afc565b60005b838110611b3f5750506000910152565b8181015183820152602001611b2f565b90602091611b6881518092818552858086019101611b2c565b601f01601f1916010190565b600435906001600160a01b03821682036101ac57565b602435906001600160a01b03821682036101ac57565b60609060031901126101ac576001600160a01b039060043582811681036101ac579160243590811681036101ac579060443590565b90600182811c92168015611c05575b6020831014611bef57565b634e487b7160e01b600052602260045260246000fd5b91607f1691611be4565b604081019081106001600160401b038211176106a257604052565b602081019081106001600160401b038211176106a257604052565b90601f801991011681019081106001600160401b038211176106a257604052565b90604051918260008254611c7981611bd5565b90818452602094600191600181169081600014611ce95750600114611caa575b505050611ca892500383611c45565b565b600090815285812095935091905b818310611cd1575050611ca89350820101388080611c99565b85548884018501529485019487945091830191611cb8565b92505050611ca894925060ff191682840152151560051b820101388080611c99565b6001600160401b0381116106a257601f01601f191660200190565b929192611d3282611d0b565b91611d406040519384611c45565b8294818452818301116101ac578281602093846000960137010152565b9080601f830112156101ac57816020611d7893359101611d26565b90565b9181601f840112156101ac578235916001600160401b0383116101ac57602083818601950101116101ac57565b6001600160a01b038281169391841561089d57826000958187527f80bb2b638cc20bc4d0a60d66940f3ab4a00c1d7b313497ca82fb0b4ab0079302958660205260409785898220541697889233151580611ec0575b5090611e2f7fddf252ad1be2c89b69c2b068fc378daa952ba7f163c4a11628f55a4df523b3ef939285611e8157611f69565b8054600101905585825260205289812080546001600160a01b0319168517905580a41692838303611e605750505050565b6064945051926364283d7b60e01b8452600484015260248301526044820152fd5b600088815260008051602061256a8339815191526020526040902080546001600160a01b0319169055611eb386611f69565b8054600019019055611f69565b9193509193945080611f1a575b15611ede5791879187949338611dfd565b888789611efb576024915190637e27328960e01b82526004820152fd5b905163177e802f60e01b81523360048201526024810191909152604490fd5b503388148015611f4d575b80611ecd575086835260008051602061256a83398151915260205233868a8520541614611ecd565b50611f5788611fa2565b33845260205260ff8984205416611f25565b6001600160a01b031660009081527f80bb2b638cc20bc4d0a60d66940f3ab4a00c1d7b313497ca82fb0b4ab00793036020526040902090565b6001600160a01b031660009081527f80bb2b638cc20bc4d0a60d66940f3ab4a00c1d7b313497ca82fb0b4ab00793056020526040902090565b90601f8111611fe957505050565b6000916000526020600020906020601f850160051c83019410612027575b601f0160051c01915b82811061201c57505050565b818155600101612010565b9092508290612007565b60008181527f80bb2b638cc20bc4d0a60d66940f3ab4a00c1d7b313497ca82fb0b4ab007930260205260409020546001600160a01b0316908115612073575090565b60249060405190637e27328960e01b82526004820152fd5b6001600160a01b031660008181527fb7db2dd08fcb62d0c9e08c51941cae53c267786a0b75803fb7960902fc8ef97d602052604081205490919060008051602061254a8339815191529060ff16612126578280526020526040822081835260205260408220600160ff1982541617905533917f2f8788117e7eff1d82e926ec794901d17c78024a50270940304540a733656f0d8180a4600190565b505090565b6001600160a01b031660008181527f549fe2656c81d2947b3b913f0a53b9ea86c71e049f3a1b8aa23c09a8a05cb8d460205260408120549091907f9f2df0fed2c77648de5860a4cc508cd0818c85b8b8a1ab4ceeef8d981c8956a69060008051602061254a8339815191529060ff166121e7578184526020526040832082845260205260408320600160ff198254161790557f2f8788117e7eff1d82e926ec794901d17c78024a50270940304540a733656f0d339380a4600190565b50505090565b9060009180835260008051602061254a83398151915280602052604084209260018060a01b03169283855260205260ff604085205416156000146121e7578184526020526040832082845260205260408320600160ff198254161790557f2f8788117e7eff1d82e926ec794901d17c78024a50270940304540a733656f0d339380a4600190565b8060005260008051602061254a83398151915260205260406000203360005260205260ff60406000205416156109965750565b9060009180835260008051602061254a83398151915280602052604084209260018060a01b03169283855260205260ff6040852054166000146121e757818452602052604083208284526020526040832060ff1981541690557ff6391f5c32d9c69d2a47ea670b442974b53935d1edc7fd64eb21e047a839171b339380a4600190565b3d15612355573d9061233b82611d0b565b916123496040519384611c45565b82523d6000602084013e565b606090565b9293823b61236a575b5050505050565b6123ae9060018060a01b038094169560405194859481630a85bd0160e11b988988521660048701521660248501526044840152608060648401526084830190611b4f565b03906020816000938185885af190829082612427575b50506123f557826123d361232a565b80519190826107bf57604051633250574960e11b815260048101839052602490fd5b6001600160e01b0319160361240f57503880808080612363565b60249060405190633250574960e11b82526004820152fd5b909192506020813d60201161246f575b8161244460209383611c45565b8101031261246b5751906001600160e01b03198216820361246857509038806123c4565b80fd5b5080fd5b3d9150612437565b60ff60008051602061258a8339815191525460401c161561249457565b604051631afcd79f60e31b8152600490fd5b906124cd57508051156124bb57602081519101fd5b60405163d6bda27560e01b8152600490fd5b81511580612500575b6124de575090565b604051639996b31560e01b81526001600160a01b039091166004820152602490fd5b50803b156124d656fe80bb2b638cc20bc4d0a60d66940f3ab4a00c1d7b313497ca82fb0b4ab0079300f4bad0a69248f59680a4f2b3000328cec71a413447c96781cfe5996daa8c456e02dd7bc7dec4dceedda775e58dd541e08a116c6c53815c0bd028192f7b62680080bb2b638cc20bc4d0a60d66940f3ab4a00c1d7b313497ca82fb0b4ab0079304f0c57e16840df040f15088dc2f81fe391c3923bec73e23a9662efc9c229c6a0080bb2b638cc20bc4d0a60d66940f3ab4a00c1d7b313497ca82fb0b4ab007930137c58c799b6609234b945e882912ee9ad34948a1dfaa20a97485e1a7752bbf81a26469706673582212208976bc65230d3cdaaeafe359264e59c033c372587b953c45360de04972c098c264736f6c63430008180033","opcodes":"PUSH1 0xA0 DUP1 PUSH1 0x40 MSTORE CALLVALUE PUSH2 0xCC JUMPI ADDRESS PUSH1 0x80 MSTORE PUSH32 0xF0C57E16840DF040F15088DC2F81FE391C3923BEC73E23A9662EFC9C229C6A00 SWAP1 DUP2 SLOAD SWAP1 PUSH1 0xFF DUP3 PUSH1 0x40 SHR AND PUSH2 0xBD JUMPI POP PUSH1 0x1 PUSH1 0x1 PUSH1 0x40 SHL SUB PUSH1 0x2 PUSH1 0x1 PUSH1 0x40 SHL SUB NOT DUP3 DUP3 AND ADD PUSH2 0x78 JUMPI JUMPDEST PUSH1 0x40 MLOAD PUSH2 0x261F SWAP1 DUP2 PUSH2 0xD2 DUP3 CODECOPY PUSH1 0x80 MLOAD DUP2 DUP2 DUP2 PUSH2 0xDCC ADD MSTORE PUSH2 0xE75 ADD MSTORE RETURN JUMPDEST PUSH1 0x1 PUSH1 0x1 PUSH1 0x40 SHL SUB NOT SWAP1 SWAP2 AND DUP2 OR SWAP1 SWAP2 SSTORE PUSH1 0x40 MLOAD SWAP1 DUP2 MSTORE PUSH32 0xC7F505B2F371AE2175EE4913F4499E1F2633A7B5936321EED1CDAEB6115181D2 SWAP1 PUSH1 0x20 SWAP1 LOG1 CODESIZE DUP1 DUP1 PUSH2 0x59 JUMP JUMPDEST PUSH4 0xF92EE8A9 PUSH1 0xE0 SHL DUP2 MSTORE PUSH1 0x4 SWAP1 REVERT JUMPDEST PUSH1 0x0 DUP1 REVERT INVALID PUSH1 0x80 DUP1 PUSH1 0x40 MSTORE PUSH1 0x4 CALLDATASIZE LT ISZERO PUSH2 0x13 JUMPI PUSH1 0x0 DUP1 REVERT JUMPDEST PUSH1 0x0 CALLDATALOAD PUSH1 0xE0 SHR SWAP1 DUP2 PUSH4 0x1FFC9A7 EQ PUSH2 0x1A73 JUMPI POP DUP1 PUSH4 0x6FDDE03 EQ PUSH2 0x19C9 JUMPI DUP1 PUSH4 0x81812FC EQ PUSH2 0x197E JUMPI DUP1 PUSH4 0x95EA7B3 EQ PUSH2 0x1897 JUMPI DUP1 PUSH4 0x116DE291 EQ PUSH2 0x129E JUMPI DUP1 PUSH4 0x23B872DD EQ PUSH2 0x1287 JUMPI DUP1 PUSH4 0x248A9CA3 EQ PUSH2 0x124B JUMPI DUP1 PUSH4 0x2A55205A EQ PUSH2 0x117C JUMPI DUP1 PUSH4 0x2F2FF15D EQ PUSH2 0x1130 JUMPI DUP1 PUSH4 0x3053A6B4 EQ PUSH2 0x10F0 JUMPI DUP1 PUSH4 0x36568ABE EQ PUSH2 0x10A9 JUMPI DUP1 PUSH4 0x42842E0E EQ PUSH2 0x107B JUMPI DUP1 PUSH4 0x4F1EF286 EQ PUSH2 0xE36 JUMPI DUP1 PUSH4 0x52D1902D EQ PUSH2 0xDB9 JUMPI DUP1 PUSH4 0x6352211E EQ PUSH2 0xD89 JUMPI DUP1 PUSH4 0x70A08231 EQ PUSH2 0xD34 JUMPI DUP1 PUSH4 0x91D14854 EQ PUSH2 0xCDA JUMPI DUP1 PUSH4 0x95D89B41 EQ PUSH2 0xBF9 JUMPI DUP1 PUSH4 0x9688B318 EQ PUSH2 0xB8C JUMPI DUP1 PUSH4 0xA217FDDF EQ PUSH2 0xB70 JUMPI DUP1 PUSH4 0xA22CB465 EQ PUSH2 0xAD0 JUMPI DUP1 PUSH4 0xAD3CB1CC EQ PUSH2 0xA8A JUMPI DUP1 PUSH4 0xB88D4FDE EQ PUSH2 0xA30 JUMPI DUP1 PUSH4 0xC87B56DD EQ PUSH2 0x9B4 JUMPI DUP1 PUSH4 0xD317896F EQ PUSH2 0x263 JUMPI DUP1 PUSH4 0xD5391393 EQ PUSH2 0x228 JUMPI DUP1 PUSH4 0xD547741F EQ PUSH2 0x1DA JUMPI DUP1 PUSH4 0xD640A799 EQ PUSH2 0x1B1 JUMPI PUSH4 0xE985E9C5 EQ PUSH2 0x15E JUMPI PUSH1 0x0 DUP1 REVERT JUMPDEST CALLVALUE PUSH2 0x1AC JUMPI PUSH1 0x40 CALLDATASIZE PUSH1 0x3 NOT ADD SLT PUSH2 0x1AC JUMPI PUSH2 0x177 PUSH2 0x1B74 JUMP JUMPDEST PUSH2 0x188 PUSH2 0x182 PUSH2 0x1B8A JUMP JUMPDEST SWAP2 PUSH2 0x1FA2 JUMP JUMPDEST SWAP1 PUSH1 0x1 DUP1 PUSH1 0xA0 SHL SUB AND PUSH1 0x0 MSTORE PUSH1 0x20 MSTORE PUSH1 0x20 PUSH1 0xFF PUSH1 0x40 PUSH1 0x0 KECCAK256 SLOAD AND PUSH1 0x40 MLOAD SWAP1 ISZERO ISZERO DUP2 MSTORE RETURN JUMPDEST PUSH1 0x0 DUP1 REVERT JUMPDEST CALLVALUE PUSH2 0x1AC JUMPI PUSH1 0x0 CALLDATASIZE PUSH1 0x3 NOT ADD SLT PUSH2 0x1AC JUMPI PUSH1 0x0 SLOAD PUSH1 0x40 MLOAD PUSH1 0x1 PUSH1 0x1 PUSH1 0xA0 SHL SUB SWAP1 SWAP2 AND DUP2 MSTORE PUSH1 0x20 SWAP1 RETURN JUMPDEST CALLVALUE PUSH2 0x1AC JUMPI PUSH1 0x40 CALLDATASIZE PUSH1 0x3 NOT ADD SLT PUSH2 0x1AC JUMPI PUSH2 0x226 PUSH1 0x4 CALLDATALOAD PUSH2 0x1F9 PUSH2 0x1B8A JUMP JUMPDEST SWAP1 DUP1 PUSH1 0x0 MSTORE PUSH1 0x0 DUP1 MLOAD PUSH1 0x20 PUSH2 0x254A DUP4 CODECOPY DUP2 MLOAD SWAP2 MSTORE PUSH1 0x20 MSTORE PUSH2 0x221 PUSH1 0x1 PUSH1 0x40 PUSH1 0x0 KECCAK256 ADD SLOAD PUSH2 0x2274 JUMP JUMPDEST PUSH2 0x22A7 JUMP JUMPDEST STOP JUMPDEST CALLVALUE PUSH2 0x1AC JUMPI PUSH1 0x0 CALLDATASIZE PUSH1 0x3 NOT ADD SLT PUSH2 0x1AC JUMPI PUSH1 0x20 PUSH1 0x40 MLOAD PUSH32 0x9F2DF0FED2C77648DE5860A4CC508CD0818C85B8B8A1AB4CEEEF8D981C8956A6 DUP2 MSTORE RETURN JUMPDEST CALLVALUE PUSH2 0x1AC JUMPI PUSH1 0x60 CALLDATASIZE PUSH1 0x3 NOT ADD SLT PUSH2 0x1AC JUMPI PUSH2 0x27C PUSH2 0x1B74 JUMP JUMPDEST PUSH1 0x24 CALLDATALOAD PUSH1 0x1 PUSH1 0x1 PUSH1 0x40 SHL SUB DUP2 GT PUSH2 0x1AC JUMPI PUSH2 0x29B SWAP1 CALLDATASIZE SWAP1 PUSH1 0x4 ADD PUSH2 0x1D7B JUMP JUMPDEST SWAP2 PUSH1 0x44 CALLDATALOAD PUSH1 0x1 PUSH1 0x1 PUSH1 0x40 SHL SUB DUP2 GT PUSH2 0x1AC JUMPI PUSH2 0x2BB SWAP1 CALLDATASIZE SWAP1 PUSH1 0x4 ADD PUSH2 0x1D7B JUMP JUMPDEST CALLER PUSH1 0x0 SWAP1 DUP2 MSTORE PUSH32 0x549FE2656C81D2947B3B913F0A53B9EA86C71E049F3A1B8AA23C09A8A05CB8D4 PUSH1 0x20 MSTORE PUSH1 0x40 SWAP1 KECCAK256 SLOAD SWAP1 SWAP3 SWAP2 SWAP1 PUSH32 0x9F2DF0FED2C77648DE5860A4CC508CD0818C85B8B8A1AB4CEEEF8D981C8956A6 SWAP1 PUSH1 0xFF AND ISZERO PUSH2 0x996 JUMPI POP PUSH1 0x0 SLOAD PUSH1 0x40 MLOAD PUSH4 0xCADA3D5 PUSH1 0xE3 SHL DUP2 MSTORE PUSH1 0x1 PUSH1 0x1 PUSH1 0xA0 SHL SUB DUP5 DUP2 AND PUSH1 0x4 DUP4 ADD MSTORE SWAP1 SWAP2 PUSH1 0x20 SWAP2 DUP4 SWAP2 PUSH1 0x24 SWAP2 DUP4 SWAP2 AND GAS STATICCALL SWAP1 DUP2 ISZERO PUSH2 0x98A JUMPI PUSH1 0x0 SWAP2 PUSH2 0x94F JUMPI JUMPDEST POP ISZERO PUSH2 0x911 JUMPI PUSH1 0x40 MLOAD DUP6 DUP6 DUP3 CALLDATACOPY PUSH1 0x20 DUP2 DUP8 DUP2 ADD PUSH1 0x3 DUP2 MSTORE SUB ADD SWAP1 KECCAK256 SLOAD PUSH2 0x8CC JUMPI PUSH1 0x1 SLOAD SWAP4 PUSH1 0x0 NOT DUP6 EQ PUSH2 0x8B6 JUMPI PUSH1 0x1 DUP6 ADD PUSH1 0x1 SSTORE PUSH1 0x40 MLOAD PUSH2 0x397 DUP2 PUSH2 0x1C2A JUMP JUMPDEST PUSH1 0x0 DUP2 MSTORE PUSH1 0x1 PUSH1 0x1 PUSH1 0xA0 SHL SUB DUP5 AND ISZERO PUSH2 0x89D JUMPI DUP6 PUSH1 0x0 MSTORE PUSH32 0x80BB2B638CC20BC4D0A60D66940F3AB4A00C1D7B313497CA82FB0B4AB0079302 DUP1 PUSH1 0x20 MSTORE DUP7 PUSH1 0x1 DUP1 PUSH1 0xA0 SHL SUB PUSH1 0x40 PUSH1 0x0 KECCAK256 SLOAD AND DUP1 ISZERO ISZERO SWAP3 DUP4 PUSH2 0x85E JUMPI JUMPDEST PUSH2 0x3F5 DUP9 PUSH2 0x1F69 JUMP JUMPDEST DUP1 SLOAD PUSH1 0x1 ADD SWAP1 SSTORE PUSH1 0x0 DUP4 DUP2 MSTORE PUSH1 0x20 SWAP2 SWAP1 SWAP2 MSTORE PUSH1 0x40 DUP2 KECCAK256 DUP1 SLOAD PUSH1 0x1 PUSH1 0x1 PUSH1 0xA0 SHL SUB NOT AND PUSH1 0x1 PUSH1 0x1 PUSH1 0xA0 SHL SUB DUP11 AND SWAP1 DUP2 OR SWAP1 SWAP2 SSTORE SWAP2 SWAP1 PUSH32 0xDDF252AD1BE2C89B69C2B068FC378DAA952BA7F163C4A11628F55A4DF523B3EF SWAP1 DUP1 LOG4 PUSH2 0x845 JUMPI DUP4 EXTCODESIZE PUSH2 0x72F JUMPI JUMPDEST POP PUSH2 0x464 CALLDATASIZE DUP6 DUP5 PUSH2 0x1D26 JUMP JUMPDEST DUP6 PUSH1 0x0 MSTORE PUSH32 0x542A41881EE128A365A727B282C86FA859579490B9BB45AAB8503648C8E7900 PUSH1 0x20 MSTORE PUSH1 0x40 PUSH1 0x0 KECCAK256 SWAP1 DUP1 MLOAD SWAP1 PUSH1 0x1 PUSH1 0x1 PUSH1 0x40 SHL SUB DUP3 GT PUSH2 0x6A2 JUMPI PUSH2 0x4B7 DUP3 PUSH2 0x4B1 DUP6 SLOAD PUSH2 0x1BD5 JUMP JUMPDEST DUP6 PUSH2 0x1FDB JUMP JUMPDEST PUSH1 0x20 SWAP1 PUSH1 0x1F DUP4 GT PUSH1 0x1 EQ PUSH2 0x6C3 JUMPI PUSH2 0x4E8 SWAP3 SWAP2 PUSH1 0x0 SWAP2 DUP4 PUSH2 0x6B8 JUMPI JUMPDEST POP POP DUP2 PUSH1 0x1 SHL SWAP2 PUSH1 0x0 NOT SWAP1 PUSH1 0x3 SHL SHR NOT AND OR SWAP1 JUMP JUMPDEST SWAP1 SSTORE JUMPDEST PUSH32 0xF8E1A15ABA9398E019F0B49DF1A4FDE98EE17AE345CB5F6B5E2C27F5033E8CE7 PUSH1 0x20 PUSH1 0x40 MLOAD DUP8 DUP2 MSTORE LOG1 DUP5 PUSH1 0x0 MSTORE PUSH1 0x2 PUSH1 0x20 MSTORE PUSH1 0x40 PUSH1 0x0 KECCAK256 PUSH1 0x1 PUSH1 0x1 PUSH1 0x40 SHL SUB DUP8 GT PUSH2 0x6A2 JUMPI DUP7 DUP7 SWAP3 DUP3 PUSH2 0x54C PUSH1 0x20 SWAP11 PUSH2 0x546 DUP11 SWAP7 SLOAD PUSH2 0x1BD5 JUMP JUMPDEST DUP4 PUSH2 0x1FDB JUMP JUMPDEST PUSH1 0x0 PUSH1 0x1F DUP5 GT PUSH1 0x1 EQ PUSH2 0x610 JUMPI SWAP2 DUP4 SWAP2 PUSH2 0x5A3 DUP4 PUSH1 0x40 SWAP7 PUSH32 0x598BE0457A5B817AD8396BD990F45B72BCF94255A48FBBE17A6087D0DADDD6BC SWAP10 SWAP11 SWAP7 PUSH1 0x0 SWAP2 PUSH2 0x605 JUMPI JUMPDEST POP DUP2 PUSH1 0x1 SHL SWAP2 PUSH1 0x0 NOT SWAP1 PUSH1 0x3 SHL SHR NOT AND OR SWAP1 JUMP JUMPDEST SWAP1 SSTORE JUMPDEST DUP7 DUP5 MLOAD DUP4 DUP4 DUP3 CALLDATACOPY DUP13 DUP2 DUP6 DUP2 ADD PUSH1 0x3 DUP2 MSTORE SUB ADD SWAP1 KECCAK256 SSTORE DUP2 DUP5 MLOAD SWAP3 DUP4 SWAP3 DUP4 CALLDATACOPY DUP2 ADD PUSH1 0x0 DUP2 MSTORE SUB SWAP1 KECCAK256 SWAP6 DUP3 MLOAD SWAP4 DUP5 SWAP3 DUP12 DUP5 MSTORE DUP2 DUP13 DUP6 ADD MSTORE DUP5 DUP5 ADD CALLDATACOPY PUSH1 0x0 DUP3 DUP10 ADD DUP5 ADD MSTORE PUSH1 0x1 PUSH1 0x1 PUSH1 0xA0 SHL SUB AND SWAP7 PUSH1 0x1F ADD PUSH1 0x1F NOT AND DUP2 ADD SUB ADD SWAP1 LOG4 PUSH1 0x40 MLOAD SWAP1 DUP2 MSTORE RETURN JUMPDEST SWAP1 POP DUP5 ADD CALLDATALOAD DUP16 PUSH2 0x58F JUMP JUMPDEST PUSH1 0x1F NOT DUP5 AND SWAP1 DUP3 PUSH1 0x0 MSTORE DUP12 PUSH1 0x0 KECCAK256 SWAP2 PUSH1 0x0 JUMPDEST DUP2 DUP2 LT PUSH2 0x685 JUMPI POP SWAP2 DUP6 SWAP4 SWAP2 PUSH1 0x40 SWAP7 PUSH32 0x598BE0457A5B817AD8396BD990F45B72BCF94255A48FBBE17A6087D0DADDD6BC SWAP10 SWAP11 SWAP7 SWAP5 LT PUSH2 0x66B JUMPI JUMPDEST POP POP PUSH1 0x1 DUP4 DUP2 SHL ADD SWAP1 SSTORE PUSH2 0x5A6 JUMP JUMPDEST DUP4 ADD CALLDATALOAD PUSH1 0x0 NOT PUSH1 0x3 DUP7 SWAP1 SHL PUSH1 0xF8 AND SHR NOT AND SWAP1 SSTORE DUP13 DUP1 PUSH2 0x65C JUMP JUMPDEST DUP3 DUP7 ADD CALLDATALOAD DUP5 SSTORE DUP13 SWAP9 POP DUP12 SWAP8 POP PUSH1 0x1 SWAP1 SWAP4 ADD SWAP3 SWAP2 DUP14 ADD SWAP2 DUP14 ADD PUSH2 0x622 JUMP JUMPDEST PUSH4 0x4E487B71 PUSH1 0xE0 SHL PUSH1 0x0 MSTORE PUSH1 0x41 PUSH1 0x4 MSTORE PUSH1 0x24 PUSH1 0x0 REVERT JUMPDEST ADD MLOAD SWAP1 POP DUP11 DUP1 PUSH2 0x4D3 JUMP JUMPDEST SWAP2 SWAP1 DUP4 PUSH1 0x0 MSTORE PUSH1 0x20 PUSH1 0x0 KECCAK256 SWAP1 PUSH1 0x0 SWAP4 JUMPDEST PUSH1 0x1F NOT DUP5 AND DUP6 LT PUSH2 0x714 JUMPI PUSH1 0x1 SWAP5 POP DUP4 PUSH1 0x1F NOT DUP2 AND LT PUSH2 0x6FB JUMPI JUMPDEST POP POP POP DUP2 SHL ADD SWAP1 SSTORE PUSH2 0x4EB JUMP JUMPDEST ADD MLOAD PUSH1 0x0 NOT PUSH1 0xF8 DUP5 PUSH1 0x3 SHL AND SHR NOT AND SWAP1 SSTORE DUP10 DUP1 DUP1 PUSH2 0x6EE JUMP JUMPDEST DUP2 DUP2 ADD MLOAD DUP4 SSTORE PUSH1 0x20 SWAP5 DUP6 ADD SWAP5 PUSH1 0x1 SWAP1 SWAP4 ADD SWAP3 SWAP1 SWAP2 ADD SWAP1 PUSH2 0x6D3 JUMP JUMPDEST PUSH1 0x40 SWAP7 SWAP6 SWAP5 SWAP4 SWAP7 MLOAD PUSH1 0x20 DUP2 DUP1 PUSH2 0x76E PUSH4 0xA85BD01 PUSH1 0xE1 SHL SWAP6 DUP7 DUP4 MSTORE CALLER PUSH1 0x4 DUP5 ADD MSTORE PUSH1 0x0 PUSH1 0x24 DUP5 ADD MSTORE DUP11 PUSH1 0x44 DUP5 ADD MSTORE PUSH1 0x80 PUSH1 0x64 DUP5 ADD MSTORE PUSH1 0x84 DUP4 ADD SWAP1 PUSH2 0x1B4F JUMP JUMPDEST SUB DUP2 PUSH1 0x0 PUSH1 0x1 PUSH1 0x1 PUSH1 0xA0 SHL SUB DUP14 AND GAS CALL PUSH1 0x0 SWAP2 DUP2 PUSH2 0x800 JUMPI JUMPDEST POP PUSH2 0x7C6 JUMPI DUP8 PUSH2 0x795 PUSH2 0x232A JUMP JUMPDEST DUP1 MLOAD SWAP2 SWAP1 DUP3 PUSH2 0x7BF JUMPI PUSH1 0x40 MLOAD PUSH4 0x32505749 PUSH1 0xE1 SHL DUP2 MSTORE PUSH1 0x1 PUSH1 0x1 PUSH1 0xA0 SHL SUB DUP4 AND PUSH1 0x4 DUP3 ADD MSTORE PUSH1 0x24 SWAP1 REVERT JUMPDEST PUSH1 0x20 SWAP2 POP ADD REVERT JUMPDEST PUSH4 0xFFFFFFFF PUSH1 0xE0 SWAP9 SWAP6 SWAP7 SWAP8 SWAP9 SHL AND SUB PUSH2 0x7DF JUMPI DUP7 PUSH2 0x458 JUMP JUMPDEST PUSH1 0x40 MLOAD PUSH4 0x32505749 PUSH1 0xE1 SHL DUP2 MSTORE PUSH1 0x1 PUSH1 0x1 PUSH1 0xA0 SHL SUB DUP5 AND PUSH1 0x4 DUP3 ADD MSTORE PUSH1 0x24 SWAP1 REVERT JUMPDEST SWAP1 SWAP2 POP PUSH1 0x20 DUP2 RETURNDATASIZE PUSH1 0x20 GT PUSH2 0x83D JUMPI JUMPDEST DUP2 PUSH2 0x81C PUSH1 0x20 SWAP4 DUP4 PUSH2 0x1C45 JUMP JUMPDEST DUP2 ADD SUB SLT PUSH2 0x1AC JUMPI MLOAD PUSH1 0x1 PUSH1 0x1 PUSH1 0xE0 SHL SUB NOT DUP2 AND DUP2 SUB PUSH2 0x1AC JUMPI SWAP1 DUP10 PUSH2 0x787 JUMP JUMPDEST RETURNDATASIZE SWAP2 POP PUSH2 0x80F JUMP JUMPDEST PUSH1 0x40 MLOAD PUSH4 0x39E35637 PUSH1 0xE1 SHL DUP2 MSTORE PUSH1 0x0 PUSH1 0x4 DUP3 ADD MSTORE PUSH1 0x24 SWAP1 REVERT JUMPDEST PUSH1 0x0 DUP4 DUP2 MSTORE PUSH1 0x0 DUP1 MLOAD PUSH1 0x20 PUSH2 0x256A DUP4 CODECOPY DUP2 MLOAD SWAP2 MSTORE PUSH1 0x20 MSTORE PUSH1 0x40 SWAP1 KECCAK256 DUP1 SLOAD PUSH1 0x1 PUSH1 0x1 PUSH1 0xA0 SHL SUB NOT AND SWAP1 SSTORE PUSH2 0x890 DUP3 PUSH2 0x1F69 JUMP JUMPDEST DUP1 SLOAD PUSH1 0x0 NOT ADD SWAP1 SSTORE PUSH2 0x3EC JUMP JUMPDEST PUSH1 0x40 MLOAD PUSH4 0x32505749 PUSH1 0xE1 SHL DUP2 MSTORE PUSH1 0x0 PUSH1 0x4 DUP3 ADD MSTORE PUSH1 0x24 SWAP1 REVERT JUMPDEST PUSH4 0x4E487B71 PUSH1 0xE0 SHL PUSH1 0x0 MSTORE PUSH1 0x11 PUSH1 0x4 MSTORE PUSH1 0x24 PUSH1 0x0 REVERT JUMPDEST PUSH1 0x40 MLOAD PUSH3 0x461BCD PUSH1 0xE5 SHL DUP2 MSTORE PUSH1 0x20 PUSH1 0x4 DUP3 ADD MSTORE PUSH1 0x17 PUSH1 0x24 DUP3 ADD MSTORE PUSH32 0x426174636820616C726561647920746F6B656E697A6564000000000000000000 PUSH1 0x44 DUP3 ADD MSTORE PUSH1 0x64 SWAP1 REVERT JUMPDEST PUSH1 0x40 MLOAD PUSH3 0x461BCD PUSH1 0xE5 SHL DUP2 MSTORE PUSH1 0x20 PUSH1 0x4 DUP3 ADD MSTORE PUSH1 0x16 PUSH1 0x24 DUP3 ADD MSTORE PUSH22 0x141C9BD91D58D95C881B9BDD0818D95C9D1A599A5959 PUSH1 0x52 SHL PUSH1 0x44 DUP3 ADD MSTORE PUSH1 0x64 SWAP1 REVERT JUMPDEST SWAP1 POP PUSH1 0x20 DUP2 RETURNDATASIZE PUSH1 0x20 GT PUSH2 0x982 JUMPI JUMPDEST DUP2 PUSH2 0x96A PUSH1 0x20 SWAP4 DUP4 PUSH2 0x1C45 JUMP JUMPDEST DUP2 ADD SUB SLT PUSH2 0x1AC JUMPI MLOAD DUP1 ISZERO ISZERO DUP2 SUB PUSH2 0x1AC JUMPI DUP7 PUSH2 0x357 JUMP JUMPDEST RETURNDATASIZE SWAP2 POP PUSH2 0x95D JUMP JUMPDEST PUSH1 0x40 MLOAD RETURNDATASIZE PUSH1 0x0 DUP3 RETURNDATACOPY RETURNDATASIZE SWAP1 REVERT JUMPDEST PUSH1 0x44 SWAP1 PUSH1 0x40 MLOAD SWAP1 PUSH4 0xE2517D3F PUSH1 0xE0 SHL DUP3 MSTORE CALLER PUSH1 0x4 DUP4 ADD MSTORE PUSH1 0x24 DUP3 ADD MSTORE REVERT JUMPDEST CALLVALUE PUSH2 0x1AC JUMPI PUSH1 0x20 CALLDATASIZE PUSH1 0x3 NOT ADD SLT PUSH2 0x1AC JUMPI PUSH1 0x4 CALLDATALOAD PUSH2 0x9D1 DUP2 PUSH2 0x2031 JUMP JUMPDEST POP PUSH1 0x0 MSTORE PUSH32 0x542A41881EE128A365A727B282C86FA859579490B9BB45AAB8503648C8E7900 PUSH1 0x20 MSTORE PUSH2 0xA2C PUSH2 0xA09 PUSH1 0x40 PUSH1 0x0 KECCAK256 PUSH2 0x1C66 JUMP JUMPDEST PUSH1 0x0 PUSH1 0x40 MLOAD PUSH2 0xA17 DUP2 PUSH2 0x1C2A JUMP JUMPDEST MSTORE PUSH1 0x40 MLOAD SWAP2 DUP3 SWAP2 PUSH1 0x20 DUP4 MSTORE PUSH1 0x20 DUP4 ADD SWAP1 PUSH2 0x1B4F JUMP JUMPDEST SUB SWAP1 RETURN JUMPDEST CALLVALUE PUSH2 0x1AC JUMPI PUSH1 0x80 CALLDATASIZE PUSH1 0x3 NOT ADD SLT PUSH2 0x1AC JUMPI PUSH2 0xA49 PUSH2 0x1B74 JUMP JUMPDEST PUSH2 0xA51 PUSH2 0x1B8A JUMP JUMPDEST SWAP1 PUSH1 0x44 CALLDATALOAD PUSH1 0x64 CALLDATALOAD SWAP3 PUSH1 0x1 PUSH1 0x1 PUSH1 0x40 SHL SUB DUP5 GT PUSH2 0x1AC JUMPI PUSH2 0xA78 PUSH2 0x226 SWAP5 CALLDATASIZE SWAP1 PUSH1 0x4 ADD PUSH2 0x1D5D JUMP JUMPDEST SWAP3 PUSH2 0xA84 DUP4 DUP4 DUP4 PUSH2 0x1DA8 JUMP JUMPDEST CALLER PUSH2 0x235A JUMP JUMPDEST CALLVALUE PUSH2 0x1AC JUMPI PUSH1 0x0 CALLDATASIZE PUSH1 0x3 NOT ADD SLT PUSH2 0x1AC JUMPI PUSH2 0xA2C PUSH1 0x40 MLOAD PUSH2 0xAAA DUP2 PUSH2 0x1C0F JUMP JUMPDEST PUSH1 0x5 DUP2 MSTORE PUSH5 0x352E302E3 PUSH1 0xDC SHL PUSH1 0x20 DUP3 ADD MSTORE PUSH1 0x40 MLOAD SWAP2 DUP3 SWAP2 PUSH1 0x20 DUP4 MSTORE PUSH1 0x20 DUP4 ADD SWAP1 PUSH2 0x1B4F JUMP JUMPDEST CALLVALUE PUSH2 0x1AC JUMPI PUSH1 0x40 CALLDATASIZE PUSH1 0x3 NOT ADD SLT PUSH2 0x1AC JUMPI PUSH2 0xAE9 PUSH2 0x1B74 JUMP JUMPDEST PUSH1 0x24 CALLDATALOAD SWAP1 DUP2 ISZERO ISZERO DUP1 SWAP3 SUB PUSH2 0x1AC JUMPI PUSH1 0x1 PUSH1 0x1 PUSH1 0xA0 SHL SUB AND SWAP1 DUP2 ISZERO PUSH2 0xB57 JUMPI PUSH2 0xB10 CALLER PUSH2 0x1FA2 JUMP JUMPDEST DUP3 PUSH1 0x0 MSTORE PUSH1 0x20 MSTORE PUSH1 0x40 PUSH1 0x0 KECCAK256 PUSH1 0xFF NOT DUP2 SLOAD AND PUSH1 0xFF DUP4 AND OR SWAP1 SSTORE PUSH1 0x40 MLOAD SWAP1 DUP2 MSTORE PUSH32 0x17307EAB39AB6107E8899845AD3D59BD9653F200F220920489CA2B5937696C31 PUSH1 0x20 CALLER SWAP3 LOG3 STOP JUMPDEST PUSH1 0x40 MLOAD PUSH4 0xB611743 PUSH1 0xE3 SHL DUP2 MSTORE PUSH1 0x4 DUP2 ADD DUP4 SWAP1 MSTORE PUSH1 0x24 SWAP1 REVERT JUMPDEST CALLVALUE PUSH2 0x1AC JUMPI PUSH1 0x0 CALLDATASIZE PUSH1 0x3 NOT ADD SLT PUSH2 0x1AC JUMPI PUSH1 0x20 PUSH1 0x40 MLOAD PUSH1 0x0 DUP2 MSTORE RETURN JUMPDEST CALLVALUE PUSH2 0x1AC JUMPI PUSH1 0x20 CALLDATASIZE PUSH1 0x3 NOT ADD SLT PUSH2 0x1AC JUMPI PUSH1 0x4 CALLDATALOAD PUSH1 0x1 PUSH1 0x1 PUSH1 0x40 SHL SUB DUP2 GT PUSH2 0x1AC JUMPI CALLDATASIZE PUSH1 0x23 DUP3 ADD SLT ISZERO PUSH2 0x1AC JUMPI PUSH2 0xBE6 PUSH1 0x20 PUSH2 0xBD3 DUP2 SWAP4 CALLDATASIZE SWAP1 PUSH1 0x24 DUP2 PUSH1 0x4 ADD CALLDATALOAD SWAP2 ADD PUSH2 0x1D26 JUMP JUMPDEST DUP2 PUSH1 0x40 MLOAD SWAP4 DUP3 DUP6 DUP1 SWAP5 MLOAD SWAP4 DUP5 SWAP3 ADD PUSH2 0x1B2C JUMP JUMPDEST DUP2 ADD PUSH1 0x3 DUP2 MSTORE SUB ADD SWAP1 KECCAK256 SLOAD PUSH1 0x40 MLOAD SWAP1 DUP2 MSTORE RETURN JUMPDEST CALLVALUE PUSH2 0x1AC JUMPI PUSH1 0x0 CALLDATASIZE PUSH1 0x3 NOT ADD SLT PUSH2 0x1AC JUMPI PUSH1 0x40 MLOAD PUSH1 0x0 DUP1 MLOAD PUSH1 0x20 PUSH2 0x25AA DUP4 CODECOPY DUP2 MLOAD SWAP2 MSTORE DUP1 SLOAD DUP3 PUSH1 0x0 PUSH2 0xC2A DUP4 PUSH2 0x1BD5 JUMP JUMPDEST SWAP3 DUP4 DUP4 MSTORE PUSH1 0x20 SWAP5 PUSH1 0x1 SWAP2 DUP7 PUSH1 0x1 DUP3 AND SWAP2 DUP3 PUSH1 0x0 EQ PUSH2 0xCB8 JUMPI POP POP PUSH1 0x1 EQ PUSH2 0xC6E JUMPI JUMPDEST POP POP PUSH2 0xC5A SWAP3 POP SUB DUP4 PUSH2 0x1C45 JUMP JUMPDEST PUSH2 0xA2C PUSH1 0x40 MLOAD SWAP3 DUP3 DUP5 SWAP4 DUP5 MSTORE DUP4 ADD SWAP1 PUSH2 0x1B4F JUMP JUMPDEST DUP6 SWAP3 POP PUSH1 0x0 MSTORE PUSH1 0x0 DUP1 MLOAD PUSH1 0x20 PUSH2 0x252A DUP4 CODECOPY DUP2 MLOAD SWAP2 MSTORE SWAP1 PUSH1 0x0 SWAP2 JUMPDEST DUP6 DUP4 LT PUSH2 0xCA0 JUMPI POP POP PUSH2 0xC5A SWAP4 POP DUP3 ADD ADD DUP6 DUP1 PUSH2 0xC4C JUMP JUMPDEST DUP1 SLOAD DUP4 DUP10 ADD DUP6 ADD MSTORE DUP8 SWAP5 POP DUP7 SWAP4 SWAP1 SWAP3 ADD SWAP2 DUP2 ADD PUSH2 0xC88 JUMP JUMPDEST SWAP3 POP SWAP4 POP POP PUSH2 0xC5A SWAP5 SWAP2 POP PUSH1 0xFF NOT AND DUP3 DUP5 ADD MSTORE ISZERO ISZERO PUSH1 0x5 SHL DUP3 ADD ADD DUP6 DUP1 PUSH2 0xC4C JUMP JUMPDEST CALLVALUE PUSH2 0x1AC JUMPI PUSH1 0x40 CALLDATASIZE PUSH1 0x3 NOT ADD SLT PUSH2 0x1AC JUMPI PUSH2 0xCF3 PUSH2 0x1B8A JUMP JUMPDEST PUSH1 0x4 CALLDATALOAD PUSH1 0x0 MSTORE PUSH1 0x0 DUP1 MLOAD PUSH1 0x20 PUSH2 0x254A DUP4 CODECOPY DUP2 MLOAD SWAP2 MSTORE PUSH1 0x20 MSTORE PUSH1 0x40 PUSH1 0x0 KECCAK256 SWAP1 PUSH1 0x1 DUP1 PUSH1 0xA0 SHL SUB AND PUSH1 0x0 MSTORE PUSH1 0x20 MSTORE PUSH1 0x20 PUSH1 0xFF PUSH1 0x40 PUSH1 0x0 KECCAK256 SLOAD AND PUSH1 0x40 MLOAD SWAP1 ISZERO ISZERO DUP2 MSTORE RETURN JUMPDEST CALLVALUE PUSH2 0x1AC JUMPI PUSH1 0x20 CALLDATASIZE PUSH1 0x3 NOT ADD SLT PUSH2 0x1AC JUMPI PUSH2 0xD4D PUSH2 0x1B74 JUMP JUMPDEST PUSH1 0x1 PUSH1 0x1 PUSH1 0xA0 SHL SUB DUP2 AND ISZERO PUSH2 0xD70 JUMPI PUSH2 0xD67 PUSH1 0x20 SWAP2 PUSH2 0x1F69 JUMP JUMPDEST SLOAD PUSH1 0x40 MLOAD SWAP1 DUP2 MSTORE RETURN JUMPDEST PUSH1 0x40 MLOAD PUSH4 0x22718AD9 PUSH1 0xE2 SHL DUP2 MSTORE PUSH1 0x0 PUSH1 0x4 DUP3 ADD MSTORE PUSH1 0x24 SWAP1 REVERT JUMPDEST CALLVALUE PUSH2 0x1AC JUMPI PUSH1 0x20 CALLDATASIZE PUSH1 0x3 NOT ADD SLT PUSH2 0x1AC JUMPI PUSH1 0x20 PUSH2 0xDA7 PUSH1 0x4 CALLDATALOAD PUSH2 0x2031 JUMP JUMPDEST PUSH1 0x40 MLOAD PUSH1 0x1 PUSH1 0x1 PUSH1 0xA0 SHL SUB SWAP1 SWAP2 AND DUP2 MSTORE RETURN JUMPDEST CALLVALUE PUSH2 0x1AC JUMPI PUSH1 0x0 CALLDATASIZE PUSH1 0x3 NOT ADD SLT PUSH2 0x1AC JUMPI PUSH32 0x0 PUSH1 0x1 PUSH1 0x1 PUSH1 0xA0 SHL SUB AND ADDRESS SUB PUSH2 0xE24 JUMPI PUSH1 0x20 PUSH1 0x40 MLOAD PUSH32 0x360894A13BA1A3210667C828492DB98DCA3E2076CC3735A920A3CA505D382BBC DUP2 MSTORE RETURN JUMPDEST PUSH1 0x40 MLOAD PUSH4 0x703E46DD PUSH1 0xE1 SHL DUP2 MSTORE PUSH1 0x4 SWAP1 REVERT JUMPDEST PUSH1 0x40 CALLDATASIZE PUSH1 0x3 NOT ADD SLT PUSH2 0x1AC JUMPI PUSH2 0xE4A PUSH2 0x1B74 JUMP JUMPDEST PUSH1 0x24 CALLDATALOAD PUSH1 0x1 PUSH1 0x1 PUSH1 0x40 SHL SUB DUP2 GT PUSH2 0x1AC JUMPI PUSH2 0xE69 SWAP1 CALLDATASIZE SWAP1 PUSH1 0x4 ADD PUSH2 0x1D5D JUMP JUMPDEST SWAP1 PUSH1 0x1 PUSH1 0x1 PUSH1 0xA0 SHL SUB SWAP1 PUSH32 0x0 DUP3 AND ADDRESS DUP2 EQ SWAP1 DUP2 ISZERO PUSH2 0x104D JUMPI JUMPDEST POP PUSH2 0xE24 JUMPI CALLER PUSH1 0x0 SWAP1 DUP2 MSTORE PUSH32 0xB7DB2DD08FCB62D0C9E08C51941CAE53C267786A0B75803FB7960902FC8EF97D PUSH1 0x20 SWAP1 DUP2 MSTORE PUSH1 0x40 SWAP1 SWAP2 KECCAK256 SLOAD SWAP1 SWAP3 SWAP1 PUSH1 0xFF AND ISZERO PUSH2 0x102E JUMPI DUP2 AND SWAP2 PUSH1 0x40 MLOAD PUSH4 0x52D1902D PUSH1 0xE0 SHL DUP2 MSTORE DUP2 DUP2 PUSH1 0x4 DUP2 DUP8 GAS STATICCALL PUSH1 0x0 SWAP2 DUP2 PUSH2 0xFFF JUMPI JUMPDEST POP PUSH2 0xF22 JUMPI PUSH1 0x40 MLOAD PUSH4 0x4C9C8CE3 PUSH1 0xE0 SHL DUP2 MSTORE PUSH1 0x4 DUP2 ADD DUP6 SWAP1 MSTORE PUSH1 0x24 SWAP1 REVERT JUMPDEST SWAP3 DUP5 SWAP4 PUSH32 0x360894A13BA1A3210667C828492DB98DCA3E2076CC3735A920A3CA505D382BBC SWAP1 DUP2 DUP2 SUB PUSH2 0xFE7 JUMPI POP DUP4 EXTCODESIZE ISZERO PUSH2 0xFCE JUMPI DUP1 SLOAD PUSH1 0x1 PUSH1 0x1 PUSH1 0xA0 SHL SUB NOT AND DUP3 OR SWAP1 SSTORE PUSH1 0x40 MLOAD SWAP1 PUSH32 0xBC7CD75A20EE27FD9ADEBAB32041F755214DBC6BFFA90CC0225B39DA2E5C2D3B PUSH1 0x0 DUP1 LOG2 DUP4 MLOAD ISZERO PUSH2 0xFB4 JUMPI POP PUSH1 0x0 DUP4 DUP2 SWAP3 PUSH2 0x226 SWAP6 MLOAD SWAP2 ADD DUP5 GAS DELEGATECALL PUSH2 0xFAE PUSH2 0x232A JUMP JUMPDEST SWAP2 PUSH2 0x24A6 JUMP JUMPDEST SWAP3 POP POP POP CALLVALUE PUSH2 0xFBF JUMPI STOP JUMPDEST PUSH4 0xB398979F PUSH1 0xE0 SHL DUP2 MSTORE PUSH1 0x4 SWAP1 REVERT JUMPDEST PUSH1 0x40 MLOAD PUSH4 0x4C9C8CE3 PUSH1 0xE0 SHL DUP2 MSTORE PUSH1 0x4 DUP2 ADD DUP4 SWAP1 MSTORE PUSH1 0x24 SWAP1 REVERT JUMPDEST PUSH1 0x24 SWAP1 PUSH1 0x40 MLOAD SWAP1 PUSH4 0x2A875269 PUSH1 0xE2 SHL DUP3 MSTORE PUSH1 0x4 DUP3 ADD MSTORE REVERT JUMPDEST SWAP1 SWAP2 POP DUP3 DUP2 DUP2 RETURNDATASIZE DUP4 GT PUSH2 0x1027 JUMPI JUMPDEST PUSH2 0x1017 DUP2 DUP4 PUSH2 0x1C45 JUMP JUMPDEST DUP2 ADD SUB SLT PUSH2 0x1AC JUMPI MLOAD SWAP1 DUP7 PUSH2 0xF04 JUMP JUMPDEST POP RETURNDATASIZE PUSH2 0x100D JUMP JUMPDEST PUSH1 0x40 MLOAD PUSH4 0xE2517D3F PUSH1 0xE0 SHL DUP2 MSTORE CALLER PUSH1 0x4 DUP3 ADD MSTORE PUSH1 0x0 PUSH1 0x24 DUP3 ADD MSTORE PUSH1 0x44 SWAP1 REVERT JUMPDEST SWAP1 POP DUP3 PUSH32 0x360894A13BA1A3210667C828492DB98DCA3E2076CC3735A920A3CA505D382BBC SLOAD AND EQ ISZERO DUP5 PUSH2 0xEA1 JUMP JUMPDEST CALLVALUE PUSH2 0x1AC JUMPI PUSH2 0x226 PUSH2 0x108C CALLDATASIZE PUSH2 0x1BA0 JUMP JUMPDEST SWAP1 PUSH1 0x40 MLOAD SWAP3 PUSH2 0x109A DUP5 PUSH2 0x1C2A JUMP JUMPDEST PUSH1 0x0 DUP5 MSTORE PUSH2 0xA84 DUP4 DUP4 DUP4 PUSH2 0x1DA8 JUMP JUMPDEST CALLVALUE PUSH2 0x1AC JUMPI PUSH1 0x40 CALLDATASIZE PUSH1 0x3 NOT ADD SLT PUSH2 0x1AC JUMPI PUSH2 0x10C2 PUSH2 0x1B8A JUMP JUMPDEST CALLER PUSH1 0x1 PUSH1 0x1 PUSH1 0xA0 SHL SUB DUP3 AND SUB PUSH2 0x10DE JUMPI PUSH2 0x226 SWAP1 PUSH1 0x4 CALLDATALOAD PUSH2 0x22A7 JUMP JUMPDEST PUSH1 0x40 MLOAD PUSH4 0x334BD919 PUSH1 0xE1 SHL DUP2 MSTORE PUSH1 0x4 SWAP1 REVERT JUMPDEST CALLVALUE PUSH2 0x1AC JUMPI PUSH1 0x20 CALLDATASIZE PUSH1 0x3 NOT ADD SLT PUSH2 0x1AC JUMPI PUSH1 0x4 CALLDATALOAD PUSH1 0x0 MSTORE PUSH1 0x2 PUSH1 0x20 MSTORE PUSH2 0xA2C PUSH2 0x111C PUSH1 0x40 PUSH1 0x0 KECCAK256 PUSH2 0x1C66 JUMP JUMPDEST PUSH1 0x40 MLOAD SWAP2 DUP3 SWAP2 PUSH1 0x20 DUP4 MSTORE PUSH1 0x20 DUP4 ADD SWAP1 PUSH2 0x1B4F JUMP JUMPDEST CALLVALUE PUSH2 0x1AC JUMPI PUSH1 0x40 CALLDATASIZE PUSH1 0x3 NOT ADD SLT PUSH2 0x1AC JUMPI PUSH2 0x226 PUSH1 0x4 CALLDATALOAD PUSH2 0x114F PUSH2 0x1B8A JUMP JUMPDEST SWAP1 DUP1 PUSH1 0x0 MSTORE PUSH1 0x0 DUP1 MLOAD PUSH1 0x20 PUSH2 0x254A DUP4 CODECOPY DUP2 MLOAD SWAP2 MSTORE PUSH1 0x20 MSTORE PUSH2 0x1177 PUSH1 0x1 PUSH1 0x40 PUSH1 0x0 KECCAK256 ADD SLOAD PUSH2 0x2274 JUMP JUMPDEST PUSH2 0x21ED JUMP JUMPDEST CALLVALUE PUSH2 0x1AC JUMPI PUSH1 0x40 CALLDATASIZE PUSH1 0x3 NOT ADD SLT PUSH2 0x1AC JUMPI PUSH1 0x24 CALLDATALOAD PUSH1 0x4 CALLDATALOAD PUSH1 0x0 MSTORE PUSH32 0xDAEDC9AB023613A7CAF35E703657E986CCFAD7E3EB0AF93A2853F8D65DD86B01 PUSH1 0x20 MSTORE PUSH1 0x40 PUSH1 0x0 KECCAK256 SLOAD SWAP1 PUSH1 0x1 DUP1 PUSH1 0xA0 SHL SUB DUP1 DUP4 AND SWAP3 PUSH1 0xA0 SHR SWAP1 DUP4 ISZERO PUSH2 0x1212 JUMPI JUMPDEST POP PUSH1 0x1 PUSH1 0x1 PUSH1 0x60 SHL SUB AND SWAP1 DUP2 DUP2 MUL SWAP2 DUP2 DUP4 DIV EQ SWAP1 ISZERO OR ISZERO PUSH2 0x8B6 JUMPI PUSH1 0x40 DUP1 MLOAD PUSH1 0x1 PUSH1 0x1 PUSH1 0xA0 SHL SUB SWAP4 SWAP1 SWAP4 AND DUP4 MSTORE PUSH2 0x2710 SWAP1 SWAP2 DIV PUSH1 0x20 DUP4 ADD MSTORE SWAP1 RETURN JUMPDEST PUSH32 0xDAEDC9AB023613A7CAF35E703657E986CCFAD7E3EB0AF93A2853F8D65DD86B00 SLOAD SWAP1 DUP2 AND SWAP4 POP PUSH1 0xA0 SHR SWAP1 POP PUSH1 0x1 PUSH1 0x1 PUSH1 0x60 SHL SUB PUSH2 0x11D7 JUMP JUMPDEST CALLVALUE PUSH2 0x1AC JUMPI PUSH1 0x20 CALLDATASIZE PUSH1 0x3 NOT ADD SLT PUSH2 0x1AC JUMPI PUSH1 0x4 CALLDATALOAD PUSH1 0x0 MSTORE PUSH1 0x0 DUP1 MLOAD PUSH1 0x20 PUSH2 0x254A DUP4 CODECOPY DUP2 MLOAD SWAP2 MSTORE PUSH1 0x20 MSTORE PUSH1 0x20 PUSH1 0x1 PUSH1 0x40 PUSH1 0x0 KECCAK256 ADD SLOAD PUSH1 0x40 MLOAD SWAP1 DUP2 MSTORE RETURN JUMPDEST CALLVALUE PUSH2 0x1AC JUMPI PUSH2 0x226 PUSH2 0x1298 CALLDATASIZE PUSH2 0x1BA0 JUMP JUMPDEST SWAP2 PUSH2 0x1DA8 JUMP JUMPDEST CALLVALUE PUSH2 0x1AC JUMPI PUSH1 0x80 CALLDATASIZE PUSH1 0x3 NOT ADD SLT PUSH2 0x1AC JUMPI PUSH2 0x12B7 PUSH2 0x1B74 JUMP JUMPDEST PUSH2 0x12BF PUSH2 0x1B8A JUMP JUMPDEST SWAP1 PUSH1 0x44 CALLDATALOAD PUSH1 0x1 PUSH1 0x1 PUSH1 0xA0 SHL SUB DUP2 AND DUP2 SUB PUSH2 0x1AC JUMPI PUSH1 0x1 PUSH1 0x1 PUSH1 0x60 SHL SUB PUSH1 0x64 CALLDATALOAD AND PUSH1 0x64 CALLDATALOAD SUB PUSH2 0x1AC JUMPI PUSH1 0x0 DUP1 MLOAD PUSH1 0x20 PUSH2 0x258A DUP4 CODECOPY DUP2 MLOAD SWAP2 MSTORE SLOAD SWAP2 PUSH1 0x1 PUSH1 0x1 PUSH1 0x40 SHL SUB DUP4 AND DUP1 ISZERO SWAP1 DUP2 PUSH2 0x1887 JUMPI JUMPDEST PUSH1 0x1 EQ SWAP1 DUP2 PUSH2 0x187D JUMPI JUMPDEST ISZERO SWAP1 DUP2 PUSH2 0x1874 JUMPI JUMPDEST POP PUSH2 0x1862 JUMPI PUSH1 0x1 PUSH1 0x1 PUSH1 0x1 PUSH1 0x40 SHL SUB NOT DUP5 AND OR PUSH1 0x0 DUP1 MLOAD PUSH1 0x20 PUSH2 0x258A DUP4 CODECOPY DUP2 MLOAD SWAP2 MSTORE SSTORE PUSH1 0xFF DUP4 PUSH1 0x40 SHR AND ISZERO PUSH2 0x1835 JUMPI JUMPDEST PUSH1 0x40 MLOAD PUSH2 0x1359 DUP2 PUSH2 0x1C0F JUMP JUMPDEST PUSH1 0x10 DUP2 MSTORE PUSH16 0x82CEE4DE84E4D2C8CECA4084C2E8C6D PUSH1 0x83 SHL PUSH1 0x20 DUP3 ADD MSTORE PUSH1 0x40 MLOAD SWAP1 PUSH2 0x1383 DUP3 PUSH2 0x1C0F JUMP JUMPDEST PUSH1 0x3 DUP3 MSTORE PUSH3 0x20A3A1 PUSH1 0xE9 SHL PUSH1 0x20 DUP4 ADD MSTORE PUSH2 0x139B PUSH2 0x2477 JUMP JUMPDEST PUSH2 0x13A3 PUSH2 0x2477 JUMP JUMPDEST DUP1 MLOAD SWAP1 PUSH1 0x1 PUSH1 0x1 PUSH1 0x40 SHL SUB DUP3 GT PUSH2 0x6A2 JUMPI PUSH2 0x13CC PUSH1 0x0 DUP1 MLOAD PUSH1 0x20 PUSH2 0x250A DUP4 CODECOPY DUP2 MLOAD SWAP2 MSTORE SLOAD PUSH2 0x1BD5 JUMP JUMPDEST PUSH1 0x1F DUP2 GT PUSH2 0x17BF JUMPI JUMPDEST POP PUSH1 0x20 SWAP1 PUSH1 0x1F DUP4 GT PUSH1 0x1 EQ PUSH2 0x172D JUMPI PUSH2 0x1406 SWAP3 SWAP2 PUSH1 0x0 SWAP2 DUP4 PUSH2 0x1618 JUMPI POP POP DUP2 PUSH1 0x1 SHL SWAP2 PUSH1 0x0 NOT SWAP1 PUSH1 0x3 SHL SHR NOT AND OR SWAP1 JUMP JUMPDEST PUSH1 0x0 DUP1 MLOAD PUSH1 0x20 PUSH2 0x250A DUP4 CODECOPY DUP2 MLOAD SWAP2 MSTORE SSTORE JUMPDEST DUP1 MLOAD SWAP1 PUSH1 0x1 PUSH1 0x1 PUSH1 0x40 SHL SUB DUP3 GT PUSH2 0x6A2 JUMPI PUSH2 0x1440 PUSH1 0x0 DUP1 MLOAD PUSH1 0x20 PUSH2 0x25AA DUP4 CODECOPY DUP2 MLOAD SWAP2 MSTORE SLOAD PUSH2 0x1BD5 JUMP JUMPDEST PUSH1 0x1F DUP2 GT PUSH2 0x16B7 JUMPI JUMPDEST POP PUSH1 0x20 SWAP1 PUSH1 0x1F DUP4 GT PUSH1 0x1 EQ PUSH2 0x1623 JUMPI SWAP2 DUP1 PUSH2 0x147F SWAP3 PUSH2 0x14BF SWAP6 SWAP5 PUSH1 0x0 SWAP3 PUSH2 0x1618 JUMPI POP POP DUP2 PUSH1 0x1 SHL SWAP2 PUSH1 0x0 NOT SWAP1 PUSH1 0x3 SHL SHR NOT AND OR SWAP1 JUMP JUMPDEST PUSH1 0x0 DUP1 MLOAD PUSH1 0x20 PUSH2 0x25AA DUP4 CODECOPY DUP2 MLOAD SWAP2 MSTORE SSTORE JUMPDEST PUSH2 0x1498 PUSH2 0x2477 JUMP JUMPDEST PUSH2 0x14A0 PUSH2 0x2477 JUMP JUMPDEST PUSH2 0x14A8 PUSH2 0x2477 JUMP JUMPDEST PUSH2 0x14B0 PUSH2 0x2477 JUMP JUMPDEST PUSH2 0x14B9 DUP2 PUSH2 0x208B JUMP JUMPDEST POP PUSH2 0x212B JUMP JUMPDEST POP PUSH1 0x1 PUSH1 0x1 PUSH1 0x60 SHL SUB PUSH1 0xA0 SHL SWAP3 PUSH1 0x1 DUP1 PUSH1 0xA0 SHL SUB AND DUP4 PUSH1 0x0 SLOAD AND OR PUSH1 0x0 SSTORE PUSH2 0x2710 DUP1 PUSH1 0x1 PUSH1 0x1 PUSH1 0x60 SHL SUB PUSH1 0x64 CALLDATALOAD AND GT PUSH2 0x15EF JUMPI POP PUSH1 0x1 PUSH1 0x1 PUSH1 0xA0 SHL SUB DUP2 AND ISZERO PUSH2 0x15D6 JUMPI PUSH1 0x40 MLOAD SWAP3 PUSH1 0x40 DUP5 ADD SWAP4 DUP1 DUP6 LT PUSH1 0x1 PUSH1 0x1 PUSH1 0x40 SHL SUB DUP7 GT OR PUSH2 0x6A2 JUMPI PUSH1 0x40 SWAP5 DUP6 MSTORE PUSH1 0x1 PUSH1 0x1 PUSH1 0xA0 SHL SUB SWAP3 SWAP1 SWAP3 AND DUP1 DUP4 MSTORE PUSH1 0x64 CALLDATALOAD PUSH1 0x1 PUSH1 0x1 PUSH1 0x60 SHL SUB DUP2 AND PUSH1 0x20 SWAP1 SWAP5 ADD SWAP4 SWAP1 SWAP4 MSTORE PUSH1 0xA0 SWAP3 SWAP1 SWAP3 SHL AND OR PUSH32 0xDAEDC9AB023613A7CAF35E703657E986CCFAD7E3EB0AF93A2853F8D65DD86B00 SSTORE SWAP1 SHR PUSH1 0xFF AND ISZERO PUSH2 0x157D JUMPI STOP JUMPDEST PUSH9 0xFF0000000000000000 NOT PUSH1 0x0 DUP1 MLOAD PUSH1 0x20 PUSH2 0x258A DUP4 CODECOPY DUP2 MLOAD SWAP2 MSTORE SLOAD AND PUSH1 0x0 DUP1 MLOAD PUSH1 0x20 PUSH2 0x258A DUP4 CODECOPY DUP2 MLOAD SWAP2 MSTORE SSTORE PUSH32 0xC7F505B2F371AE2175EE4913F4499E1F2633A7B5936321EED1CDAEB6115181D2 PUSH1 0x20 PUSH1 0x40 MLOAD PUSH1 0x1 DUP2 MSTORE LOG1 STOP JUMPDEST PUSH1 0x40 MLOAD PUSH4 0x5B6CC805 PUSH1 0xE1 SHL DUP2 MSTORE PUSH1 0x0 PUSH1 0x4 DUP3 ADD MSTORE PUSH1 0x24 SWAP1 REVERT JUMPDEST PUSH1 0x44 SWAP1 PUSH1 0x40 MLOAD SWAP1 PUSH4 0x6F483D09 PUSH1 0xE0 SHL DUP3 MSTORE PUSH1 0x1 PUSH1 0x1 PUSH1 0x60 SHL SUB PUSH1 0x64 CALLDATALOAD AND PUSH1 0x4 DUP4 ADD MSTORE PUSH1 0x24 DUP3 ADD MSTORE REVERT JUMPDEST ADD MLOAD SWAP1 POP DUP9 DUP1 PUSH2 0x4D3 JUMP JUMPDEST SWAP1 PUSH1 0x0 DUP1 MLOAD PUSH1 0x20 PUSH2 0x25AA DUP4 CODECOPY DUP2 MLOAD SWAP2 MSTORE PUSH1 0x0 MSTORE PUSH1 0x0 DUP1 MLOAD PUSH1 0x20 PUSH2 0x252A DUP4 CODECOPY DUP2 MLOAD SWAP2 MSTORE SWAP2 PUSH1 0x0 JUMPDEST PUSH1 0x1F NOT DUP6 AND DUP2 LT PUSH2 0x169F JUMPI POP SWAP2 DUP4 SWAP2 PUSH1 0x1 SWAP4 PUSH2 0x14BF SWAP7 SWAP6 PUSH1 0x1F NOT DUP2 AND LT PUSH2 0x1686 JUMPI JUMPDEST POP POP POP DUP2 SHL ADD PUSH1 0x0 DUP1 MLOAD PUSH1 0x20 PUSH2 0x25AA DUP4 CODECOPY DUP2 MLOAD SWAP2 MSTORE SSTORE PUSH2 0x1490 JUMP JUMPDEST ADD MLOAD PUSH1 0x0 NOT PUSH1 0xF8 DUP5 PUSH1 0x3 SHL AND SHR NOT AND SWAP1 SSTORE DUP8 DUP1 DUP1 PUSH2 0x166B JUMP JUMPDEST SWAP2 SWAP3 PUSH1 0x20 PUSH1 0x1 DUP2 SWAP3 DUP7 DUP6 ADD MLOAD DUP2 SSTORE ADD SWAP5 ADD SWAP3 ADD PUSH2 0x1649 JUMP JUMPDEST PUSH1 0x0 DUP1 MLOAD PUSH1 0x20 PUSH2 0x25AA DUP4 CODECOPY DUP2 MLOAD SWAP2 MSTORE PUSH1 0x0 MSTORE PUSH1 0x1F DUP4 ADD PUSH1 0x5 SHR PUSH1 0x0 DUP1 MLOAD PUSH1 0x20 PUSH2 0x252A DUP4 CODECOPY DUP2 MLOAD SWAP2 MSTORE ADD PUSH1 0x20 DUP5 LT PUSH2 0x1718 JUMPI JUMPDEST PUSH1 0x1F DUP3 ADD PUSH1 0x5 SHR PUSH1 0x0 DUP1 MLOAD PUSH1 0x20 PUSH2 0x252A DUP4 CODECOPY DUP2 MLOAD SWAP2 MSTORE ADD DUP2 LT PUSH2 0x170C JUMPI POP PUSH2 0x1449 JUMP JUMPDEST PUSH1 0x0 DUP2 SSTORE PUSH1 0x1 ADD PUSH2 0x16E9 JUMP JUMPDEST POP PUSH1 0x0 DUP1 MLOAD PUSH1 0x20 PUSH2 0x252A DUP4 CODECOPY DUP2 MLOAD SWAP2 MSTORE PUSH2 0x16E9 JUMP JUMPDEST SWAP2 SWAP1 PUSH1 0x0 DUP1 MLOAD PUSH1 0x20 PUSH2 0x250A DUP4 CODECOPY DUP2 MLOAD SWAP2 MSTORE PUSH1 0x0 MSTORE PUSH1 0x0 DUP1 MLOAD PUSH1 0x20 PUSH2 0x25CA DUP4 CODECOPY DUP2 MLOAD SWAP2 MSTORE SWAP1 PUSH1 0x0 SWAP4 JUMPDEST PUSH1 0x1F NOT DUP5 AND DUP6 LT PUSH2 0x17A4 JUMPI PUSH1 0x1 SWAP5 POP DUP4 PUSH1 0x1F NOT DUP2 AND LT PUSH2 0x178B JUMPI JUMPDEST POP POP POP DUP2 SHL ADD PUSH1 0x0 DUP1 MLOAD PUSH1 0x20 PUSH2 0x250A DUP4 CODECOPY DUP2 MLOAD SWAP2 MSTORE SSTORE PUSH2 0x1417 JUMP JUMPDEST ADD MLOAD PUSH1 0x0 NOT PUSH1 0xF8 DUP5 PUSH1 0x3 SHL AND SHR NOT AND SWAP1 SSTORE DUP8 DUP1 DUP1 PUSH2 0x1770 JUMP JUMPDEST DUP2 DUP2 ADD MLOAD DUP4 SSTORE PUSH1 0x20 SWAP5 DUP6 ADD SWAP5 PUSH1 0x1 SWAP1 SWAP4 ADD SWAP3 SWAP1 SWAP2 ADD SWAP1 PUSH2 0x1755 JUMP JUMPDEST PUSH1 0x0 DUP1 MLOAD PUSH1 0x20 PUSH2 0x250A DUP4 CODECOPY DUP2 MLOAD SWAP2 MSTORE PUSH1 0x0 MSTORE PUSH1 0x1F DUP4 ADD PUSH1 0x5 SHR PUSH1 0x0 DUP1 MLOAD PUSH1 0x20 PUSH2 0x25CA DUP4 CODECOPY DUP2 MLOAD SWAP2 MSTORE ADD PUSH1 0x20 DUP5 LT PUSH2 0x1820 JUMPI JUMPDEST PUSH1 0x1F DUP3 ADD PUSH1 0x5 SHR PUSH1 0x0 DUP1 MLOAD PUSH1 0x20 PUSH2 0x25CA DUP4 CODECOPY DUP2 MLOAD SWAP2 MSTORE ADD DUP2 LT PUSH2 0x1814 JUMPI POP PUSH2 0x13D5 JUMP JUMPDEST PUSH1 0x0 DUP2 SSTORE PUSH1 0x1 ADD PUSH2 0x17F1 JUMP JUMPDEST POP PUSH1 0x0 DUP1 MLOAD PUSH1 0x20 PUSH2 0x25CA DUP4 CODECOPY DUP2 MLOAD SWAP2 MSTORE PUSH2 0x17F1 JUMP JUMPDEST PUSH9 0xFFFFFFFFFFFFFFFFFF NOT DUP4 AND PUSH9 0x10000000000000001 OR PUSH1 0x0 DUP1 MLOAD PUSH1 0x20 PUSH2 0x258A DUP4 CODECOPY DUP2 MLOAD SWAP2 MSTORE SSTORE PUSH2 0x134D JUMP JUMPDEST PUSH1 0x40 MLOAD PUSH4 0xF92EE8A9 PUSH1 0xE0 SHL DUP2 MSTORE PUSH1 0x4 SWAP1 REVERT JUMPDEST SWAP1 POP ISZERO DUP6 PUSH2 0x131D JUMP JUMPDEST ADDRESS EXTCODESIZE ISZERO SWAP2 POP PUSH2 0x1315 JUMP JUMPDEST PUSH1 0x40 DUP6 SWAP1 SHR PUSH1 0xFF AND ISZERO SWAP2 POP PUSH2 0x130B JUMP JUMPDEST CALLVALUE PUSH2 0x1AC JUMPI PUSH1 0x40 CALLDATASIZE PUSH1 0x3 NOT ADD SLT PUSH2 0x1AC JUMPI PUSH2 0x18B0 PUSH2 0x1B74 JUMP JUMPDEST PUSH1 0x24 CALLDATALOAD PUSH2 0x18BC DUP2 PUSH2 0x2031 JUMP JUMPDEST CALLER ISZERO ISZERO DUP1 PUSH2 0x196B JUMPI JUMPDEST DUP1 PUSH2 0x194B JUMPI JUMPDEST PUSH2 0x1933 JUMPI PUSH1 0x1 PUSH1 0x1 PUSH1 0xA0 SHL SUB SWAP3 DUP4 AND SWAP3 DUP3 SWAP2 DUP5 SWAP2 AND PUSH32 0x8C5BE1E5EBEC7D5BD14F71427D1E84F3DD0314C0F7B2291E5B200AC8C7C3B925 PUSH1 0x0 DUP1 LOG4 PUSH1 0x0 SWAP1 DUP2 MSTORE PUSH1 0x0 DUP1 MLOAD PUSH1 0x20 PUSH2 0x256A DUP4 CODECOPY DUP2 MLOAD SWAP2 MSTORE PUSH1 0x20 MSTORE PUSH1 0x40 SWAP1 KECCAK256 DUP1 SLOAD PUSH1 0x1 PUSH1 0x1 PUSH1 0xA0 SHL SUB NOT AND SWAP1 SWAP2 OR SWAP1 SSTORE STOP JUMPDEST PUSH1 0x40 MLOAD PUSH4 0xA9FBF51F PUSH1 0xE0 SHL DUP2 MSTORE CALLER PUSH1 0x4 DUP3 ADD MSTORE PUSH1 0x24 SWAP1 REVERT JUMPDEST POP PUSH2 0x1955 DUP2 PUSH2 0x1FA2 JUMP JUMPDEST CALLER PUSH1 0x0 MSTORE PUSH1 0x20 MSTORE PUSH1 0xFF PUSH1 0x40 PUSH1 0x0 KECCAK256 SLOAD AND ISZERO PUSH2 0x18CB JUMP JUMPDEST POP PUSH1 0x1 PUSH1 0x1 PUSH1 0xA0 SHL SUB DUP2 AND CALLER EQ ISZERO PUSH2 0x18C5 JUMP JUMPDEST CALLVALUE PUSH2 0x1AC JUMPI PUSH1 0x20 CALLDATASIZE PUSH1 0x3 NOT ADD SLT PUSH2 0x1AC JUMPI PUSH1 0x4 CALLDATALOAD PUSH2 0x199B DUP2 PUSH2 0x2031 JUMP JUMPDEST POP PUSH1 0x0 MSTORE PUSH1 0x0 DUP1 MLOAD PUSH1 0x20 PUSH2 0x256A DUP4 CODECOPY DUP2 MLOAD SWAP2 MSTORE PUSH1 0x20 MSTORE PUSH1 0x20 PUSH1 0x1 DUP1 PUSH1 0xA0 SHL SUB PUSH1 0x40 PUSH1 0x0 KECCAK256 SLOAD AND PUSH1 0x40 MLOAD SWAP1 DUP2 MSTORE RETURN JUMPDEST CALLVALUE PUSH2 0x1AC JUMPI PUSH1 0x0 CALLDATASIZE PUSH1 0x3 NOT ADD SLT PUSH2 0x1AC JUMPI PUSH1 0x40 MLOAD PUSH1 0x0 DUP1 MLOAD PUSH1 0x20 PUSH2 0x250A DUP4 CODECOPY DUP2 MLOAD SWAP2 MSTORE DUP1 SLOAD DUP3 PUSH1 0x0 PUSH2 0x19FA DUP4 PUSH2 0x1BD5 JUMP JUMPDEST SWAP3 DUP4 DUP4 MSTORE PUSH1 0x20 SWAP5 PUSH1 0x1 SWAP2 DUP7 PUSH1 0x1 DUP3 AND SWAP2 DUP3 PUSH1 0x0 EQ PUSH2 0xCB8 JUMPI POP POP PUSH1 0x1 EQ PUSH2 0x1A29 JUMPI POP POP PUSH2 0xC5A SWAP3 POP SUB DUP4 PUSH2 0x1C45 JUMP JUMPDEST DUP6 SWAP3 POP PUSH1 0x0 MSTORE PUSH1 0x0 DUP1 MLOAD PUSH1 0x20 PUSH2 0x25CA DUP4 CODECOPY DUP2 MLOAD SWAP2 MSTORE SWAP1 PUSH1 0x0 SWAP2 JUMPDEST DUP6 DUP4 LT PUSH2 0x1A5B JUMPI POP POP PUSH2 0xC5A SWAP4 POP DUP3 ADD ADD DUP6 DUP1 PUSH2 0xC4C JUMP JUMPDEST DUP1 SLOAD DUP4 DUP10 ADD DUP6 ADD MSTORE DUP8 SWAP5 POP DUP7 SWAP4 SWAP1 SWAP3 ADD SWAP2 DUP2 ADD PUSH2 0x1A43 JUMP JUMPDEST CALLVALUE PUSH2 0x1AC JUMPI PUSH1 0x20 CALLDATASIZE PUSH1 0x3 NOT ADD SLT PUSH2 0x1AC JUMPI PUSH1 0x4 CALLDATALOAD SWAP1 PUSH4 0xFFFFFFFF PUSH1 0xE0 SHL DUP3 AND DUP1 SWAP3 SUB PUSH2 0x1AC JUMPI PUSH1 0x20 SWAP2 PUSH4 0x7965DB0B PUSH1 0xE0 SHL DUP2 EQ SWAP1 DUP2 ISZERO PUSH2 0x1AB5 JUMPI JUMPDEST POP ISZERO ISZERO DUP2 MSTORE RETURN JUMPDEST PUSH4 0x152A902D PUSH1 0xE1 SHL DUP2 EQ SWAP2 POP DUP2 ISZERO PUSH2 0x1ACF JUMPI JUMPDEST POP DUP4 PUSH2 0x1AAE JUMP JUMPDEST PUSH4 0x24832483 PUSH1 0xE1 SHL DUP2 EQ SWAP2 POP DUP2 ISZERO PUSH2 0x1AE9 JUMPI JUMPDEST POP DUP4 PUSH2 0x1AC8 JUMP JUMPDEST PUSH4 0x80AC58CD PUSH1 0xE0 SHL DUP2 EQ SWAP2 POP DUP2 ISZERO PUSH2 0x1B1B JUMPI JUMPDEST DUP2 ISZERO PUSH2 0x1B0A JUMPI JUMPDEST POP DUP4 PUSH2 0x1AE2 JUMP JUMPDEST PUSH4 0x1FFC9A7 PUSH1 0xE0 SHL EQ SWAP1 POP DUP4 PUSH2 0x1B03 JUMP JUMPDEST PUSH4 0x5B5E139F PUSH1 0xE0 SHL DUP2 EQ SWAP2 POP PUSH2 0x1AFC JUMP JUMPDEST PUSH1 0x0 JUMPDEST DUP4 DUP2 LT PUSH2 0x1B3F JUMPI POP POP PUSH1 0x0 SWAP2 ADD MSTORE JUMP JUMPDEST DUP2 DUP2 ADD MLOAD DUP4 DUP3 ADD MSTORE PUSH1 0x20 ADD PUSH2 0x1B2F JUMP JUMPDEST SWAP1 PUSH1 0x20 SWAP2 PUSH2 0x1B68 DUP2 MLOAD DUP1 SWAP3 DUP2 DUP6 MSTORE DUP6 DUP1 DUP7 ADD SWAP2 ADD PUSH2 0x1B2C JUMP JUMPDEST PUSH1 0x1F ADD PUSH1 0x1F NOT AND ADD ADD SWAP1 JUMP JUMPDEST PUSH1 0x4 CALLDATALOAD SWAP1 PUSH1 0x1 PUSH1 0x1 PUSH1 0xA0 SHL SUB DUP3 AND DUP3 SUB PUSH2 0x1AC JUMPI JUMP JUMPDEST PUSH1 0x24 CALLDATALOAD SWAP1 PUSH1 0x1 PUSH1 0x1 PUSH1 0xA0 SHL SUB DUP3 AND DUP3 SUB PUSH2 0x1AC JUMPI JUMP JUMPDEST PUSH1 0x60 SWAP1 PUSH1 0x3 NOT ADD SLT PUSH2 0x1AC JUMPI PUSH1 0x1 PUSH1 0x1 PUSH1 0xA0 SHL SUB SWAP1 PUSH1 0x4 CALLDATALOAD DUP3 DUP2 AND DUP2 SUB PUSH2 0x1AC JUMPI SWAP2 PUSH1 0x24 CALLDATALOAD SWAP1 DUP2 AND DUP2 SUB PUSH2 0x1AC JUMPI SWAP1 PUSH1 0x44 CALLDATALOAD SWAP1 JUMP JUMPDEST SWAP1 PUSH1 0x1 DUP3 DUP2 SHR SWAP3 AND DUP1 ISZERO PUSH2 0x1C05 JUMPI JUMPDEST PUSH1 0x20 DUP4 LT EQ PUSH2 0x1BEF JUMPI JUMP JUMPDEST PUSH4 0x4E487B71 PUSH1 0xE0 SHL PUSH1 0x0 MSTORE PUSH1 0x22 PUSH1 0x4 MSTORE PUSH1 0x24 PUSH1 0x0 REVERT JUMPDEST SWAP2 PUSH1 0x7F AND SWAP2 PUSH2 0x1BE4 JUMP JUMPDEST PUSH1 0x40 DUP2 ADD SWAP1 DUP2 LT PUSH1 0x1 PUSH1 0x1 PUSH1 0x40 SHL SUB DUP3 GT OR PUSH2 0x6A2 JUMPI PUSH1 0x40 MSTORE JUMP JUMPDEST PUSH1 0x20 DUP2 ADD SWAP1 DUP2 LT PUSH1 0x1 PUSH1 0x1 PUSH1 0x40 SHL SUB DUP3 GT OR PUSH2 0x6A2 JUMPI PUSH1 0x40 MSTORE JUMP JUMPDEST SWAP1 PUSH1 0x1F DUP1 NOT SWAP2 ADD AND DUP2 ADD SWAP1 DUP2 LT PUSH1 0x1 PUSH1 0x1 PUSH1 0x40 SHL SUB DUP3 GT OR PUSH2 0x6A2 JUMPI PUSH1 0x40 MSTORE JUMP JUMPDEST SWAP1 PUSH1 0x40 MLOAD SWAP2 DUP3 PUSH1 0x0 DUP3 SLOAD PUSH2 0x1C79 DUP2 PUSH2 0x1BD5 JUMP JUMPDEST SWAP1 DUP2 DUP5 MSTORE PUSH1 0x20 SWAP5 PUSH1 0x1 SWAP2 PUSH1 0x1 DUP2 AND SWAP1 DUP2 PUSH1 0x0 EQ PUSH2 0x1CE9 JUMPI POP PUSH1 0x1 EQ PUSH2 0x1CAA JUMPI JUMPDEST POP POP POP PUSH2 0x1CA8 SWAP3 POP SUB DUP4 PUSH2 0x1C45 JUMP JUMPDEST JUMP JUMPDEST PUSH1 0x0 SWAP1 DUP2 MSTORE DUP6 DUP2 KECCAK256 SWAP6 SWAP4 POP SWAP2 SWAP1 JUMPDEST DUP2 DUP4 LT PUSH2 0x1CD1 JUMPI POP POP PUSH2 0x1CA8 SWAP4 POP DUP3 ADD ADD CODESIZE DUP1 DUP1 PUSH2 0x1C99 JUMP JUMPDEST DUP6 SLOAD DUP9 DUP5 ADD DUP6 ADD MSTORE SWAP5 DUP6 ADD SWAP5 DUP8 SWAP5 POP SWAP2 DUP4 ADD SWAP2 PUSH2 0x1CB8 JUMP JUMPDEST SWAP3 POP POP POP PUSH2 0x1CA8 SWAP5 SWAP3 POP PUSH1 0xFF NOT AND DUP3 DUP5 ADD MSTORE ISZERO ISZERO PUSH1 0x5 SHL DUP3 ADD ADD CODESIZE DUP1 DUP1 PUSH2 0x1C99 JUMP JUMPDEST PUSH1 0x1 PUSH1 0x1 PUSH1 0x40 SHL SUB DUP2 GT PUSH2 0x6A2 JUMPI PUSH1 0x1F ADD PUSH1 0x1F NOT AND PUSH1 0x20 ADD SWAP1 JUMP JUMPDEST SWAP3 SWAP2 SWAP3 PUSH2 0x1D32 DUP3 PUSH2 0x1D0B JUMP JUMPDEST SWAP2 PUSH2 0x1D40 PUSH1 0x40 MLOAD SWAP4 DUP5 PUSH2 0x1C45 JUMP JUMPDEST DUP3 SWAP5 DUP2 DUP5 MSTORE DUP2 DUP4 ADD GT PUSH2 0x1AC JUMPI DUP3 DUP2 PUSH1 0x20 SWAP4 DUP5 PUSH1 0x0 SWAP7 ADD CALLDATACOPY ADD ADD MSTORE JUMP JUMPDEST SWAP1 DUP1 PUSH1 0x1F DUP4 ADD SLT ISZERO PUSH2 0x1AC JUMPI DUP2 PUSH1 0x20 PUSH2 0x1D78 SWAP4 CALLDATALOAD SWAP2 ADD PUSH2 0x1D26 JUMP JUMPDEST SWAP1 JUMP JUMPDEST SWAP2 DUP2 PUSH1 0x1F DUP5 ADD SLT ISZERO PUSH2 0x1AC JUMPI DUP3 CALLDATALOAD SWAP2 PUSH1 0x1 PUSH1 0x1 PUSH1 0x40 SHL SUB DUP4 GT PUSH2 0x1AC JUMPI PUSH1 0x20 DUP4 DUP2 DUP7 ADD SWAP6 ADD ADD GT PUSH2 0x1AC JUMPI JUMP JUMPDEST PUSH1 0x1 PUSH1 0x1 PUSH1 0xA0 SHL SUB DUP3 DUP2 AND SWAP4 SWAP2 DUP5 ISZERO PUSH2 0x89D JUMPI DUP3 PUSH1 0x0 SWAP6 DUP2 DUP8 MSTORE PUSH32 0x80BB2B638CC20BC4D0A60D66940F3AB4A00C1D7B313497CA82FB0B4AB0079302 SWAP6 DUP7 PUSH1 0x20 MSTORE PUSH1 0x40 SWAP8 DUP6 DUP10 DUP3 KECCAK256 SLOAD AND SWAP8 DUP9 SWAP3 CALLER ISZERO ISZERO DUP1 PUSH2 0x1EC0 JUMPI JUMPDEST POP SWAP1 PUSH2 0x1E2F PUSH32 0xDDF252AD1BE2C89B69C2B068FC378DAA952BA7F163C4A11628F55A4DF523B3EF SWAP4 SWAP3 DUP6 PUSH2 0x1E81 JUMPI PUSH2 0x1F69 JUMP JUMPDEST DUP1 SLOAD PUSH1 0x1 ADD SWAP1 SSTORE DUP6 DUP3 MSTORE PUSH1 0x20 MSTORE DUP10 DUP2 KECCAK256 DUP1 SLOAD PUSH1 0x1 PUSH1 0x1 PUSH1 0xA0 SHL SUB NOT AND DUP6 OR SWAP1 SSTORE DUP1 LOG4 AND SWAP3 DUP4 DUP4 SUB PUSH2 0x1E60 JUMPI POP POP POP POP JUMP JUMPDEST PUSH1 0x64 SWAP5 POP MLOAD SWAP3 PUSH4 0x64283D7B PUSH1 0xE0 SHL DUP5 MSTORE PUSH1 0x4 DUP5 ADD MSTORE PUSH1 0x24 DUP4 ADD MSTORE PUSH1 0x44 DUP3 ADD MSTORE REVERT JUMPDEST PUSH1 0x0 DUP9 DUP2 MSTORE PUSH1 0x0 DUP1 MLOAD PUSH1 0x20 PUSH2 0x256A DUP4 CODECOPY DUP2 MLOAD SWAP2 MSTORE PUSH1 0x20 MSTORE PUSH1 0x40 SWAP1 KECCAK256 DUP1 SLOAD PUSH1 0x1 PUSH1 0x1 PUSH1 0xA0 SHL SUB NOT AND SWAP1 SSTORE PUSH2 0x1EB3 DUP7 PUSH2 0x1F69 JUMP JUMPDEST DUP1 SLOAD PUSH1 0x0 NOT ADD SWAP1 SSTORE PUSH2 0x1F69 JUMP JUMPDEST SWAP2 SWAP4 POP SWAP2 SWAP4 SWAP5 POP DUP1 PUSH2 0x1F1A JUMPI JUMPDEST ISZERO PUSH2 0x1EDE JUMPI SWAP2 DUP8 SWAP2 DUP8 SWAP5 SWAP4 CODESIZE PUSH2 0x1DFD JUMP JUMPDEST DUP9 DUP8 DUP10 PUSH2 0x1EFB JUMPI PUSH1 0x24 SWAP2 MLOAD SWAP1 PUSH4 0x7E273289 PUSH1 0xE0 SHL DUP3 MSTORE PUSH1 0x4 DUP3 ADD MSTORE REVERT JUMPDEST SWAP1 MLOAD PUSH4 0x177E802F PUSH1 0xE0 SHL DUP2 MSTORE CALLER PUSH1 0x4 DUP3 ADD MSTORE PUSH1 0x24 DUP2 ADD SWAP2 SWAP1 SWAP2 MSTORE PUSH1 0x44 SWAP1 REVERT JUMPDEST POP CALLER DUP9 EQ DUP1 ISZERO PUSH2 0x1F4D JUMPI JUMPDEST DUP1 PUSH2 0x1ECD JUMPI POP DUP7 DUP4 MSTORE PUSH1 0x0 DUP1 MLOAD PUSH1 0x20 PUSH2 0x256A DUP4 CODECOPY DUP2 MLOAD SWAP2 MSTORE PUSH1 0x20 MSTORE CALLER DUP7 DUP11 DUP6 KECCAK256 SLOAD AND EQ PUSH2 0x1ECD JUMP JUMPDEST POP PUSH2 0x1F57 DUP9 PUSH2 0x1FA2 JUMP JUMPDEST CALLER DUP5 MSTORE PUSH1 0x20 MSTORE PUSH1 0xFF DUP10 DUP5 KECCAK256 SLOAD AND PUSH2 0x1F25 JUMP JUMPDEST PUSH1 0x1 PUSH1 0x1 PUSH1 0xA0 SHL SUB AND PUSH1 0x0 SWAP1 DUP2 MSTORE PUSH32 0x80BB2B638CC20BC4D0A60D66940F3AB4A00C1D7B313497CA82FB0B4AB0079303 PUSH1 0x20 MSTORE PUSH1 0x40 SWAP1 KECCAK256 SWAP1 JUMP JUMPDEST PUSH1 0x1 PUSH1 0x1 PUSH1 0xA0 SHL SUB AND PUSH1 0x0 SWAP1 DUP2 MSTORE PUSH32 0x80BB2B638CC20BC4D0A60D66940F3AB4A00C1D7B313497CA82FB0B4AB0079305 PUSH1 0x20 MSTORE PUSH1 0x40 SWAP1 KECCAK256 SWAP1 JUMP JUMPDEST SWAP1 PUSH1 0x1F DUP2 GT PUSH2 0x1FE9 JUMPI POP POP POP JUMP JUMPDEST PUSH1 0x0 SWAP2 PUSH1 0x0 MSTORE PUSH1 0x20 PUSH1 0x0 KECCAK256 SWAP1 PUSH1 0x20 PUSH1 0x1F DUP6 ADD PUSH1 0x5 SHR DUP4 ADD SWAP5 LT PUSH2 0x2027 JUMPI JUMPDEST PUSH1 0x1F ADD PUSH1 0x5 SHR ADD SWAP2 JUMPDEST DUP3 DUP2 LT PUSH2 0x201C JUMPI POP POP POP JUMP JUMPDEST DUP2 DUP2 SSTORE PUSH1 0x1 ADD PUSH2 0x2010 JUMP JUMPDEST SWAP1 SWAP3 POP DUP3 SWAP1 PUSH2 0x2007 JUMP JUMPDEST PUSH1 0x0 DUP2 DUP2 MSTORE PUSH32 0x80BB2B638CC20BC4D0A60D66940F3AB4A00C1D7B313497CA82FB0B4AB0079302 PUSH1 0x20 MSTORE PUSH1 0x40 SWAP1 KECCAK256 SLOAD PUSH1 0x1 PUSH1 0x1 PUSH1 0xA0 SHL SUB AND SWAP1 DUP2 ISZERO PUSH2 0x2073 JUMPI POP SWAP1 JUMP JUMPDEST PUSH1 0x24 SWAP1 PUSH1 0x40 MLOAD SWAP1 PUSH4 0x7E273289 PUSH1 0xE0 SHL DUP3 MSTORE PUSH1 0x4 DUP3 ADD MSTORE REVERT JUMPDEST PUSH1 0x1 PUSH1 0x1 PUSH1 0xA0 SHL SUB AND PUSH1 0x0 DUP2 DUP2 MSTORE PUSH32 0xB7DB2DD08FCB62D0C9E08C51941CAE53C267786A0B75803FB7960902FC8EF97D PUSH1 0x20 MSTORE PUSH1 0x40 DUP2 KECCAK256 SLOAD SWAP1 SWAP2 SWAP1 PUSH1 0x0 DUP1 MLOAD PUSH1 0x20 PUSH2 0x254A DUP4 CODECOPY DUP2 MLOAD SWAP2 MSTORE SWAP1 PUSH1 0xFF AND PUSH2 0x2126 JUMPI DUP3 DUP1 MSTORE PUSH1 0x20 MSTORE PUSH1 0x40 DUP3 KECCAK256 DUP2 DUP4 MSTORE PUSH1 0x20 MSTORE PUSH1 0x40 DUP3 KECCAK256 PUSH1 0x1 PUSH1 0xFF NOT DUP3 SLOAD AND OR SWAP1 SSTORE CALLER SWAP2 PUSH32 0x2F8788117E7EFF1D82E926EC794901D17C78024A50270940304540A733656F0D DUP2 DUP1 LOG4 PUSH1 0x1 SWAP1 JUMP JUMPDEST POP POP SWAP1 JUMP JUMPDEST PUSH1 0x1 PUSH1 0x1 PUSH1 0xA0 SHL SUB AND PUSH1 0x0 DUP2 DUP2 MSTORE PUSH32 0x549FE2656C81D2947B3B913F0A53B9EA86C71E049F3A1B8AA23C09A8A05CB8D4 PUSH1 0x20 MSTORE PUSH1 0x40 DUP2 KECCAK256 SLOAD SWAP1 SWAP2 SWAP1 PUSH32 0x9F2DF0FED2C77648DE5860A4CC508CD0818C85B8B8A1AB4CEEEF8D981C8956A6 SWAP1 PUSH1 0x0 DUP1 MLOAD PUSH1 0x20 PUSH2 0x254A DUP4 CODECOPY DUP2 MLOAD SWAP2 MSTORE SWAP1 PUSH1 0xFF AND PUSH2 0x21E7 JUMPI DUP2 DUP5 MSTORE PUSH1 0x20 MSTORE PUSH1 0x40 DUP4 KECCAK256 DUP3 DUP5 MSTORE PUSH1 0x20 MSTORE PUSH1 0x40 DUP4 KECCAK256 PUSH1 0x1 PUSH1 0xFF NOT DUP3 SLOAD AND OR SWAP1 SSTORE PUSH32 0x2F8788117E7EFF1D82E926EC794901D17C78024A50270940304540A733656F0D CALLER SWAP4 DUP1 LOG4 PUSH1 0x1 SWAP1 JUMP JUMPDEST POP POP POP SWAP1 JUMP JUMPDEST SWAP1 PUSH1 0x0 SWAP2 DUP1 DUP4 MSTORE PUSH1 0x0 DUP1 MLOAD PUSH1 0x20 PUSH2 0x254A DUP4 CODECOPY DUP2 MLOAD SWAP2 MSTORE DUP1 PUSH1 0x20 MSTORE PUSH1 0x40 DUP5 KECCAK256 SWAP3 PUSH1 0x1 DUP1 PUSH1 0xA0 SHL SUB AND SWAP3 DUP4 DUP6 MSTORE PUSH1 0x20 MSTORE PUSH1 0xFF PUSH1 0x40 DUP6 KECCAK256 SLOAD AND ISZERO PUSH1 0x0 EQ PUSH2 0x21E7 JUMPI DUP2 DUP5 MSTORE PUSH1 0x20 MSTORE PUSH1 0x40 DUP4 KECCAK256 DUP3 DUP5 MSTORE PUSH1 0x20 MSTORE PUSH1 0x40 DUP4 KECCAK256 PUSH1 0x1 PUSH1 0xFF NOT DUP3 SLOAD AND OR SWAP1 SSTORE PUSH32 0x2F8788117E7EFF1D82E926EC794901D17C78024A50270940304540A733656F0D CALLER SWAP4 DUP1 LOG4 PUSH1 0x1 SWAP1 JUMP JUMPDEST DUP1 PUSH1 0x0 MSTORE PUSH1 0x0 DUP1 MLOAD PUSH1 0x20 PUSH2 0x254A DUP4 CODECOPY DUP2 MLOAD SWAP2 MSTORE PUSH1 0x20 MSTORE PUSH1 0x40 PUSH1 0x0 KECCAK256 CALLER PUSH1 0x0 MSTORE PUSH1 0x20 MSTORE PUSH1 0xFF PUSH1 0x40 PUSH1 0x0 KECCAK256 SLOAD AND ISZERO PUSH2 0x996 JUMPI POP JUMP JUMPDEST SWAP1 PUSH1 0x0 SWAP2 DUP1 DUP4 MSTORE PUSH1 0x0 DUP1 MLOAD PUSH1 0x20 PUSH2 0x254A DUP4 CODECOPY DUP2 MLOAD SWAP2 MSTORE DUP1 PUSH1 0x20 MSTORE PUSH1 0x40 DUP5 KECCAK256 SWAP3 PUSH1 0x1 DUP1 PUSH1 0xA0 SHL SUB AND SWAP3 DUP4 DUP6 MSTORE PUSH1 0x20 MSTORE PUSH1 0xFF PUSH1 0x40 DUP6 KECCAK256 SLOAD AND PUSH1 0x0 EQ PUSH2 0x21E7 JUMPI DUP2 DUP5 MSTORE PUSH1 0x20 MSTORE PUSH1 0x40 DUP4 KECCAK256 DUP3 DUP5 MSTORE PUSH1 0x20 MSTORE PUSH1 0x40 DUP4 KECCAK256 PUSH1 0xFF NOT DUP2 SLOAD AND SWAP1 SSTORE PUSH32 0xF6391F5C32D9C69D2A47EA670B442974B53935D1EDC7FD64EB21E047A839171B CALLER SWAP4 DUP1 LOG4 PUSH1 0x1 SWAP1 JUMP JUMPDEST RETURNDATASIZE ISZERO PUSH2 0x2355 JUMPI RETURNDATASIZE SWAP1 PUSH2 0x233B DUP3 PUSH2 0x1D0B JUMP JUMPDEST SWAP2 PUSH2 0x2349 PUSH1 0x40 MLOAD SWAP4 DUP5 PUSH2 0x1C45 JUMP JUMPDEST DUP3 MSTORE RETURNDATASIZE PUSH1 0x0 PUSH1 0x20 DUP5 ADD RETURNDATACOPY JUMP JUMPDEST PUSH1 0x60 SWAP1 JUMP JUMPDEST SWAP3 SWAP4 DUP3 EXTCODESIZE PUSH2 0x236A JUMPI JUMPDEST POP POP POP POP POP JUMP JUMPDEST PUSH2 0x23AE SWAP1 PUSH1 0x1 DUP1 PUSH1 0xA0 SHL SUB DUP1 SWAP5 AND SWAP6 PUSH1 0x40 MLOAD SWAP5 DUP6 SWAP5 DUP2 PUSH4 0xA85BD01 PUSH1 0xE1 SHL SWAP9 DUP10 DUP9 MSTORE AND PUSH1 0x4 DUP8 ADD MSTORE AND PUSH1 0x24 DUP6 ADD MSTORE PUSH1 0x44 DUP5 ADD MSTORE PUSH1 0x80 PUSH1 0x64 DUP5 ADD MSTORE PUSH1 0x84 DUP4 ADD SWAP1 PUSH2 0x1B4F JUMP JUMPDEST SUB SWAP1 PUSH1 0x20 DUP2 PUSH1 0x0 SWAP4 DUP2 DUP6 DUP9 GAS CALL SWAP1 DUP3 SWAP1 DUP3 PUSH2 0x2427 JUMPI JUMPDEST POP POP PUSH2 0x23F5 JUMPI DUP3 PUSH2 0x23D3 PUSH2 0x232A JUMP JUMPDEST DUP1 MLOAD SWAP2 SWAP1 DUP3 PUSH2 0x7BF JUMPI PUSH1 0x40 MLOAD PUSH4 0x32505749 PUSH1 0xE1 SHL DUP2 MSTORE PUSH1 0x4 DUP2 ADD DUP4 SWAP1 MSTORE PUSH1 0x24 SWAP1 REVERT JUMPDEST PUSH1 0x1 PUSH1 0x1 PUSH1 0xE0 SHL SUB NOT AND SUB PUSH2 0x240F JUMPI POP CODESIZE DUP1 DUP1 DUP1 DUP1 PUSH2 0x2363 JUMP JUMPDEST PUSH1 0x24 SWAP1 PUSH1 0x40 MLOAD SWAP1 PUSH4 0x32505749 PUSH1 0xE1 SHL DUP3 MSTORE PUSH1 0x4 DUP3 ADD MSTORE REVERT JUMPDEST SWAP1 SWAP2 SWAP3 POP PUSH1 0x20 DUP2 RETURNDATASIZE PUSH1 0x20 GT PUSH2 0x246F JUMPI JUMPDEST DUP2 PUSH2 0x2444 PUSH1 0x20 SWAP4 DUP4 PUSH2 0x1C45 JUMP JUMPDEST DUP2 ADD SUB SLT PUSH2 0x246B JUMPI MLOAD SWAP1 PUSH1 0x1 PUSH1 0x1 PUSH1 0xE0 SHL SUB NOT DUP3 AND DUP3 SUB PUSH2 0x2468 JUMPI POP SWAP1 CODESIZE DUP1 PUSH2 0x23C4 JUMP JUMPDEST DUP1 REVERT JUMPDEST POP DUP1 REVERT JUMPDEST RETURNDATASIZE SWAP2 POP PUSH2 0x2437 JUMP JUMPDEST PUSH1 0xFF PUSH1 0x0 DUP1 MLOAD PUSH1 0x20 PUSH2 0x258A DUP4 CODECOPY DUP2 MLOAD SWAP2 MSTORE SLOAD PUSH1 0x40 SHR AND ISZERO PUSH2 0x2494 JUMPI JUMP JUMPDEST PUSH1 0x40 MLOAD PUSH4 0x1AFCD79F PUSH1 0xE3 SHL DUP2 MSTORE PUSH1 0x4 SWAP1 REVERT JUMPDEST SWAP1 PUSH2 0x24CD JUMPI POP DUP1 MLOAD ISZERO PUSH2 0x24BB JUMPI PUSH1 0x20 DUP2 MLOAD SWAP2 ADD REVERT JUMPDEST PUSH1 0x40 MLOAD PUSH4 0xD6BDA275 PUSH1 0xE0 SHL DUP2 MSTORE PUSH1 0x4 SWAP1 REVERT JUMPDEST DUP2 MLOAD ISZERO DUP1 PUSH2 0x2500 JUMPI JUMPDEST PUSH2 0x24DE JUMPI POP SWAP1 JUMP JUMPDEST PUSH1 0x40 MLOAD PUSH4 0x9996B315 PUSH1 0xE0 SHL DUP2 MSTORE PUSH1 0x1 PUSH1 0x1 PUSH1 0xA0 SHL SUB SWAP1 SWAP2 AND PUSH1 0x4 DUP3 ADD MSTORE PUSH1 0x24 SWAP1 REVERT JUMPDEST POP DUP1 EXTCODESIZE ISZERO PUSH2 0x24D6 JUMP INVALID DUP1 0xBB 0x2B PUSH4 0x8CC20BC4 0xD0 0xA6 0xD PUSH7 0x940F3AB4A00C1D PUSH28 0x313497CA82FB0B4AB0079300F4BAD0A69248F59680A4F2B3000328CE 0xC7 BYTE COINBASE CALLVALUE SELFBALANCE 0xC9 PUSH8 0x81CFE5996DAA8C45 PUSH15 0x2DD7BC7DEC4DCEEDDA775E58DD541 0xE0 DUP11 GT PUSH13 0x6C53815C0BD028192F7B626800 DUP1 0xBB 0x2B PUSH4 0x8CC20BC4 0xD0 0xA6 0xD PUSH7 0x940F3AB4A00C1D PUSH28 0x313497CA82FB0B4AB0079304F0C57E16840DF040F15088DC2F81FE39 SHR CODECOPY 0x23 0xBE 0xC7 RETURNDATACOPY 0x23 0xA9 PUSH7 0x2EFC9C229C6A00 DUP1 0xBB 0x2B PUSH4 0x8CC20BC4 0xD0 0xA6 0xD PUSH7 0x940F3AB4A00C1D PUSH28 0x313497CA82FB0B4AB007930137C58C799B6609234B945E882912EE9A 0xD3 BLOBHASH BASEFEE LOG1 0xDF 0xAA KECCAK256 0xA9 PUSH21 0x85E1A7752BBF81A26469706673582212208976BC65 0x23 0xD EXTCODECOPY 0xDA 0xAE 0xAF 0xE3 MSIZE 0x26 0x4E MSIZE 0xC0 CALLER 0xC3 PUSH19 0x587B953C45360DE04972C098C264736F6C6343 STOP ADDMOD XOR STOP CALLER "},"methodIdentifiers":{"DEFAULT_ADMIN_ROLE()":"a217fddf","MINTER_ROLE()":"d5391393","UPGRADE_INTERFACE_VERSION()":"ad3cb1cc","approve(address,uint256)":"095ea7b3","balanceOf(address)":"70a08231","batchNumberToTokenId(string)":"9688b318","getApproved(uint256)":"081812fc","getRoleAdmin(bytes32)":"248a9ca3","grantRole(bytes32,address)":"2f2ff15d","hasRole(bytes32,address)":"91d14854","initialize(address,address,address,uint96)":"116de291","isApprovedForAll(address,address)":"e985e9c5","mintBatch(address,string,string)":"d317896f","name()":"06fdde03","ownerOf(uint256)":"6352211e","producerCertificationContract()":"d640a799","proxiableUUID()":"52d1902d","renounceRole(bytes32,address)":"36568abe","revokeRole(bytes32,address)":"d547741f","royaltyInfo(uint256,uint256)":"2a55205a","safeTransferFrom(address,address,uint256)":"42842e0e","safeTransferFrom(address,address,uint256,bytes)":"b88d4fde","setApprovalForAll(address,bool)":"a22cb465","supportsInterface(bytes4)":"01ffc9a7","symbol()":"95d89b41","tokenToBatchNumber(uint256)":"3053a6b4","tokenURI(uint256)":"c87b56dd","transferFrom(address,address,uint256)":"23b872dd","upgradeToAndCall(address,bytes)":"4f1ef286"}},"storageLayout":{"storage":[{"astId":9053,"contract":"contracts/BatchToken.sol:BatchToken","label":"producerCertificationContract","offset":0,"slot":"0","type":"t_contract(IProducerCertification)10063"},{"astId":9055,"contract":"contracts/BatchToken.sol:BatchToken","label":"_tokenIdCounter","offset":0,"slot":"1","type":"t_uint256"},{"astId":9059,"contract":"contracts/BatchToken.sol:BatchToken","label":"tokenToBatchNumber","offset":0,"slot":"2","type":"t_mapping(t_uint256,t_string_storage)"},{"astId":9063,"contract":"contracts/BatchToken.sol:BatchToken","label":"batchNumberToTokenId","offset":0,"slot":"3","type":"t_mapping(t_string_memory_ptr,t_uint256)"}],"types":{"t_contract(IProducerCertification)10063":{"encoding":"inplace","label":"contract IProducerCertification","numberOfBytes":"20"},"t_mapping(t_string_memory_ptr,t_uint256)":{"encoding":"mapping","key":"t_string_memory_ptr","label":"mapping(string => uint256)","numberOfBytes":"32","value":"t_uint256"},"t_mapping(t_uint256,t_string_storage)":{"encoding":"mapping","key":"t_uint256","label":"mapping(uint256 => string)","numberOfBytes":"32","value":"t_string_storage"},"t_string_memory_ptr":{"encoding":"bytes","label":"string","numberOfBytes":"32"},"t_string_storage":{"encoding":"bytes","label":"string","numberOfBytes":"32"},"t_uint256":{"encoding":"inplace","label":"uint256","numberOfBytes":"32"}}}}}}