{
  "_format": "hh-sol-artifact-1",
  "contractName": "TraceabilityRegistry",
  "sourceName": "contracts/TraceabilityRegistry.sol",
  "abi": [
    {
      "inputs": [],
      "stateMutability": "nonpayable",
      "type": "constructor"
    },
    {
      "inputs": [],
      "name": "AccessControlBadConfirmation",
      "type": "error"
    },
    {
      "inputs": [
        {
          "internalType": "address",
          "name": "account",
          "type": "address"
        },
        {
          "internalType": "bytes32",
          "name": "neededRole",
          "type": "bytes32"
        }
      ],
      "name": "AccessControlUnauthorizedAccount",
      "type": "error"
    },
    {
      "inputs": [
        {
          "internalType": "address",
          "name": "target",
          "type": "address"
        }
      ],
      "name": "AddressEmptyCode",
      "type": "error"
    },
    {
      "inputs": [
        {
          "internalType": "address",
          "name": "implementation",
          "type": "address"
        }
      ],
      "name": "ERC1967InvalidImplementation",
      "type": "error"
    },
    {
      "inputs": [],
      "name": "ERC1967NonPayable",
      "type": "error"
    },
    {
      "inputs": [],
      "name": "EnforcedPause",
      "type": "error"
    },
    {
      "inputs": [],
      "name": "EventAlreadyVerified",
      "type": "error"
    },
    {
      "inputs": [],
      "name": "EventNotFound",
      "type": "error"
    },
    {
      "inputs": [],
      "name": "ExpectedPause",
      "type": "error"
    },
    {
      "inputs": [],
      "name": "FailedCall",
      "type": "error"
    },
    {
      "inputs": [],
      "name": "InvalidBatchID",
      "type": "error"
    },
    {
      "inputs": [],
      "name": "InvalidIPFSHash",
      "type": "error"
    },
    {
      "inputs": [],
      "name": "InvalidInitialization",
      "type": "error"
    },
    {
      "inputs": [],
      "name": "NotACertifiedProducer",
      "type": "error"
    },
    {
      "inputs": [],
      "name": "NotInitializing",
      "type": "error"
    },
    {
      "inputs": [],
      "name": "ReentrancyGuardReentrantCall",
      "type": "error"
    },
    {
      "inputs": [],
      "name": "UUPSUnauthorizedCallContext",
      "type": "error"
    },
    {
      "inputs": [
        {
          "internalType": "bytes32",
          "name": "slot",
          "type": "bytes32"
        }
      ],
      "name": "UUPSUnsupportedProxiableUUID",
      "type": "error"
    },
    {
      "anonymous": false,
      "inputs": [
        {
          "indexed": true,
          "internalType": "bytes32",
          "name": "eventId",
          "type": "bytes32"
        },
        {
          "indexed": true,
          "internalType": "string",
          "name": "batchId",
          "type": "string"
        },
        {
          "indexed": true,
          "internalType": "address",
          "name": "producer",
          "type": "address"
        },
        {
          "indexed": false,
          "internalType": "string",
          "name": "eventType",
          "type": "string"
        },
        {
          "indexed": false,
          "internalType": "uint256",
          "name": "timestamp",
          "type": "uint256"
        }
      ],
      "name": "EventRegistered",
      "type": "event"
    },
    {
      "anonymous": false,
      "inputs": [
        {
          "indexed": true,
          "internalType": "bytes32",
          "name": "eventId",
          "type": "bytes32"
        },
        {
          "indexed": true,
          "internalType": "address",
          "name": "certifier",
          "type": "address"
        }
      ],
      "name": "EventVerified",
      "type": "event"
    },
    {
      "anonymous": false,
      "inputs": [
        {
          "indexed": false,
          "internalType": "uint64",
          "name": "version",
          "type": "uint64"
        }
      ],
      "name": "Initialized",
      "type": "event"
    },
    {
      "anonymous": false,
      "inputs": [
        {
          "indexed": false,
          "internalType": "address",
          "name": "account",
          "type": "address"
        }
      ],
      "name": "Paused",
      "type": "event"
    },
    {
      "anonymous": false,
      "inputs": [
        {
          "indexed": true,
          "internalType": "bytes32",
          "name": "role",
          "type": "bytes32"
        },
        {
          "indexed": true,
          "internalType": "bytes32",
          "name": "previousAdminRole",
          "type": "bytes32"
        },
        {
          "indexed": true,
          "internalType": "bytes32",
          "name": "newAdminRole",
          "type": "bytes32"
        }
      ],
      "name": "RoleAdminChanged",
      "type": "event"
    },
    {
      "anonymous": false,
      "inputs": [
        {
          "indexed": true,
          "internalType": "bytes32",
          "name": "role",
          "type": "bytes32"
        },
        {
          "indexed": true,
          "internalType": "address",
          "name": "account",
          "type": "address"
        },
        {
          "indexed": true,
          "internalType": "address",
          "name": "sender",
          "type": "address"
        }
      ],
      "name": "RoleGranted",
      "type": "event"
    },
    {
      "anonymous": false,
      "inputs": [
        {
          "indexed": true,
          "internalType": "bytes32",
          "name": "role",
          "type": "bytes32"
        },
        {
          "indexed": true,
          "internalType": "address",
          "name": "account",
          "type": "address"
        },
        {
          "indexed": true,
          "internalType": "address",
          "name": "sender",
          "type": "address"
        }
      ],
      "name": "RoleRevoked",
      "type": "event"
    },
    {
      "anonymous": false,
      "inputs": [
        {
          "indexed": false,
          "internalType": "address",
          "name": "account",
          "type": "address"
        }
      ],
      "name": "Unpaused",
      "type": "event"
    },
    {
      "anonymous": false,
      "inputs": [
        {
          "indexed": true,
          "internalType": "address",
          "name": "implementation",
          "type": "address"
        }
      ],
      "name": "Upgraded",
      "type": "event"
    },
    {
      "inputs": [],
      "name": "CERTIFIER_ROLE",
      "outputs": [
        {
          "internalType": "bytes32",
          "name": "",
          "type": "bytes32"
        }
      ],
      "stateMutability": "view",
      "type": "function"
    },
    {
      "inputs": [],
      "name": "DEFAULT_ADMIN_ROLE",
      "outputs": [
        {
          "internalType": "bytes32",
          "name": "",
          "type": "bytes32"
        }
      ],
      "stateMutability": "view",
      "type": "function"
    },
    {
      "inputs": [],
      "name": "UPGRADE_INTERFACE_VERSION",
      "outputs": [
        {
          "internalType": "string",
          "name": "",
          "type": "string"
        }
      ],
      "stateMutability": "view",
      "type": "function"
    },
    {
      "inputs": [
        {
          "internalType": "string",
          "name": "batchId",
          "type": "string"
        }
      ],
      "name": "getBatchHistory",
      "outputs": [
        {
          "components": [
            {
              "internalType": "bytes32",
              "name": "eventId",
              "type": "bytes32"
            },
            {
              "internalType": "string",
              "name": "eventType",
              "type": "string"
            },
            {
              "internalType": "address",
              "name": "producer",
              "type": "address"
            },
            {
              "internalType": "uint256",
              "name": "timestamp",
              "type": "uint256"
            },
            {
              "components": [
                {
                  "internalType": "int256",
                  "name": "latitude",
                  "type": "int256"
                },
                {
                  "internalType": "int256",
                  "name": "longitude",
                  "type": "int256"
                }
              ],
              "internalType": "struct TraceabilityRegistry.GPSCoordinates",
              "name": "location",
              "type": "tuple"
            },
            {
              "internalType": "string",
              "name": "ipfsHash",
              "type": "string"
            },
            {
              "internalType": "bytes32",
              "name": "previousEventHash",
              "type": "bytes32"
            },
            {
              "internalType": "bool",
              "name": "verified",
              "type": "bool"
            }
          ],
          "internalType": "struct TraceabilityRegistry.CriticalTrackingEvent[]",
          "name": "",
          "type": "tuple[]"
        }
      ],
      "stateMutability": "view",
      "type": "function"
    },
    {
      "inputs": [
        {
          "internalType": "bytes32",
          "name": "role",
          "type": "bytes32"
        }
      ],
      "name": "getRoleAdmin",
      "outputs": [
        {
          "internalType": "bytes32",
          "name": "",
          "type": "bytes32"
        }
      ],
      "stateMutability": "view",
      "type": "function"
    },
    {
      "inputs": [
        {
          "internalType": "bytes32",
          "name": "role",
          "type": "bytes32"
        },
        {
          "internalType": "address",
          "name": "account",
          "type": "address"
        }
      ],
      "name": "grantRole",
      "outputs": [],
      "stateMutability": "nonpayable",
      "type": "function"
    },
    {
      "inputs": [
        {
          "internalType": "bytes32",
          "name": "role",
          "type": "bytes32"
        },
        {
          "internalType": "address",
          "name": "account",
          "type": "address"
        }
      ],
      "name": "hasRole",
      "outputs": [
        {
          "internalType": "bool",
          "name": "",
          "type": "bool"
        }
      ],
      "stateMutability": "view",
      "type": "function"
    },
    {
      "inputs": [
        {
          "internalType": "address",
          "name": "admin",
          "type": "address"
        },
        {
          "internalType": "address",
          "name": "_producerCertificationAddress",
          "type": "address"
        }
      ],
      "name": "initialize",
      "outputs": [],
      "stateMutability": "nonpayable",
      "type": "function"
    },
    {
      "inputs": [],
      "name": "pause",
      "outputs": [],
      "stateMutability": "nonpayable",
      "type": "function"
    },
    {
      "inputs": [],
      "name": "paused",
      "outputs": [
        {
          "internalType": "bool",
          "name": "",
          "type": "bool"
        }
      ],
      "stateMutability": "view",
      "type": "function"
    },
    {
      "inputs": [],
      "name": "producerCertificationContract",
      "outputs": [
        {
          "internalType": "contract IProducerCertification",
          "name": "",
          "type": "address"
        }
      ],
      "stateMutability": "view",
      "type": "function"
    },
    {
      "inputs": [],
      "name": "proxiableUUID",
      "outputs": [
        {
          "internalType": "bytes32",
          "name": "",
          "type": "bytes32"
        }
      ],
      "stateMutability": "view",
      "type": "function"
    },
    {
      "inputs": [
        {
          "internalType": "string",
          "name": "eventType",
          "type": "string"
        },
        {
          "internalType": "string",
          "name": "batchId",
          "type": "string"
        },
        {
          "internalType": "int256",
          "name": "latitude",
          "type": "int256"
        },
        {
          "internalType": "int256",
          "name": "longitude",
          "type": "int256"
        },
        {
          "internalType": "string",
          "name": "ipfsHash",
          "type": "string"
        }
      ],
      "name": "registerEvent",
      "outputs": [
        {
          "internalType": "bytes32",
          "name": "",
          "type": "bytes32"
        }
      ],
      "stateMutability": "nonpayable",
      "type": "function"
    },
    {
      "inputs": [
        {
          "internalType": "bytes32",
          "name": "role",
          "type": "bytes32"
        },
        {
          "internalType": "address",
          "name": "callerConfirmation",
          "type": "address"
        }
      ],
      "name": "renounceRole",
      "outputs": [],
      "stateMutability": "nonpayable",
      "type": "function"
    },
    {
      "inputs": [
        {
          "internalType": "bytes32",
          "name": "role",
          "type": "bytes32"
        },
        {
          "internalType": "address",
          "name": "account",
          "type": "address"
        }
      ],
      "name": "revokeRole",
      "outputs": [],
      "stateMutability": "nonpayable",
      "type": "function"
    },
    {
      "inputs": [
        {
          "internalType": "bytes4",
          "name": "interfaceId",
          "type": "bytes4"
        }
      ],
      "name": "supportsInterface",
      "outputs": [
        {
          "internalType": "bool",
          "name": "",
          "type": "bool"
        }
      ],
      "stateMutability": "view",
      "type": "function"
    },
    {
      "inputs": [],
      "name": "unpause",
      "outputs": [],
      "stateMutability": "nonpayable",
      "type": "function"
    },
    {
      "inputs": [
        {
          "internalType": "address",
          "name": "newImplementation",
          "type": "address"
        },
        {
          "internalType": "bytes",
          "name": "data",
          "type": "bytes"
        }
      ],
      "name": "upgradeToAndCall",
      "outputs": [],
      "stateMutability": "payable",
      "type": "function"
    },
    {
      "inputs": [
        {
          "internalType": "bytes32",
          "name": "eventId",
          "type": "bytes32"
        },
        {
          "internalType": "string",
          "name": "batchId",
          "type": "string"
        }
      ],
      "name": "verifyEvent",
      "outputs": [],
      "stateMutability": "nonpayable",
      "type": "function"
    }
  ],
  "bytecode": "0x60a080604052346100cc57306080527ff0c57e16840df040f15088dc2f81fe391c3923bec73e23a9662efc9c229c6a009081549060ff8260401c166100bd57506001600160401b036002600160401b031982821601610078575b60405161191190816100d2823960805181818161067d01526107360152f35b6001600160401b031990911681179091556040519081527fc7f505b2f371ae2175ee4913f4499e1f2633a7b5936321eed1cdaeb6115181d290602090a1388080610059565b63f92ee8a960e01b8152600490fd5b600080fdfe608080604052600436101561001357600080fd5b60e060003560e01c91826301ffc9a71461120e575081630923bb1414610be9578163248a9ca314610bad5781632f2ff15d14610b6157816336568abe14610b1a5781633f4ba83a14610aa3578163485cc955146109155781634f1ef286146106e757816352d1902d1461066a5781635c975abb1461063a57816369d0b517146105ff5781638456cb591461059857816391d148541461053e578163a217fddf14610522578163a252d8a71461030257508063ad3cb1cc146102b8578063d547741f1461026a578063d640a799146102415763ea4714c4146100f357600080fd5b3461023c57604036600319011261023c576004356024356001600160401b03811161023c57610126903690600401611261565b3360009081527fe45607abfef3d9cf5e943a575beae878b8ebd6d89ed911d543232b99ef6bc2dd60205260409020547f65cb1d8422cdf0328f26b49e42e9f4524474c431da623cbe0ea455f1b67c9f779392919060ff161561021d57906101b191836000526002602052602060406000205492826040519384928337810160018152030190206113a4565b508181540361020b57600801805460ff81166101f95760ff1916600117905533907fb5687d81b3cf7356c5e42a698c19d95fb939891cc41a87e21252d5feefd0201b600080a3005b604051633b43ed8360e11b8152600490fd5b604051635add554360e01b8152600490fd5b60405163e2517d3f60e01b815233600482015260248101859052604490fd5b600080fd5b3461023c57600036600319011261023c576000546040516001600160a01b039091168152602090f35b3461023c57604036600319011261023c576102b660043561028961128e565b908060005260008051602061187c8339815191526020526102b1600160406000200154611538565b611754565b005b3461023c57600036600319011261023c576102fe6040516102d8816112ba565b60058152640352e302e360dc1b6020820152604051918291602083526020830190611364565b0390f35b3461023c5760208060031936011261023c576001600160401b0360043581811161023c57610334903690600401611261565b6040519291819084378201918381600194600181520301902092835491821161050c5783858460059460405195610370868360051b01886112f1565b81875260009485528585208688019591865b8484106104645750505050506040519484869586019181875251809252604086019360408360051b88010195946000915b8483106103c05788880389f35b9193959750919384808298603f198c82030186528a5190610100866103f76101208551855286860151908088870152850190611364565b9360018060a01b036040820151166040850152606080820151908501526104418660808084015190815190880152015160a090818701528201519560c09686820388880152611364565b9481015182850152015115159101529901930193019092889796949295936103b3565b9460098982999a9760409c999c5161047b816112d5565b8654815261048a858801611410565b8184015260028701546001600160a01b031660408083019190915260038801546060830152516104b9816112ba565b60048801548152868801548482015260808201526104d960068801611410565b60a0820152600787015460c08201528d60ff60088901541615159082015281520193019301929198959897969497610382565b634e487b7160e01b600052604160045260246000fd5b3461023c57600036600319011261023c57602060405160008152f35b3461023c57604036600319011261023c5761055761128e565b60043560005260008051602061187c83398151915260205260406000209060018060a01b0316600052602052602060ff604060002054166040519015158152f35b3461023c57600036600319011261023c576105b16114e0565b6105b96114b5565b60008051602061189c833981519152600160ff198254161790557f62e78cea01bee320cd4e420270b5ea74000d11b0c9f74754ebdbfc544b05a2586020604051338152a1005b3461023c57600036600319011261023c5760206040517f65cb1d8422cdf0328f26b49e42e9f4524474c431da623cbe0ea455f1b67c9f778152f35b3461023c57600036600319011261023c57602060ff60008051602061189c83398151915254166040519015158152f35b3461023c57600036600319011261023c577f00000000000000000000000000000000000000000000000000000000000000006001600160a01b031630036106d55760206040517f360894a13ba1a3210667c828492db98dca3e2076cc3735a920a3ca505d382bbc8152f35b60405163703e46dd60e11b8152600490fd5b604036600319011261023c576106fb6112a4565b6024356001600160401b03811161023c573660238201121561023c5761072b90369060248160040135910161132d565b906001600160a01b037f000000000000000000000000000000000000000000000000000000000000000081163081149081156108e7575b506106d55761076f6114e0565b6040516352d1902d60e01b8152908216916020918281600481875afa600091816108b8575b506107b257604051634c9c8ce360e01b815260048101859052602490fd5b9284937f360894a13ba1a3210667c828492db98dca3e2076cc3735a920a3ca505d382bbc908181036108a05750823b156108875780546001600160a01b03191682179055604051907fbc7cd75a20ee27fd9adebab32041f755214dbc6bffa90cc0225b39da2e5c2d3b600080a283511561086d575060008084846102b696519101845af4903d15610864573d61084781611312565b9061085560405192836112f1565b8152600081943d92013e611818565b60609250611818565b925050503461087857005b63b398979f60e01b8152600490fd5b604051634c9c8ce360e01b815260048101839052602490fd5b60249060405190632a87526960e21b82526004820152fd5b9091508381813d83116108e0575b6108d081836112f1565b8101031261023c57519086610794565b503d6108c6565b9050817f360894a13ba1a3210667c828492db98dca3e2076cc3735a920a3ca505d382bbc5416141584610762565b3461023c57604036600319011261023c5761092e6112a4565b61093661128e565b907ff0c57e16840df040f15088dc2f81fe391c3923bec73e23a9662efc9c229c6a0091825460ff8160401c1615926001600160401b03821680159081610a9b575b6001149081610a91575b159081610a88575b50610a765767ffffffffffffffff19821660011785556109f39184610a57575b506109b26117d7565b6109ba6117d7565b6109c26117d7565b6109ca6117d7565b60016000805160206118bc833981519152556109e46117d7565b6109ed8161156b565b5061160b565b5060018060a01b03166bffffffffffffffffffffffff60a01b6000541617600055610a1a57005b68ff00000000000000001981541690557fc7f505b2f371ae2175ee4913f4499e1f2633a7b5936321eed1cdaeb6115181d2602060405160018152a1005b68ffffffffffffffffff191668010000000000000001178555856109a9565b60405163f92ee8a960e01b8152600490fd5b90501586610989565b303b159150610981565b859150610977565b3461023c57600036600319011261023c57610abc6114e0565b60008051602061189c833981519152805460ff811615610b085760ff191690557f5db9ee0a495bf2e6ff9c91a7834c1ba4fdd244a5e8aa4e537bd38aeae4b073aa6020604051338152a1005b604051638dfc202b60e01b8152600490fd5b3461023c57604036600319011261023c57610b3361128e565b336001600160a01b03821603610b4f576102b690600435611754565b60405163334bd91960e11b8152600490fd5b3461023c57604036600319011261023c576102b6600435610b8061128e565b908060005260008051602061187c833981519152602052610ba8600160406000200154611538565b6116cd565b3461023c57602036600319011261023c5760043560005260008051602061187c8339815191526020526020600160406000200154604051908152f35b3461023c5760a036600319011261023c576004356001600160401b03811161023c57610c19903690600401611261565b906024356001600160401b03811161023c57610c39903690600401611261565b9290916084356001600160401b03811161023c57610c5b903690600401611261565b9390610c656114b5565b60026000805160206118bc83398151915254146111fc5760026000805160206118bc83398151915255600054604051630cada3d560e31b815233600482015290602090829060249082906001600160a01b03165afa9081156111f0576000916111b5575b50156111a357851561119157841561117f57604051602081019085858337610d1a6054828a8982018189602083016000815237013360601b60208201524260348201520360348101845201826112f1565b5190209460405187848237600181890190815281900360200190208054909281156111745781600019810111610fb157610db1610d5b6000198401866113a4565b5054915b60405194610d6c866112ba565b6044358652606435602087015260405195610d86876112d5565b8b8752610d94368c8c61132d565b60208801523360408801524260608801526080870152369161132d565b60a084015260c0830152600060e08301526801000000000000000081101561050c57806001610de392018455836113a4565b61115e578151815560208201518051906001600160401b03821161050c578190610e1060018501546113d6565b601f811161110b575b50602090601f83116001146110995760009261108e575b50508160011b916000199060031b1c19161760018201555b6002810160018060a01b036040840151166bffffffffffffffffffffffff60a01b8254161790556060820151600382015560206080830151805160048401550151600582015560a08201518051906001600160401b03821161050c57610eb160068401546113d6565b601f8111611047575b50602090601f8311600114610fd257918060e09492600894600092610fc7575b50508160011b916000199060031b1c19161760068201555b60c0840151600782015501910151151560ff80198354169116179055546000198101908111610fb15760209585927fdfeb49cb582c0f0f0fcebda8c750cb29d879416a90e90d84de7a9377276a80c192846000526002895260406000205581604051928392833781016000815203902092846040519160408352816040840152606083013760006060868301015242878201526060813396601f80199101168101030190a460016000805160206118bc83398151915255604051908152f35b634e487b7160e01b600052601160045260246000fd5b015190508c80610eda565b906006840160005260206000209160005b601f198516811061102f57509260e0949260019260089583601f19811610611016575b505050811b016006820155610ef2565b015160001960f88460031b161c191690558c8080611006565b91926020600181928685015181550194019201610fe3565b600684016000526020600020601f840160051c810160208510611087575b601f830160051c8201811061107b575050610eba565b60008155600101611065565b5080611065565b015190508a80610e30565b9250600184016000526020600020906000935b601f19841685106110f0576001945083601f198116106110d7575b505050811b016001820155610e48565b015160001960f88460031b161c191690558a80806110c7565b818101518355602094850194600190930192909101906110ac565b909150600184016000526020600020601f840160051c810160208510611157575b90849392915b601f830160051c82018110611148575050610e19565b60008155859450600101611132565b508061112c565b634e487b7160e01b600052600060045260246000fd5b610db1600091610d5f565b604051636e6db68160e11b8152600490fd5b604051630a698e8560e31b8152600490fd5b6040516374924b8b60e01b8152600490fd5b90506020813d6020116111e8575b816111d0602093836112f1565b8101031261023c5751801515810361023c5787610cc9565b3d91506111c3565b6040513d6000823e3d90fd5b604051633ee5aeb560e01b8152600490fd5b3461023c57602036600319011261023c576004359063ffffffff60e01b821680920361023c57602091637965db0b60e01b8114908115611250575b5015158152f35b6301ffc9a760e01b14905083611249565b9181601f8401121561023c578235916001600160401b03831161023c576020838186019501011161023c57565b602435906001600160a01b038216820361023c57565b600435906001600160a01b038216820361023c57565b604081019081106001600160401b0382111761050c57604052565b61010081019081106001600160401b0382111761050c57604052565b90601f801991011681019081106001600160401b0382111761050c57604052565b6001600160401b03811161050c57601f01601f191660200190565b92919261133982611312565b9161134760405193846112f1565b82948184528183011161023c578281602093846000960137010152565b919082519283825260005b848110611390575050826000602080949584010152601f8019910116010190565b60208183018101518483018201520161136f565b80548210156113c0576000526009602060002091020190600090565b634e487b7160e01b600052603260045260246000fd5b90600182811c92168015611406575b60208310146113f057565b634e487b7160e01b600052602260045260246000fd5b91607f16916113e5565b90604051918260008254611423816113d6565b908184526020946001916001811690816000146114935750600114611454575b505050611452925003836112f1565b565b600090815285812095935091905b81831061147b5750506114529350820101388080611443565b85548884018501529485019487945091830191611462565b9250505061145294925060ff191682840152151560051b820101388080611443565b60ff60008051602061189c83398151915254166114ce57565b60405163d93c066560e01b8152600490fd5b3360009081527fb7db2dd08fcb62d0c9e08c51941cae53c267786a0b75803fb7960902fc8ef97d602052604081205460ff161561151a5750565b6044906040519063e2517d3f60e01b82523360048301526024820152fd5b8060005260008051602061187c83398151915260205260406000203360005260205260ff604060002054161561151a5750565b6001600160a01b031660008181527fb7db2dd08fcb62d0c9e08c51941cae53c267786a0b75803fb7960902fc8ef97d602052604081205490919060008051602061187c8339815191529060ff16611606578280526020526040822081835260205260408220600160ff1982541617905533917f2f8788117e7eff1d82e926ec794901d17c78024a50270940304540a733656f0d8180a4600190565b505090565b6001600160a01b031660008181527fe45607abfef3d9cf5e943a575beae878b8ebd6d89ed911d543232b99ef6bc2dd60205260408120549091907f65cb1d8422cdf0328f26b49e42e9f4524474c431da623cbe0ea455f1b67c9f779060008051602061187c8339815191529060ff166116c7578184526020526040832082845260205260408320600160ff198254161790557f2f8788117e7eff1d82e926ec794901d17c78024a50270940304540a733656f0d339380a4600190565b50505090565b9060009180835260008051602061187c83398151915280602052604084209260018060a01b03169283855260205260ff604085205416156000146116c7578184526020526040832082845260205260408320600160ff198254161790557f2f8788117e7eff1d82e926ec794901d17c78024a50270940304540a733656f0d339380a4600190565b9060009180835260008051602061187c83398151915280602052604084209260018060a01b03169283855260205260ff6040852054166000146116c757818452602052604083208284526020526040832060ff1981541690557ff6391f5c32d9c69d2a47ea670b442974b53935d1edc7fd64eb21e047a839171b339380a4600190565b60ff7ff0c57e16840df040f15088dc2f81fe391c3923bec73e23a9662efc9c229c6a005460401c161561180657565b604051631afcd79f60e31b8152600490fd5b9061183f575080511561182d57602081519101fd5b60405163d6bda27560e01b8152600490fd5b81511580611872575b611850575090565b604051639996b31560e01b81526001600160a01b039091166004820152602490fd5b50803b1561184856fe02dd7bc7dec4dceedda775e58dd541e08a116c6c53815c0bd028192f7b626800cd5ed15c6e187e77e9aee88184c21f4f2182ab5827cb3b7e07fbedcd63f033009b779b17422d0df92223018b32b4d1fa46e071723d6817e2486d003becc55f00a264697066735822122092b9426e12d803b2412639050abb2cbde93def821a794d1d9556911c405f5e1e64736f6c63430008180033",
  "linkReferences": {},
  "deployedLinkReferences": {}
}